{
  "contractName": "FlightPlan",
  "abi": [
    {
      "inputs": [],
      "stateMutability": "nonpayable",
      "type": "constructor"
    },
    {
      "anonymous": false,
      "inputs": [
        {
          "indexed": false,
          "internalType": "string",
          "name": "_from",
          "type": "string"
        },
        {
          "indexed": false,
          "internalType": "string",
          "name": "_to",
          "type": "string"
        },
        {
          "indexed": false,
          "internalType": "uint256",
          "name": "_status",
          "type": "uint256"
        }
      ],
      "name": "newFlightIssued",
      "type": "event"
    },
    {
      "inputs": [],
      "name": "owner",
      "outputs": [
        {
          "internalType": "address",
          "name": "",
          "type": "address"
        }
      ],
      "stateMutability": "view",
      "type": "function"
    },
    {
      "inputs": [
        {
          "internalType": "string",
          "name": "_from",
          "type": "string"
        },
        {
          "internalType": "string",
          "name": "_to",
          "type": "string"
        },
        {
          "internalType": "uint256",
          "name": "_status",
          "type": "uint256"
        },
        {
          "internalType": "string",
          "name": "cid",
          "type": "string"
        }
      ],
      "name": "issueFlight",
      "outputs": [],
      "stateMutability": "nonpayable",
      "type": "function"
    },
    {
      "inputs": [
        {
          "internalType": "string",
          "name": "_from",
          "type": "string"
        },
        {
          "internalType": "string",
          "name": "_to",
          "type": "string"
        }
      ],
      "name": "searchFlight",
      "outputs": [
        {
          "internalType": "string",
          "name": "",
          "type": "string"
        }
      ],
      "stateMutability": "view",
      "type": "function"
    }
  ],
  "bytecode": "0x608060405234801561001057600080fd5b50336000806101000a81548173ffffffffffffffffffffffffffffffffffffffff021916908373ffffffffffffffffffffffffffffffffffffffff16021790555060016002600080815260200190815260200160002060006101000a81548160ff0219169083600181111561008157fe5b02179055506000600260006001815260200190815260200160002060006101000a81548160ff021916908360018111156100b757fe5b02179055506107c9806100cb6000396000f3fe608060405234801561001057600080fd5b50600436106100415760003560e01c806355bc5c7e146100465780636c76c0c9146100625780638da5cb5b14610092575b600080fd5b610060600480360381019061005b91906104a1565b6100b0565b005b61007c60048036038101906100779190610435565b610225565b6040516100899190610606565b60405180910390f35b61009a610302565b6040516100a791906105eb565b60405180910390f35b81600281106100be57600080fd5b600160405180606001604052808781526020018681526020016002600087815260200190815260200160002060009054906101000a900460ff16600181111561010357fe5b8152509080600181540180825580915050600190039060005260206000209060030201600090919091909150600082015181600001908051906020019061014b929190610327565b506020820151816001019080519060200190610168929190610327565b5060408201518160020160006101000a81548160ff0219169083600181111561018d57fe5b02179055505050816003866040516101a591906105d4565b9081526020016040518091039020856040516101c191906105d4565b908152602001604051809103902090805190602001906101e2929190610327565b507fe388c59d3f8fad3f0575452375c4fb78b995ccbf40f4a5dac226f10de1de815d85858560405161021693929190610628565b60405180910390a15050505050565b606060038360405161023791906105d4565b90815260200160405180910390208260405161025391906105d4565b90815260200160405180910390208054600181600116156101000203166002900480601f0160208091040260200160405190810160405280929190818152602001828054600181600116156101000203166002900480156102f55780601f106102ca576101008083540402835291602001916102f5565b820191906000526020600020905b8154815290600101906020018083116102d857829003601f168201915b5050505050905092915050565b6000809054906101000a900473ffffffffffffffffffffffffffffffffffffffff1681565b828054600181600116156101000203166002900490600052602060002090601f016020900481019282601f1061036857805160ff1916838001178555610396565b82800160010185558215610396579182015b8281111561039557825182559160200191906001019061037a565b5b5090506103a391906103a7565b5090565b6103c991905b808211156103c55760008160009055506001016103ad565b5090565b90565b600082601f8301126103dd57600080fd5b81356103f06103eb8261069a565b61066d565b9150808252602083016020830185838301111561040c57600080fd5b610417838284610729565b50505092915050565b60008135905061042f8161077c565b92915050565b6000806040838503121561044857600080fd5b600083013567ffffffffffffffff81111561046257600080fd5b61046e858286016103cc565b925050602083013567ffffffffffffffff81111561048b57600080fd5b610497858286016103cc565b9150509250929050565b600080600080608085870312156104b757600080fd5b600085013567ffffffffffffffff8111156104d157600080fd5b6104dd878288016103cc565b945050602085013567ffffffffffffffff8111156104fa57600080fd5b610506878288016103cc565b935050604061051787828801610420565b925050606085013567ffffffffffffffff81111561053457600080fd5b610540878288016103cc565b91505092959194509250565b610555816106ed565b82525050565b6000610566826106c6565b61057081856106d1565b9350610580818560208601610738565b6105898161076b565b840191505092915050565b600061059f826106c6565b6105a981856106e2565b93506105b9818560208601610738565b80840191505092915050565b6105ce8161071f565b82525050565b60006105e08284610594565b915081905092915050565b6000602082019050610600600083018461054c565b92915050565b60006020820190508181036000830152610620818461055b565b905092915050565b60006060820190508181036000830152610642818661055b565b90508181036020830152610656818561055b565b905061066560408301846105c5565b949350505050565b6000604051905081810181811067ffffffffffffffff8211171561069057600080fd5b8060405250919050565b600067ffffffffffffffff8211156106b157600080fd5b601f19601f8301169050602081019050919050565b600081519050919050565b600082825260208201905092915050565b600081905092915050565b60006106f8826106ff565b9050919050565b600073ffffffffffffffffffffffffffffffffffffffff82169050919050565b6000819050919050565b82818337600083830152505050565b60005b8381101561075657808201518184015260208101905061073b565b83811115610765576000848401525b50505050565b6000601f19601f8301169050919050565b6107858161071f565b811461079057600080fd5b5056fea2646970667358221220f11fec6ccb4677e48a22f32f3240c7dbedd9db6fca8af1ec4d26f43c73f0fba264736f6c63430006070033",
  "source": "    // SPDX-License-Identifier: MIT\n    pragma solidity >=0.6.7;\n    pragma experimental ABIEncoderV2;\n\n    /**\n    * @author Deniz Durak\n    */\n\n    contract FlightPlan {\n\n        \n        // storage values\n\n        address public owner;\n        Route[] flights;\n        mapping(uint => Status) assignStatus;\n\n        // 1st is the dep, 2nd arr, 3rd the cid\n        mapping( string => mapping ( string => string ) ) plan;\n\n        /**\n        * @param Flight represents route of Airline\n        */\n\n        struct Route {\n            string from;\n            string to;\n            Status status;\n        }\n\n        enum Status {\n            ACTIVE, CANCELLED\n        }\n\n\n        // constructor assigns the creator of the contract as owner\n        // only owner can do mutations\n        constructor() public{\n\n            owner = msg.sender;\n            \n            assignStatus[0] = Status.CANCELLED;\n            assignStatus[1] = Status.ACTIVE;\n        }\n\n        /**\n        * @dev this function issues new flights and emits the FlightIssued event\n        */\n\n        function issueFlight(\n            string memory _from, \n            string memory _to,\n            uint _status,\n            string memory cid\n        )\n            public\n            validateStatus(_status)\n        {\n            flights.push(Route(_from, _to, assignStatus[_status]));\n            plan[_from][_to] = cid;\n            \n            emit newFlightIssued(_from, _to, _status);\n        }\n\n        /**\n        * @dev search for flights inside flightPlan\n        */\n\n        function searchFlight(\n            string memory _from,\n            string memory _to\n        )\n        public\n        view\n        returns (string memory)\n        {\n            return(plan[_from][_to]);\n        }\n\n        /**\n        * @dev compares cmp1 & cmp2\n        */\n\n        function compareStrings\n        (\n            string memory cmp1,\n            string memory cmp2\n        )\n        private\n        pure\n        returns(bool)\n        {\n            return (keccak256(abi.encodePacked((cmp1))) == keccak256(abi.encodePacked((cmp2))));\n        }\n\n        //  ** modifier ** \n        //\n        // checks if the status is 0 or 1 \n        //\n        modifier validateStatus(uint _status) {\n            require(_status < 2);\n            _;\n        }\n\n        // events\n        //\n        event newFlightIssued(string _from, string _to, uint _status);\n    }",
  "sourcePath": "/home/dubka/Documents/BachelorThesis/bin/smart_contracts/contracts/FlightPlan.sol",
  "compiler": {
    "name": "solc",
    "version": "0.6.7+commit.b8d736ae.Emscripten.clang"
  },
  "schemaVersion": "3.0.23",
  "updatedAt": "2020-11-02T14:12:16.769Z",
  "devdoc": {
    "author": "Deniz Durak",
    "methods": {
      "issueFlight(string,string,uint256,string)": {
        "details": "this function issues new flights and emits the FlightIssued event"
      },
      "searchFlight(string,string)": {
        "details": "search for flights inside flightPlan"
      }
    }
  },
  "userdoc": {
    "methods": {}
  }
}