{
  "contractName": "FlyTokenContract",
  "abi": [
    {
      "inputs": [],
      "stateMutability": "nonpayable",
      "type": "constructor"
    },
    {
      "anonymous": false,
      "inputs": [
        {
          "indexed": true,
          "internalType": "address",
          "name": "owner",
          "type": "address"
        },
        {
          "indexed": true,
          "internalType": "address",
          "name": "spender",
          "type": "address"
        },
        {
          "indexed": false,
          "internalType": "uint256",
          "name": "value",
          "type": "uint256"
        }
      ],
      "name": "Approval",
      "type": "event"
    },
    {
      "anonymous": false,
      "inputs": [
        {
          "indexed": false,
          "internalType": "address",
          "name": "from",
          "type": "address"
        },
        {
          "indexed": false,
          "internalType": "address",
          "name": "to",
          "type": "address"
        },
        {
          "indexed": false,
          "internalType": "uint256",
          "name": "amount",
          "type": "uint256"
        }
      ],
      "name": "DelayRefunded",
      "type": "event"
    },
    {
      "anonymous": false,
      "inputs": [
        {
          "indexed": false,
          "internalType": "uint256",
          "name": "amount",
          "type": "uint256"
        },
        {
          "indexed": false,
          "internalType": "address",
          "name": "from",
          "type": "address"
        },
        {
          "indexed": false,
          "internalType": "address",
          "name": "to",
          "type": "address"
        },
        {
          "indexed": false,
          "internalType": "uint256",
          "name": "timestamp",
          "type": "uint256"
        }
      ],
      "name": "NewPaymentInsert",
      "type": "event"
    },
    {
      "anonymous": false,
      "inputs": [
        {
          "indexed": false,
          "internalType": "address",
          "name": "from",
          "type": "address"
        },
        {
          "indexed": false,
          "internalType": "address",
          "name": "to",
          "type": "address"
        },
        {
          "indexed": false,
          "internalType": "uint256",
          "name": "amount",
          "type": "uint256"
        }
      ],
      "name": "PaymentRefunded",
      "type": "event"
    },
    {
      "anonymous": false,
      "inputs": [
        {
          "indexed": true,
          "internalType": "address",
          "name": "from",
          "type": "address"
        },
        {
          "indexed": true,
          "internalType": "address",
          "name": "to",
          "type": "address"
        },
        {
          "indexed": false,
          "internalType": "uint256",
          "name": "value",
          "type": "uint256"
        }
      ],
      "name": "Transfer",
      "type": "event"
    },
    {
      "inputs": [],
      "name": "contractOwner",
      "outputs": [
        {
          "internalType": "address",
          "name": "",
          "type": "address"
        }
      ],
      "stateMutability": "view",
      "type": "function"
    },
    {
      "inputs": [],
      "name": "name",
      "outputs": [
        {
          "internalType": "string",
          "name": "",
          "type": "string"
        }
      ],
      "stateMutability": "view",
      "type": "function"
    },
    {
      "inputs": [],
      "name": "symbol",
      "outputs": [
        {
          "internalType": "string",
          "name": "",
          "type": "string"
        }
      ],
      "stateMutability": "view",
      "type": "function"
    },
    {
      "inputs": [],
      "name": "totalSupply",
      "outputs": [
        {
          "internalType": "uint256",
          "name": "",
          "type": "uint256"
        }
      ],
      "stateMutability": "view",
      "type": "function"
    },
    {
      "inputs": [
        {
          "internalType": "address",
          "name": "owner",
          "type": "address"
        }
      ],
      "name": "balanceOf",
      "outputs": [
        {
          "internalType": "uint256",
          "name": "",
          "type": "uint256"
        }
      ],
      "stateMutability": "view",
      "type": "function"
    },
    {
      "inputs": [
        {
          "internalType": "address",
          "name": "owner",
          "type": "address"
        },
        {
          "internalType": "address",
          "name": "spender",
          "type": "address"
        }
      ],
      "name": "allowance",
      "outputs": [
        {
          "internalType": "uint256",
          "name": "",
          "type": "uint256"
        }
      ],
      "stateMutability": "view",
      "type": "function"
    },
    {
      "inputs": [
        {
          "internalType": "address",
          "name": "to",
          "type": "address"
        },
        {
          "internalType": "uint256",
          "name": "value",
          "type": "uint256"
        }
      ],
      "name": "transfer",
      "outputs": [
        {
          "internalType": "bool",
          "name": "",
          "type": "bool"
        }
      ],
      "stateMutability": "nonpayable",
      "type": "function"
    },
    {
      "inputs": [
        {
          "internalType": "address",
          "name": "spender",
          "type": "address"
        },
        {
          "internalType": "uint256",
          "name": "value",
          "type": "uint256"
        }
      ],
      "name": "approve",
      "outputs": [
        {
          "internalType": "bool",
          "name": "",
          "type": "bool"
        }
      ],
      "stateMutability": "nonpayable",
      "type": "function"
    },
    {
      "inputs": [
        {
          "internalType": "address",
          "name": "from",
          "type": "address"
        },
        {
          "internalType": "address",
          "name": "to",
          "type": "address"
        },
        {
          "internalType": "uint256",
          "name": "value",
          "type": "uint256"
        }
      ],
      "name": "transferFrom",
      "outputs": [
        {
          "internalType": "bool",
          "name": "",
          "type": "bool"
        }
      ],
      "stateMutability": "nonpayable",
      "type": "function"
    },
    {
      "inputs": [
        {
          "internalType": "address",
          "name": "spender",
          "type": "address"
        },
        {
          "internalType": "uint256",
          "name": "addedValue",
          "type": "uint256"
        }
      ],
      "name": "increaseAllowance",
      "outputs": [
        {
          "internalType": "bool",
          "name": "",
          "type": "bool"
        }
      ],
      "stateMutability": "nonpayable",
      "type": "function"
    },
    {
      "inputs": [
        {
          "internalType": "address",
          "name": "spender",
          "type": "address"
        },
        {
          "internalType": "uint256",
          "name": "subtractedValue",
          "type": "uint256"
        }
      ],
      "name": "decreaseAllowance",
      "outputs": [
        {
          "internalType": "bool",
          "name": "",
          "type": "bool"
        }
      ],
      "stateMutability": "nonpayable",
      "type": "function"
    },
    {
      "inputs": [
        {
          "internalType": "address",
          "name": "account",
          "type": "address"
        },
        {
          "internalType": "uint256",
          "name": "amount",
          "type": "uint256"
        }
      ],
      "name": "_mint",
      "outputs": [],
      "stateMutability": "nonpayable",
      "type": "function"
    },
    {
      "inputs": [
        {
          "internalType": "address",
          "name": "account",
          "type": "address"
        },
        {
          "internalType": "uint256",
          "name": "amount",
          "type": "uint256"
        }
      ],
      "name": "_burn",
      "outputs": [],
      "stateMutability": "nonpayable",
      "type": "function"
    },
    {
      "inputs": [
        {
          "internalType": "address",
          "name": "cust",
          "type": "address"
        },
        {
          "internalType": "uint256",
          "name": "price",
          "type": "uint256"
        }
      ],
      "name": "paymentHandlerCancelled",
      "outputs": [
        {
          "internalType": "uint256",
          "name": "",
          "type": "uint256"
        },
        {
          "internalType": "uint256",
          "name": "",
          "type": "uint256"
        }
      ],
      "stateMutability": "nonpayable",
      "type": "function"
    },
    {
      "inputs": [
        {
          "internalType": "address",
          "name": "cust",
          "type": "address"
        },
        {
          "internalType": "uint256",
          "name": "dist",
          "type": "uint256"
        }
      ],
      "name": "paymentHandlerDelayed",
      "outputs": [
        {
          "internalType": "uint256",
          "name": "",
          "type": "uint256"
        },
        {
          "internalType": "uint256",
          "name": "",
          "type": "uint256"
        }
      ],
      "stateMutability": "nonpayable",
      "type": "function"
    },
    {
      "inputs": [
        {
          "internalType": "uint256",
          "name": "_amount",
          "type": "uint256"
        },
        {
          "internalType": "address",
          "name": "addr",
          "type": "address"
        },
        {
          "internalType": "uint256",
          "name": "timestamp",
          "type": "uint256"
        }
      ],
      "name": "insertPayment",
      "outputs": [],
      "stateMutability": "nonpayable",
      "type": "function"
    },
    {
      "inputs": [],
      "name": "searchPayments",
      "outputs": [
        {
          "internalType": "uint256[]",
          "name": "",
          "type": "uint256[]"
        },
        {
          "internalType": "address[]",
          "name": "",
          "type": "address[]"
        },
        {
          "internalType": "address[]",
          "name": "",
          "type": "address[]"
        },
        {
          "internalType": "uint256[]",
          "name": "",
          "type": "uint256[]"
        }
      ],
      "stateMutability": "view",
      "type": "function"
    }
  ],
  "bytecode": "0x60806040523480156200001157600080fd5b5033600360006101000a81548173ffffffffffffffffffffffffffffffffffffffff021916908373ffffffffffffffffffffffffffffffffffffffff1602179055506040518060400160405280600781526020017f466c79436f696e0000000000000000000000000000000000000000000000000081525060059080519060200190620000a0929190620000fd565b506040518060400160405280600381526020017f464c59000000000000000000000000000000000000000000000000000000000081525060069080519060200190620000ee929190620000fd565b506000600481905550620001ac565b828054600181600116156101000203166002900490600052602060002090601f016020900481019282601f106200014057805160ff191683800117855562000171565b8280016001018555821562000171579182015b828111156200017057825182559160200191906001019062000153565b5b50905062000180919062000184565b5090565b620001a991905b80821115620001a55760008160009055506001016200018b565b5090565b90565b6122d580620001bc6000396000f3fe608060405234801561001057600080fd5b506004361061010b5760003560e01c806370a08231116100a2578063af3ec0a511610071578063af3ec0a5146105af578063ce606ee014610607578063dd62ed3e14610651578063f3e10bbb146106c9578063fffe123f146107325761010b565b806370a082311461040857806395d89b4114610460578063a457c2d7146104e3578063a9059cbb146105495761010b565b806339509351116100de578063395093511461029d57806348debd24146103035780634e6ec2471461036c5780636161eb18146103ba5761010b565b806306fdde0314610110578063095ea7b31461019357806318160ddd146101f957806323b872dd14610217575b600080fd5b610118610869565b6040518080602001828103825283818151815260200191508051906020019080838360005b8381101561015857808201518184015260208101905061013d565b50505050905090810190601f1680156101855780820380516001836020036101000a031916815260200191505b509250505060405180910390f35b6101df600480360360408110156101a957600080fd5b81019080803573ffffffffffffffffffffffffffffffffffffffff16906020019092919080359060200190929190505050610907565b604051808215151515815260200191505060405180910390f35b610201610a32565b6040518082815260200191505060405180910390f35b6102836004803603606081101561022d57600080fd5b81019080803573ffffffffffffffffffffffffffffffffffffffff169060200190929190803573ffffffffffffffffffffffffffffffffffffffff16906020019092919080359060200190929190505050610a3c565b604051808215151515815260200191505060405180910390f35b6102e9600480360360408110156102b357600080fd5b81019080803573ffffffffffffffffffffffffffffffffffffffff16906020019092919080359060200190929190505050610dc1565b604051808215151515815260200191505060405180910390f35b61034f6004803603604081101561031957600080fd5b81019080803573ffffffffffffffffffffffffffffffffffffffff16906020019092919080359060200190929190505050610fe6565b604051808381526020018281526020019250505060405180910390f35b6103b86004803603604081101561038257600080fd5b81019080803573ffffffffffffffffffffffffffffffffffffffff16906020019092919080359060200190929190505050611144565b005b610406600480360360408110156103d057600080fd5b81019080803573ffffffffffffffffffffffffffffffffffffffff1690602001909291908035906020019092919050505061123c565b005b61044a6004803603602081101561041e57600080fd5b81019080803573ffffffffffffffffffffffffffffffffffffffff16906020019092919050505061137f565b6040518082815260200191505060405180910390f35b6104686113c7565b6040518080602001828103825283818151815260200191508051906020019080838360005b838110156104a857808201518184015260208101905061048d565b50505050905090810190601f1680156104d55780820380516001836020036101000a031916815260200191505b509250505060405180910390f35b61052f600480360360408110156104f957600080fd5b81019080803573ffffffffffffffffffffffffffffffffffffffff16906020019092919080359060200190929190505050611465565b604051808215151515815260200191505060405180910390f35b6105956004803603604081101561055f57600080fd5b81019080803573ffffffffffffffffffffffffffffffffffffffff1690602001909291908035906020019092919050505061168a565b604051808215151515815260200191505060405180910390f35b610605600480360360608110156105c557600080fd5b8101908080359060200190929190803573ffffffffffffffffffffffffffffffffffffffff16906020019092919080359060200190929190505050611886565b005b61060f611ba4565b604051808273ffffffffffffffffffffffffffffffffffffffff1673ffffffffffffffffffffffffffffffffffffffff16815260200191505060405180910390f35b6106b36004803603604081101561066757600080fd5b81019080803573ffffffffffffffffffffffffffffffffffffffff169060200190929190803573ffffffffffffffffffffffffffffffffffffffff169060200190929190505050611bca565b6040518082815260200191505060405180910390f35b610715600480360360408110156106df57600080fd5b81019080803573ffffffffffffffffffffffffffffffffffffffff16906020019092919080359060200190929190505050611c51565b604051808381526020018281526020019250505060405180910390f35b61073a611e05565b6040518080602001806020018060200180602001858103855289818151815260200191508051906020019060200280838360005b8381101561078957808201518184015260208101905061076e565b50505050905001858103845288818151815260200191508051906020019060200280838360005b838110156107cb5780820151818401526020810190506107b0565b50505050905001858103835287818151815260200191508051906020019060200280838360005b8381101561080d5780820151818401526020810190506107f2565b50505050905001858103825286818151815260200191508051906020019060200280838360005b8381101561084f578082015181840152602081019050610834565b505050509050019850505050505050505060405180910390f35b60058054600181600116156101000203166002900480601f0160208091040260200160405190810160405280929190818152602001828054600181600116156101000203166002900480156108ff5780601f106108d4576101008083540402835291602001916108ff565b820191906000526020600020905b8154815290600101906020018083116108e257829003601f168201915b505050505081565b60008073ffffffffffffffffffffffffffffffffffffffff168373ffffffffffffffffffffffffffffffffffffffff16141561094257600080fd5b81600160003373ffffffffffffffffffffffffffffffffffffffff1673ffffffffffffffffffffffffffffffffffffffff16815260200190815260200160002060008573ffffffffffffffffffffffffffffffffffffffff1673ffffffffffffffffffffffffffffffffffffffff168152602001908152602001600020819055508273ffffffffffffffffffffffffffffffffffffffff163373ffffffffffffffffffffffffffffffffffffffff167f8c5be1e5ebec7d5bd14f71427d1e84f3dd0314c0f7b2291e5b200ac8c7c3b925846040518082815260200191505060405180910390a36001905092915050565b6000600454905090565b60008060008573ffffffffffffffffffffffffffffffffffffffff1673ffffffffffffffffffffffffffffffffffffffff16815260200190815260200160002054821115610a8957600080fd5b600160008573ffffffffffffffffffffffffffffffffffffffff1673ffffffffffffffffffffffffffffffffffffffff16815260200190815260200160002060003373ffffffffffffffffffffffffffffffffffffffff1673ffffffffffffffffffffffffffffffffffffffff16815260200190815260200160002054821115610b1257600080fd5b600073ffffffffffffffffffffffffffffffffffffffff168373ffffffffffffffffffffffffffffffffffffffff161415610b4c57600080fd5b816000808673ffffffffffffffffffffffffffffffffffffffff1673ffffffffffffffffffffffffffffffffffffffff16815260200190815260200160002054036000808673ffffffffffffffffffffffffffffffffffffffff1673ffffffffffffffffffffffffffffffffffffffff16815260200190815260200160002081905550816000808573ffffffffffffffffffffffffffffffffffffffff1673ffffffffffffffffffffffffffffffffffffffff16815260200190815260200160002054016000808573ffffffffffffffffffffffffffffffffffffffff1673ffffffffffffffffffffffffffffffffffffffff1681526020019081526020016000208190555081600160008673ffffffffffffffffffffffffffffffffffffffff1673ffffffffffffffffffffffffffffffffffffffff16815260200190815260200160002060003373ffffffffffffffffffffffffffffffffffffffff1673ffffffffffffffffffffffffffffffffffffffff1681526020019081526020016000205403600160008673ffffffffffffffffffffffffffffffffffffffff1673ffffffffffffffffffffffffffffffffffffffff16815260200190815260200160002060003373ffffffffffffffffffffffffffffffffffffffff1673ffffffffffffffffffffffffffffffffffffffff168152602001908152602001600020819055508273ffffffffffffffffffffffffffffffffffffffff168473ffffffffffffffffffffffffffffffffffffffff167fddf252ad1be2c89b69c2b068fc378daa952ba7f163c4a11628f55a4df523b3ef846040518082815260200191505060405180910390a3600190509392505050565b60008073ffffffffffffffffffffffffffffffffffffffff168373ffffffffffffffffffffffffffffffffffffffff161415610dfc57600080fd5b81600160003373ffffffffffffffffffffffffffffffffffffffff1673ffffffffffffffffffffffffffffffffffffffff16815260200190815260200160002060008573ffffffffffffffffffffffffffffffffffffffff1673ffffffffffffffffffffffffffffffffffffffff1681526020019081526020016000205401600160003373ffffffffffffffffffffffffffffffffffffffff1673ffffffffffffffffffffffffffffffffffffffff16815260200190815260200160002060008573ffffffffffffffffffffffffffffffffffffffff1673ffffffffffffffffffffffffffffffffffffffff168152602001908152602001600020819055508273ffffffffffffffffffffffffffffffffffffffff163373ffffffffffffffffffffffffffffffffffffffff167f8c5be1e5ebec7d5bd14f71427d1e84f3dd0314c0f7b2291e5b200ac8c7c3b925600160003373ffffffffffffffffffffffffffffffffffffffff1673ffffffffffffffffffffffffffffffffffffffff16815260200190815260200160002060008773ffffffffffffffffffffffffffffffffffffffff1673ffffffffffffffffffffffffffffffffffffffff168152602001908152602001600020546040518082815260200191505060405180910390a36001905092915050565b600080600360009054906101000a900473ffffffffffffffffffffffffffffffffffffffff1673ffffffffffffffffffffffffffffffffffffffff163373ffffffffffffffffffffffffffffffffffffffff161461104357600080fd5b600073ffffffffffffffffffffffffffffffffffffffff168473ffffffffffffffffffffffffffffffffffffffff16141561107d57600080fd5b611087848461168a565b507f1fe0e1f6a955c54cad742585d1c3927aec8fad3be84984e969f8a61e022a440c338585604051808473ffffffffffffffffffffffffffffffffffffffff1673ffffffffffffffffffffffffffffffffffffffff1681526020018373ffffffffffffffffffffffffffffffffffffffff1673ffffffffffffffffffffffffffffffffffffffff168152602001828152602001935050505060405180910390a16111303361137f565b6111398561137f565b915091509250929050565b8060045401600481905550806000808473ffffffffffffffffffffffffffffffffffffffff1673ffffffffffffffffffffffffffffffffffffffff16815260200190815260200160002054016000808473ffffffffffffffffffffffffffffffffffffffff1673ffffffffffffffffffffffffffffffffffffffff168152602001908152602001600020819055508173ffffffffffffffffffffffffffffffffffffffff16600073ffffffffffffffffffffffffffffffffffffffff167fddf252ad1be2c89b69c2b068fc378daa952ba7f163c4a11628f55a4df523b3ef836040518082815260200191505060405180910390a35050565b6000808373ffffffffffffffffffffffffffffffffffffffff1673ffffffffffffffffffffffffffffffffffffffff1681526020019081526020016000205481111561128757600080fd5b8060045403600481905550806000808473ffffffffffffffffffffffffffffffffffffffff1673ffffffffffffffffffffffffffffffffffffffff16815260200190815260200160002054036000808473ffffffffffffffffffffffffffffffffffffffff1673ffffffffffffffffffffffffffffffffffffffff16815260200190815260200160002081905550600073ffffffffffffffffffffffffffffffffffffffff168273ffffffffffffffffffffffffffffffffffffffff167fddf252ad1be2c89b69c2b068fc378daa952ba7f163c4a11628f55a4df523b3ef836040518082815260200191505060405180910390a35050565b60008060008373ffffffffffffffffffffffffffffffffffffffff1673ffffffffffffffffffffffffffffffffffffffff168152602001908152602001600020549050919050565b60068054600181600116156101000203166002900480601f01602080910402602001604051908101604052809291908181526020018280546001816001161561010002031660029004801561145d5780601f106114325761010080835404028352916020019161145d565b820191906000526020600020905b81548152906001019060200180831161144057829003601f168201915b505050505081565b60008073ffffffffffffffffffffffffffffffffffffffff168373ffffffffffffffffffffffffffffffffffffffff1614156114a057600080fd5b81600160003373ffffffffffffffffffffffffffffffffffffffff1673ffffffffffffffffffffffffffffffffffffffff16815260200190815260200160002060008573ffffffffffffffffffffffffffffffffffffffff1673ffffffffffffffffffffffffffffffffffffffff1681526020019081526020016000205403600160003373ffffffffffffffffffffffffffffffffffffffff1673ffffffffffffffffffffffffffffffffffffffff16815260200190815260200160002060008573ffffffffffffffffffffffffffffffffffffffff1673ffffffffffffffffffffffffffffffffffffffff168152602001908152602001600020819055508273ffffffffffffffffffffffffffffffffffffffff163373ffffffffffffffffffffffffffffffffffffffff167f8c5be1e5ebec7d5bd14f71427d1e84f3dd0314c0f7b2291e5b200ac8c7c3b925600160003373ffffffffffffffffffffffffffffffffffffffff1673ffffffffffffffffffffffffffffffffffffffff16815260200190815260200160002060008773ffffffffffffffffffffffffffffffffffffffff1673ffffffffffffffffffffffffffffffffffffffff168152602001908152602001600020546040518082815260200191505060405180910390a36001905092915050565b60008060003373ffffffffffffffffffffffffffffffffffffffff1673ffffffffffffffffffffffffffffffffffffffff168152602001908152602001600020548211156116d757600080fd5b600073ffffffffffffffffffffffffffffffffffffffff168373ffffffffffffffffffffffffffffffffffffffff16141561171157600080fd5b816000803373ffffffffffffffffffffffffffffffffffffffff1673ffffffffffffffffffffffffffffffffffffffff16815260200190815260200160002054036000803373ffffffffffffffffffffffffffffffffffffffff1673ffffffffffffffffffffffffffffffffffffffff16815260200190815260200160002081905550816000808573ffffffffffffffffffffffffffffffffffffffff1673ffffffffffffffffffffffffffffffffffffffff16815260200190815260200160002054016000808573ffffffffffffffffffffffffffffffffffffffff1673ffffffffffffffffffffffffffffffffffffffff168152602001908152602001600020819055508273ffffffffffffffffffffffffffffffffffffffff163373ffffffffffffffffffffffffffffffffffffffff167fddf252ad1be2c89b69c2b068fc378daa952ba7f163c4a11628f55a4df523b3ef846040518082815260200191505060405180910390a36001905092915050565b61188e61224b565b60405180608001604052808581526020013373ffffffffffffffffffffffffffffffffffffffff1681526020018473ffffffffffffffffffffffffffffffffffffffff168152602001838152509050600260003373ffffffffffffffffffffffffffffffffffffffff1673ffffffffffffffffffffffffffffffffffffffff1681526020019081526020016000208190806001815401808255809150506001900390600052602060002090600402016000909190919091506000820151816000015560208201518160010160006101000a81548173ffffffffffffffffffffffffffffffffffffffff021916908373ffffffffffffffffffffffffffffffffffffffff16021790555060408201518160020160006101000a81548173ffffffffffffffffffffffffffffffffffffffff021916908373ffffffffffffffffffffffffffffffffffffffff160217905550606082015181600301555050600260008473ffffffffffffffffffffffffffffffffffffffff1673ffffffffffffffffffffffffffffffffffffffff1681526020019081526020016000208190806001815401808255809150506001900390600052602060002090600402016000909190919091506000820151816000015560208201518160010160006101000a81548173ffffffffffffffffffffffffffffffffffffffff021916908373ffffffffffffffffffffffffffffffffffffffff16021790555060408201518160020160006101000a81548173ffffffffffffffffffffffffffffffffffffffff021916908373ffffffffffffffffffffffffffffffffffffffff1602179055506060820151816003015550507fbe92ec8b1e2f81550d5943cf95763c4dd36cecd4efba63a63f694437c9e7b2fd84338585604051808581526020018473ffffffffffffffffffffffffffffffffffffffff1673ffffffffffffffffffffffffffffffffffffffff1681526020018373ffffffffffffffffffffffffffffffffffffffff1673ffffffffffffffffffffffffffffffffffffffff16815260200182815260200194505050505060405180910390a150505050565b600360009054906101000a900473ffffffffffffffffffffffffffffffffffffffff1681565b6000600160008473ffffffffffffffffffffffffffffffffffffffff1673ffffffffffffffffffffffffffffffffffffffff16815260200190815260200160002060008373ffffffffffffffffffffffffffffffffffffffff1673ffffffffffffffffffffffffffffffffffffffff16815260200190815260200160002054905092915050565b600080600360009054906101000a900473ffffffffffffffffffffffffffffffffffffffff1673ffffffffffffffffffffffffffffffffffffffff163373ffffffffffffffffffffffffffffffffffffffff1614611cae57600080fd5b600073ffffffffffffffffffffffffffffffffffffffff168473ffffffffffffffffffffffffffffffffffffffff161415611ce857600080fd5b60006105dc841015611d055760fa9050611d038560fa61168a565b505b6105dc8410158015611d195750610dac8411155b15611d35576101909050611d2f8561019061168a565b50611d48565b6102589050611d468561025861168a565b505b7f35e5abdeb17e9ffd8ea69bb394ebbe3b22ef33c19ab556c898fbdcd0868462f0338683604051808473ffffffffffffffffffffffffffffffffffffffff1673ffffffffffffffffffffffffffffffffffffffff1681526020018373ffffffffffffffffffffffffffffffffffffffff1673ffffffffffffffffffffffffffffffffffffffff168152602001828152602001935050505060405180910390a1611df03361137f565b611df98661137f565b92509250509250929050565b6060806060806060600260003373ffffffffffffffffffffffffffffffffffffffff1673ffffffffffffffffffffffffffffffffffffffff168152602001908152602001600020805480602002602001604051908101604052809291908181526020016000905b82821015611f5e5783829060005260206000209060040201604051806080016040529081600082015481526020016001820160009054906101000a900473ffffffffffffffffffffffffffffffffffffffff1673ffffffffffffffffffffffffffffffffffffffff1673ffffffffffffffffffffffffffffffffffffffff1681526020016002820160009054906101000a900473ffffffffffffffffffffffffffffffffffffffff1673ffffffffffffffffffffffffffffffffffffffff1673ffffffffffffffffffffffffffffffffffffffff16815260200160038201548152505081526020019060010190611e6c565b50505050905060008151905060608060608060008090505b85811015612232573373ffffffffffffffffffffffffffffffffffffffff16878281518110611fa157fe5b60200260200101516020015173ffffffffffffffffffffffffffffffffffffffff1614156120d357868181518110611fd557fe5b602002602001015160000151858281518110611fed57fe5b6020026020010181815250503384828151811061200657fe5b602002602001019073ffffffffffffffffffffffffffffffffffffffff16908173ffffffffffffffffffffffffffffffffffffffff168152505086818151811061204c57fe5b60200260200101516040015183828151811061206457fe5b602002602001019073ffffffffffffffffffffffffffffffffffffffff16908173ffffffffffffffffffffffffffffffffffffffff16815250508681815181106120aa57fe5b6020026020010151606001518282815181106120c257fe5b602002602001018181525050612225565b3373ffffffffffffffffffffffffffffffffffffffff168782815181106120f657fe5b60200260200101516040015173ffffffffffffffffffffffffffffffffffffffff1614156122245786818151811061212a57fe5b60200260200101516000015185828151811061214257fe5b60200260200101818152505086818151811061215a57fe5b60200260200101516020015184828151811061217257fe5b602002602001019073ffffffffffffffffffffffffffffffffffffffff16908173ffffffffffffffffffffffffffffffffffffffff1681525050338382815181106121b957fe5b602002602001019073ffffffffffffffffffffffffffffffffffffffff16908173ffffffffffffffffffffffffffffffffffffffff16815250508681815181106121ff57fe5b60200260200101516060015182828151811061221757fe5b6020026020010181815250505b5b8080600101915050611f76565b5083838383995099509950995050505050505090919293565b604051806080016040528060008152602001600073ffffffffffffffffffffffffffffffffffffffff168152602001600073ffffffffffffffffffffffffffffffffffffffff16815260200160008152509056fea2646970667358221220fa78c47020fd4df1cef09fc731b689c6b9ec88bcccd2d57857224ba7930589ee64736f6c63430006070033",
  "source": "// SPDX-License-Identifier: MIT\npragma solidity >=0.4.24;\n\n\ninterface IERC20 {\n  function totalSupply() external view returns (uint256);\n\n  function balanceOf(address who) external view returns (uint256);\n\n  function allowance(address owner, address spender)\n    external view returns (uint256);\n\n  function transfer(address to, uint256 value) external returns (bool);\n\n  function approve(address spender, uint256 value)\n    external returns (bool);\n\n  function transferFrom(address from, address to, uint256 value)\n    external returns (bool);\n\n  event Transfer(\n    address indexed from,\n    address indexed to,\n    uint256 value\n  );\n\n  event Approval(\n    address indexed owner,\n    address indexed spender,\n    uint256 value\n  );\n}\n\n\n/**\n * @title Standard ERC20 token\n *\n * @dev Implementation of the basic standard token.\n * https://github.com/ethereum/EIPs/blob/master/EIPS/eip-20.md\n * Originally based on code by FirstBlood: https://github.com/Firstbloodio/token/blob/master/smart_contract/FirstBloodToken.sol\n */\ncontract FlyTokenContract is IERC20 {\n\n  mapping (address => uint256) private _balances;\n\n  mapping (address => mapping (address => uint256)) private _allowed;\n\n  mapping (address => Payments[]) paymentsDone;\n\n  address public contractOwner;\n\n  uint256 private _totalSupply;\n\n  string public name;\n  string public symbol;\n\n  struct Payments {\n    uint amount;\n    address _sender;\n    address _recipient;\n    uint timestamp;\n  }\n\n  constructor() public {\n    contractOwner = msg.sender;\n    name = \"FlyCoin\";\n    symbol = \"FLY\";\n    _totalSupply = 0;\n  } \n\n  /** \n  * @dev Total number of tokens in existence\n  */\n  function totalSupply() public view override returns(uint256) {\n    return _totalSupply;\n  }\n\n  /**\n  * @dev Gets the balance of the specified address.\n  * @param owner The address to query the balance of.\n  * @return An uint256 representing the amount owned by the passed address.\n  */\n  function balanceOf(address owner) public view override returns (uint256) {\n    return _balances[owner];\n  }\n\n  /**\n   * @dev Function to check the amount of tokens that an owner allowed to a spender.\n   * @param owner address The address which owns the funds.\n   * @param spender address The address which will spend the funds.\n   * @return A uint256 specifying the amount of tokens still available for the spender.\n   */\n  function allowance(\n    address owner,\n    address spender\n   )\n    public\n    view\n    override\n    returns (uint256)\n  {\n    return _allowed[owner][spender];\n  }\n\n  /**\n  * @dev Transfer token for a specified address\n  * @param to The address to transfer to.\n  * @param value The amount to be transferred.\n  */\n  function transfer(address to, uint256 value) public override returns (bool) {\n    require(value <= _balances[msg.sender]);\n    require(to != address(0));\n\n    _balances[msg.sender] = _balances[msg.sender]-value;\n    _balances[to] = _balances[to]+value;\n\n\n    emit Transfer(msg.sender, to, value);\n    return true;\n  }\n\n  /**\n   * @dev Approve the passed address to spend the specified amount of tokens on behalf of msg.sender.\n   * Beware that changing an allowance with this method brings the risk that someone may use both the old\n   * and the new allowance by unfortunate transaction ordering. One possible solution to mitigate this\n   * race condition is to first reduce the spender's allowance to 0 and set the desired value afterwards:\n   * https://github.com/ethereum/EIPs/issues/20#issuecomment-263524729\n   * @param spender The address which will spend the funds.\n   * @param value The amount of tokens to be spent.\n   */\n  function approve(address spender, uint256 value) public override returns (bool) {\n    require(spender != address(0));\n\n    _allowed[msg.sender][spender] = value;\n    emit Approval(msg.sender, spender, value);\n    return true;\n  }\n\n\n  /**\n   * @dev Transfer tokens from one address to another\n   * @param from address The address which you want to send tokens from\n   * @param to address The address which you want to transfer to\n   * @param value uint256 the amount of tokens to be transferred\n   */\n  function transferFrom(\n    address from,\n    address to,\n    uint256 value\n  )\n    public\n    override\n    returns (bool)\n  {\n    require(value <= _balances[from]);\n    require(value <= _allowed[from][msg.sender]);\n    require(to != address(0));\n\n    _balances[from] = _balances[from]-value;\n    _balances[to] = _balances[to]+value;\n    _allowed[from][msg.sender] = _allowed[from][msg.sender]-value;\n    emit Transfer(from, to, value);\n    return true;\n  }\n\n\n  /**\n   * @dev Increase the amount of tokens that an owner allowed to a spender.\n   * approve should be called when allowed_[_spender] == 0. To increment\n   * allowed value is better to use this function to avoid 2 calls (and wait until\n   * the first transaction is mined)\n   * From MonolithDAO Token.sol\n   * @param spender The address which will spend the funds.\n   * @param addedValue The amount of tokens to increase the allowance by.\n   */\n  function increaseAllowance(address spender, uint256 addedValue) public returns (bool)\n  {\n    require(spender != address(0));\n\n    _allowed[msg.sender][spender] = (\n      _allowed[msg.sender][spender]+addedValue);\n    emit Approval(msg.sender, spender, _allowed[msg.sender][spender]);\n    return true;\n  }\n\n\n  /**\n   * @dev Decrease the amount of tokens that an owner allowed to a spender.\n   * approve should be called when allowed_[_spender] == 0. To decrement\n   * allowed value is better to use this function to avoid 2 calls (and wait until\n   * the first transaction is mined)\n   * From MonolithDAO Token.sol\n   * @param spender The address which will spend the funds.\n   * @param subtractedValue The amount of tokens to decrease the allowance by.\n   */\n  function decreaseAllowance(\n    address spender,\n    uint256 subtractedValue\n  )\n    public\n    returns (bool)\n  {\n    require(spender != address(0));\n\n    _allowed[msg.sender][spender] = (\n      _allowed[msg.sender][spender]-subtractedValue);\n    emit Approval(msg.sender, spender, _allowed[msg.sender][spender]);\n    return true;\n  }\n\n\n  /**\n   * @dev Internal function that mints an amount of the token and assigns it to\n   * an account. This encapsulates the modification of balances such that the\n   * proper events are emitted.\n   * @param account The account that will receive the created tokens.\n   * @param amount The amount that will be created.\n   */\n  function _mint(address account, uint256 amount) public {\n    _totalSupply = _totalSupply+amount;\n    _balances[account] = _balances[account]+amount;\n    emit Transfer(address(0), account, amount);\n  }\n\n\n  /**\n   * @dev Internal function that burns an amount of the token of a given\n   * account.\n   * @param account The account whose tokens will be burnt.\n   * @param amount The amount that will be burnt.\n   */\n  function _burn(address account, uint256 amount) public {\n    require(amount <= _balances[account]);\n\n    _totalSupply = _totalSupply-amount;\n    _balances[account] = _balances[account]-amount;\n    emit Transfer(account, address(0), amount);\n  }\n\n\n  /**\n   * @dev Internal function that burns an amount of the token of a given\n   * account, deducting from the sender's allowance for said account. Uses the\n   * internal burn function.\n   * @param account The account whose tokens will be burnt.\n   * @param amount The amount that will be burnt.\n   */\n  function _burnFrom(address account, uint256 amount) internal {\n    require(amount <= _allowed[account][msg.sender]);\n\n    // Should https://github.com/OpenZeppelin/zeppelin-solidity/issues/707 be accepted,\n    // this function needs to emit an event with the updated approval.\n    _allowed[account][msg.sender] = _allowed[account][msg.sender]-amount;\n    _burn(account, amount);\n  }\n\n\n  // function handles the refund of the ticket price if flight is cancelled\n  function paymentHandlerCancelled(address cust, uint price) public isOwner() returns (uint, uint) {\n    require(cust != address(0));\n    transfer(cust, price);\n\n    emit PaymentRefunded(msg.sender, cust, price);\n\n    return (balanceOf(msg.sender), balanceOf(cust));\n  }\n\n\n  // handle refund if delayed\n  function paymentHandlerDelayed(address cust, uint dist) public isOwner() returns (uint, uint) {\n\n    require(cust != address(0));\n    uint amount;\n\n    if(dist < 1500) {\n      amount = 250;\n      transfer(cust, 250);\n    }\n    if(dist >= 1500 && dist <=3500) {\n      amount = 400;\n      transfer(cust, 400);\n    }\n    else {\n      amount = 600;\n      transfer(cust, 600);\n    }\n\n    emit DelayRefunded(msg.sender, cust, amount);\n\n    return (balanceOf(msg.sender), balanceOf(cust));\n  }\n\n\n  // insert new payments \n  function insertPayment(uint _amount, address addr, uint timestamp) public {\n    Payments memory _bufToInsert = Payments(_amount, msg.sender, addr, timestamp);\n    paymentsDone[msg.sender].push(_bufToInsert);\n    paymentsDone[addr].push(_bufToInsert);\n\n    emit NewPaymentInsert(_amount, msg.sender, addr, timestamp);\n  }\n\n\n  // search for payments and return max.10 ( amount[], _sender[], recipient[], timestamp[])\n  function searchPayments() public view returns (uint[] memory, address[] memory, address[] memory, uint[] memory)\n  {\n    Payments[] memory bufPayments = paymentsDone[msg.sender];\n    uint len = bufPayments.length;\n       \n    // return arrays\n    uint[] memory retAmount;\n    address[] memory retSender;\n    address[] memory retRecipient;\n    uint[] memory retTimestamp;\n\n    // parse through all bufPayments and insert into return arrays\n    for(uint ind = 0; ind < len; ind++) {\n      if(bufPayments[ind]._sender == msg.sender) {\n        retAmount[ind] = bufPayments[ind].amount;\n        retSender[ind] = msg.sender;\n        retRecipient[ind] = bufPayments[ind]._recipient;\n        retTimestamp[ind] = bufPayments[ind].timestamp;\n      } else if(bufPayments[ind]._recipient == msg.sender) {\n        retAmount[ind] = bufPayments[ind].amount;\n        retSender[ind] = bufPayments[ind]._sender;\n        retRecipient[ind] = msg.sender;\n        retTimestamp[ind] = bufPayments[ind].timestamp;\n      }\n    }\n    \n    return (retAmount, retSender, retRecipient, retTimestamp);\n  }\n\n\n  modifier isOwner() {\n    require (msg.sender == contractOwner);\n    _;\n  }\n\n  event PaymentRefunded(address from, address to, uint amount);\n  event DelayRefunded(address from, address to, uint amount);\n  event NewPaymentInsert(uint amount, address from, address to, uint timestamp);\n}\n",
  "sourcePath": "/home/dubka/Documents/BachelorThesis/bin/smart_contracts/contracts/FlyTokenContract.sol",
  "compiler": {
    "name": "solc",
    "version": "0.6.7+commit.b8d736ae.Emscripten.clang"
  },
  "schemaVersion": "3.0.23",
  "updatedAt": "2020-11-19T20:27:41.118Z",
  "devdoc": {
    "details": "Implementation of the basic standard token. https://github.com/ethereum/EIPs/blob/master/EIPS/eip-20.md Originally based on code by FirstBlood: https://github.com/Firstbloodio/token/blob/master/smart_contract/FirstBloodToken.sol",
    "methods": {
      "_burn(address,uint256)": {
        "details": "Internal function that burns an amount of the token of a given account.",
        "params": {
          "account": "The account whose tokens will be burnt.",
          "amount": "The amount that will be burnt."
        }
      },
      "_mint(address,uint256)": {
        "details": "Internal function that mints an amount of the token and assigns it to an account. This encapsulates the modification of balances such that the proper events are emitted.",
        "params": {
          "account": "The account that will receive the created tokens.",
          "amount": "The amount that will be created."
        }
      },
      "allowance(address,address)": {
        "details": "Function to check the amount of tokens that an owner allowed to a spender.",
        "params": {
          "owner": "address The address which owns the funds.",
          "spender": "address The address which will spend the funds."
        },
        "returns": {
          "_0": "A uint256 specifying the amount of tokens still available for the spender."
        }
      },
      "approve(address,uint256)": {
        "details": "Approve the passed address to spend the specified amount of tokens on behalf of msg.sender. Beware that changing an allowance with this method brings the risk that someone may use both the old and the new allowance by unfortunate transaction ordering. One possible solution to mitigate this race condition is to first reduce the spender's allowance to 0 and set the desired value afterwards: https://github.com/ethereum/EIPs/issues/20#issuecomment-263524729",
        "params": {
          "spender": "The address which will spend the funds.",
          "value": "The amount of tokens to be spent."
        }
      },
      "balanceOf(address)": {
        "details": "Gets the balance of the specified address.",
        "params": {
          "owner": "The address to query the balance of."
        },
        "returns": {
          "_0": "An uint256 representing the amount owned by the passed address."
        }
      },
      "decreaseAllowance(address,uint256)": {
        "details": "Decrease the amount of tokens that an owner allowed to a spender. approve should be called when allowed_[_spender] == 0. To decrement allowed value is better to use this function to avoid 2 calls (and wait until the first transaction is mined) From MonolithDAO Token.sol",
        "params": {
          "spender": "The address which will spend the funds.",
          "subtractedValue": "The amount of tokens to decrease the allowance by."
        }
      },
      "increaseAllowance(address,uint256)": {
        "details": "Increase the amount of tokens that an owner allowed to a spender. approve should be called when allowed_[_spender] == 0. To increment allowed value is better to use this function to avoid 2 calls (and wait until the first transaction is mined) From MonolithDAO Token.sol",
        "params": {
          "addedValue": "The amount of tokens to increase the allowance by.",
          "spender": "The address which will spend the funds."
        }
      },
      "totalSupply()": {
        "details": "Total number of tokens in existence"
      },
      "transfer(address,uint256)": {
        "details": "Transfer token for a specified address",
        "params": {
          "to": "The address to transfer to.",
          "value": "The amount to be transferred."
        }
      },
      "transferFrom(address,address,uint256)": {
        "details": "Transfer tokens from one address to another",
        "params": {
          "from": "address The address which you want to send tokens from",
          "to": "address The address which you want to transfer to",
          "value": "uint256 the amount of tokens to be transferred"
        }
      }
    },
    "title": "Standard ERC20 token"
  },
  "userdoc": {
    "methods": {}
  }
}