{
  "contractName": "InvContract",
  "abi": [
    {
      "inputs": [],
      "stateMutability": "nonpayable",
      "type": "constructor"
    },
    {
      "inputs": [],
      "name": "owner",
      "outputs": [
        {
          "internalType": "address",
          "name": "",
          "type": "address"
        }
      ],
      "stateMutability": "view",
      "type": "function"
    },
    {
      "inputs": [
        {
          "internalType": "string",
          "name": "cid",
          "type": "string"
        },
        {
          "internalType": "string",
          "name": "flightNumber",
          "type": "string"
        },
        {
          "internalType": "uint256",
          "name": "month",
          "type": "uint256"
        },
        {
          "internalType": "uint256",
          "name": "day",
          "type": "uint256"
        },
        {
          "internalType": "uint256",
          "name": "seats",
          "type": "uint256"
        }
      ],
      "name": "createInventory",
      "outputs": [],
      "stateMutability": "nonpayable",
      "type": "function"
    },
    {
      "inputs": [
        {
          "internalType": "string",
          "name": "flightNumber",
          "type": "string"
        },
        {
          "internalType": "uint256",
          "name": "month",
          "type": "uint256"
        },
        {
          "internalType": "uint256",
          "name": "day",
          "type": "uint256"
        }
      ],
      "name": "searchInventory",
      "outputs": [
        {
          "internalType": "uint256",
          "name": "",
          "type": "uint256"
        },
        {
          "internalType": "uint256",
          "name": "",
          "type": "uint256"
        },
        {
          "internalType": "string",
          "name": "",
          "type": "string"
        }
      ],
      "stateMutability": "view",
      "type": "function"
    },
    {
      "inputs": [
        {
          "internalType": "uint256",
          "name": "index",
          "type": "uint256"
        }
      ],
      "name": "flightBooked",
      "outputs": [
        {
          "internalType": "bool",
          "name": "",
          "type": "bool"
        }
      ],
      "stateMutability": "nonpayable",
      "type": "function"
    }
  ],
  "bytecode": "0x608060405234801561001057600080fd5b50336000806101000a81548173ffffffffffffffffffffffffffffffffffffffff021916908373ffffffffffffffffffffffffffffffffffffffff1602179055506109d5806100606000396000f3fe608060405234801561001057600080fd5b506004361061004c5760003560e01c80638441b3b3146100515780638da5cb5b1461006d578063b52f0afe1461008b578063efa73349146100bb575b600080fd5b61006b60048036038101906100669190610614565b6100ed565b005b6100756101d2565b60405161008291906107f9565b60405180910390f35b6100a560048036038101906100a09190610722565b6101f7565b6040516100b29190610814565b60405180910390f35b6100d560048036038101906100d091906106bb565b61025e565b6040516100e49392919061082f565b60405180910390f35b600160405180608001604052808681526020018581526020018481526020018381525090806001815401808255809150506001900390600052602060002090600402016000909190919091506000820151816000019080519060200190610155929190610506565b5060208201518160010155604082015181600201556060820151816003015550508460028560405161018791906107e2565b90815260200160405180910390206000858152602001908152602001600020600084815260200190815260200160002090805190602001906101ca929190610506565b505050505050565b6000809054906101000a900473ffffffffffffffffffffffffffffffffffffffff1681565b6000806001838154811061020757fe5b906000526020600020906004020160030154111561025457600180838154811061022d57fe5b90600052602060002090600402016003016000828254039250508190555060019050610259565b600090505b919050565b600080606060008090505b6001805490508110156104a2576103366001828154811061028657fe5b90600052602060002090600402016000018054600181600116156101000203166002900480601f01602080910402602001604051908101604052809291908181526020018280546001816001161561010002031660029004801561032b5780601f106103005761010080835404028352916020019161032b565b820191906000526020600020905b81548152906001019060200180831161030e57829003601f168201915b5050505050886104ad565b801561035f5750856001828154811061034b57fe5b906000526020600020906004020160010154145b80156103885750846001828154811061037457fe5b906000526020600020906004020160020154145b15610495576001818154811061039a57fe5b906000526020600020906004020160030154816002896040516103bd91906107e2565b908152602001604051809103902060008981526020019081526020016000206000888152602001908152602001600020808054600181600116156101000203166002900480601f0160208091040260200160405190810160405280929190818152602001828054600181600116156101000203166002900480156104825780601f1061045757610100808354040283529160200191610482565b820191906000526020600020905b81548152906001019060200180831161046557829003601f168201915b50505050509050935093509350506104a4565b8080600101915050610269565b505b93509350939050565b6000816040516020016104c091906107e2565b60405160208183030381529060405280519060200120836040516020016104e791906107e2565b6040516020818303038152906040528051906020012014905092915050565b828054600181600116156101000203166002900490600052602060002090601f016020900481019282601f1061054757805160ff1916838001178555610575565b82800160010185558215610575579182015b82811115610574578251825591602001919060010190610559565b5b5090506105829190610586565b5090565b6105a891905b808211156105a457600081600090555060010161058c565b5090565b90565b600082601f8301126105bc57600080fd5b81356105cf6105ca8261089a565b61086d565b915080825260208301602083018583830111156105eb57600080fd5b6105f6838284610935565b50505092915050565b60008135905061060e81610988565b92915050565b600080600080600060a0868803121561062c57600080fd5b600086013567ffffffffffffffff81111561064657600080fd5b610652888289016105ab565b955050602086013567ffffffffffffffff81111561066f57600080fd5b61067b888289016105ab565b945050604061068c888289016105ff565b935050606061069d888289016105ff565b92505060806106ae888289016105ff565b9150509295509295909350565b6000806000606084860312156106d057600080fd5b600084013567ffffffffffffffff8111156106ea57600080fd5b6106f6868287016105ab565b9350506020610707868287016105ff565b9250506040610718868287016105ff565b9150509250925092565b60006020828403121561073457600080fd5b6000610742848285016105ff565b91505092915050565b610754816108ed565b82525050565b610763816108ff565b82525050565b6000610774826108c6565b61077e81856108d1565b935061078e818560208601610944565b61079781610977565b840191505092915050565b60006107ad826108c6565b6107b781856108e2565b93506107c7818560208601610944565b80840191505092915050565b6107dc8161092b565b82525050565b60006107ee82846107a2565b915081905092915050565b600060208201905061080e600083018461074b565b92915050565b6000602082019050610829600083018461075a565b92915050565b600060608201905061084460008301866107d3565b61085160208301856107d3565b81810360408301526108638184610769565b9050949350505050565b6000604051905081810181811067ffffffffffffffff8211171561089057600080fd5b8060405250919050565b600067ffffffffffffffff8211156108b157600080fd5b601f19601f8301169050602081019050919050565b600081519050919050565b600082825260208201905092915050565b600081905092915050565b60006108f88261090b565b9050919050565b60008115159050919050565b600073ffffffffffffffffffffffffffffffffffffffff82169050919050565b6000819050919050565b82818337600083830152505050565b60005b83811015610962578082015181840152602081019050610947565b83811115610971576000848401525b50505050565b6000601f19601f8301169050919050565b6109918161092b565b811461099c57600080fd5b5056fea26469706673582212201de46718c79912c104525eccc92f3c0667e2f7ee398267e2d7074fc34fe1e27a64736f6c63430006070033",
  "source": "    // SPDX-License-Identifier: MIT\n    pragma solidity >=0.6.7;\n    pragma experimental ABIEncoderV2;\n\n     /**\n    * @author Deniz Durak\n    */\n   \n/**\n*   this contracts only administrates the capacity for each flight. \n*   before a flight is bookable, the inventory has to be created\n */\n\n    contract InvContract {\n        \n        address public owner;\n        Inventory[] inv;\n\n        // string points to date and this to the cid\n        mapping(string => mapping(uint => mapping( uint => string))) invedFlights;\n\n\n        constructor() public {\n            owner = msg.sender;\n        }\n\n        /**\n        * this is the struct for the inventory\n         */\n        struct Inventory {\n            string flightNumber;\n            uint month;\n            uint day;\n            uint seats;\n        }\n\n\n        // create new inventory\n        function createInventory\n        (\n            string memory cid,\n            string memory flightNumber,\n            uint month,\n            uint day,\n            uint seats\n        )\n        public\n        {\n            inv.push(Inventory(flightNumber, month, day, seats));\n            invedFlights[flightNumber][month][day] = cid;\n        }\n\n\n        // search for inventory and return count of seats available\n        function searchInventory\n        (\n            string memory flightNumber,\n            uint month,\n            uint day\n        )\n        public\n        view\n        // (seats, array index)\n        returns(uint, uint, string memory)\n        {\n            uint indArray = 0;\n\n            for(; indArray<inv.length; indArray++) {\n                if(compareStrings(inv[indArray].flightNumber, flightNumber) && inv[indArray].month == month && inv[indArray].day == day) {\n                    return (inv[indArray].seats, indArray, invedFlights[flightNumber][month][day]);\n                }\n            }\n        }\n\n\n        // flight has been booked - seats minus 1\n        function flightBooked\n        (\n            uint index\n        )\n        public\n        returns (bool)\n        {\n            if(inv[index].seats > 0){\n                inv[index].seats -= 1;\n                return true;\n            }\n            else return false;\n        }\n\n\n\n        /**\n        * @dev compares cmp1 & cmp2\n        */\n\n        function compareStrings\n        (\n            string memory cmp1,\n            string memory cmp2\n        )\n        private\n        pure\n        returns(bool)\n        {\n            return (keccak256(abi.encodePacked((cmp1))) == keccak256(abi.encodePacked((cmp2))));\n        }\n\n    }",
  "sourcePath": "/home/dubka/Documents/BachelorThesis/bin/smart_contracts/contracts/InventContract.sol",
  "compiler": {
    "name": "solc",
    "version": "0.6.7+commit.b8d736ae.Emscripten.clang"
  },
  "schemaVersion": "3.0.23",
  "updatedAt": "2020-11-06T20:42:26.625Z",
  "devdoc": {
    "methods": {}
  },
  "userdoc": {
    "methods": {},
    "notice": "this contracts only administrates the capacity for each flight.   before a flight is bookable, the inventory has to be created"
  }
}