{
  "contractName": "Inventar",
  "abi": [
    {
      "inputs": [],
      "stateMutability": "nonpayable",
      "type": "constructor"
    },
    {
      "anonymous": false,
      "inputs": [
        {
          "indexed": false,
          "internalType": "string",
          "name": "flightNumber",
          "type": "string"
        },
        {
          "indexed": false,
          "internalType": "uint256",
          "name": "month",
          "type": "uint256"
        },
        {
          "indexed": false,
          "internalType": "uint256",
          "name": "day",
          "type": "uint256"
        }
      ],
      "name": "FlightBooked",
      "type": "event"
    },
    {
      "anonymous": false,
      "inputs": [
        {
          "indexed": false,
          "internalType": "string",
          "name": "flightNumber",
          "type": "string"
        },
        {
          "indexed": false,
          "internalType": "uint256",
          "name": "month",
          "type": "uint256"
        },
        {
          "indexed": false,
          "internalType": "uint256",
          "name": "day",
          "type": "uint256"
        }
      ],
      "name": "InventoryCreated",
      "type": "event"
    },
    {
      "inputs": [],
      "name": "owner",
      "outputs": [
        {
          "internalType": "address",
          "name": "",
          "type": "address"
        }
      ],
      "stateMutability": "view",
      "type": "function",
      "constant": true
    },
    {
      "inputs": [
        {
          "internalType": "string",
          "name": "cid",
          "type": "string"
        },
        {
          "internalType": "string",
          "name": "flightNumber",
          "type": "string"
        },
        {
          "internalType": "uint256",
          "name": "month",
          "type": "uint256"
        },
        {
          "internalType": "uint256",
          "name": "day",
          "type": "uint256"
        },
        {
          "internalType": "uint256",
          "name": "seats",
          "type": "uint256"
        }
      ],
      "name": "createInventory",
      "outputs": [],
      "stateMutability": "nonpayable",
      "type": "function"
    },
    {
      "inputs": [
        {
          "internalType": "string",
          "name": "flightNumber",
          "type": "string"
        },
        {
          "internalType": "uint256",
          "name": "month",
          "type": "uint256"
        },
        {
          "internalType": "uint256",
          "name": "day",
          "type": "uint256"
        }
      ],
      "name": "searchInventory",
      "outputs": [
        {
          "internalType": "uint256",
          "name": "",
          "type": "uint256"
        },
        {
          "internalType": "uint256",
          "name": "",
          "type": "uint256"
        },
        {
          "internalType": "string",
          "name": "",
          "type": "string"
        }
      ],
      "stateMutability": "view",
      "type": "function",
      "constant": true
    },
    {
      "inputs": [],
      "name": "searchFlights",
      "outputs": [
        {
          "components": [
            {
              "internalType": "string",
              "name": "cid",
              "type": "string"
            },
            {
              "internalType": "string",
              "name": "flightNumber",
              "type": "string"
            },
            {
              "internalType": "uint256",
              "name": "month",
              "type": "uint256"
            },
            {
              "internalType": "uint256",
              "name": "day",
              "type": "uint256"
            },
            {
              "internalType": "uint256",
              "name": "openSeats",
              "type": "uint256"
            },
            {
              "internalType": "uint256",
              "name": "bookedSeats",
              "type": "uint256"
            }
          ],
          "internalType": "struct Inventar.Inv[]",
          "name": "",
          "type": "tuple[]"
        }
      ],
      "stateMutability": "view",
      "type": "function",
      "constant": true
    },
    {
      "inputs": [
        {
          "internalType": "uint256",
          "name": "index",
          "type": "uint256"
        }
      ],
      "name": "flightBooked",
      "outputs": [
        {
          "internalType": "bool",
          "name": "",
          "type": "bool"
        }
      ],
      "stateMutability": "nonpayable",
      "type": "function"
    },
    {
      "inputs": [
        {
          "internalType": "string",
          "name": "flightNo",
          "type": "string"
        },
        {
          "internalType": "uint256",
          "name": "month",
          "type": "uint256"
        },
        {
          "internalType": "uint256",
          "name": "day",
          "type": "uint256"
        }
      ],
      "name": "flightTicketCancelled",
      "outputs": [],
      "stateMutability": "nonpayable",
      "type": "function"
    }
  ],
  "bytecode": "0x608060405234801561001057600080fd5b50336000806101000a81548173ffffffffffffffffffffffffffffffffffffffff021916908373ffffffffffffffffffffffffffffffffffffffff160217905550611254806100606000396000f3fe608060405234801561001057600080fd5b50600436106100625760003560e01c80635e621887146100675780638441b3b3146100855780638da5cb5b146100a1578063ac2e603f146100bf578063b52f0afe146100db578063efa733491461010b575b600080fd5b61006f61013d565b60405161007c9190610f96565b60405180910390f35b61009f600480360381019061009a9190610ba6565b610361565b005b6100a961050e565b6040516100b69190610f7b565b60405180910390f35b6100d960048036038101906100d49190610c4d565b610533565b005b6100f560048036038101906100f09190610cb4565b6106c9565b6040516101029190610fb8565b60405180910390f35b61012560048036038101906101209190610c4d565b6107f0565b6040516101349392919061104f565b60405180910390f35b60606000809054906101000a900473ffffffffffffffffffffffffffffffffffffffff1673ffffffffffffffffffffffffffffffffffffffff163373ffffffffffffffffffffffffffffffffffffffff161461019857600080fd5b6001805480602002602001604051908101604052809291908181526020016000905b8282101561035857838290600052602060002090600602016040518060c0016040529081600082018054600181600116156101000203166002900480601f0160208091040260200160405190810160405280929190818152602001828054600181600116156101000203166002900480156102765780601f1061024b57610100808354040283529160200191610276565b820191906000526020600020905b81548152906001019060200180831161025957829003601f168201915b50505050508152602001600182018054600181600116156101000203166002900480601f0160208091040260200160405190810160405280929190818152602001828054600181600116156101000203166002900480156103185780601f106102ed57610100808354040283529160200191610318565b820191906000526020600020905b8154815290600101906020018083116102fb57829003601f168201915b50505050508152602001600282015481526020016003820154815260200160048201548152602001600582015481525050815260200190600101906101ba565b50505050905090565b6000809054906101000a900473ffffffffffffffffffffffffffffffffffffffff1673ffffffffffffffffffffffffffffffffffffffff163373ffffffffffffffffffffffffffffffffffffffff16146103ba57600080fd5b60016040518060c0016040528087815260200186815260200185815260200184815260200183815260200160008152509080600181540180825580915050600190039060005260206000209060060201600090919091909150600082015181600001908051906020019061042f929190610a98565b50602082015181600101908051906020019061044c929190610a98565b5060408201518160020155606082015181600301556080820151816004015560a082015181600501555050846002856040516104889190610f64565b90815260200160405180910390206000858152602001908152602001600020600084815260200190815260200160002090805190602001906104cb929190610a98565b507fd1143855450f24fe995272d132c2274854d0082defaace8f005774cbb1c2ecd38484846040516104ff93929190610fd3565b60405180910390a15050505050565b6000809054906101000a900473ffffffffffffffffffffffffffffffffffffffff1681565b60008090505b6001805490508110156106c3576106066001828154811061055657fe5b90600052602060002090600602016001018054600181600116156101000203166002900480601f0160208091040260200160405190810160405280929190818152602001828054600181600116156101000203166002900480156105fb5780601f106105d0576101008083540402835291602001916105fb565b820191906000526020600020905b8154815290600101906020018083116105de57829003601f168201915b505050505085610a3f565b801561062f5750826001828154811061061b57fe5b906000526020600020906006020160020154145b80156106585750816001828154811061064457fe5b906000526020600020906006020160030154145b156106b657600180828154811061066b57fe5b906000526020600020906006020160040160008282540192505081905550600180828154811061069757fe5b9060005260206000209060060201600501600082825403925050819055505b8080600101915050610539565b50505050565b600080600183815481106106d957fe5b90600052602060002090600602016004015411156107e65760018083815481106106ff57fe5b906000526020600020906006020160040160008282540392505081905550600180838154811061072b57fe5b9060005260206000209060060201600501600082825401925050819055507f6f3068da632778391afd7aed43ee6cfc1ffb50069a92434b6ff6cf2c0db0d53b6001838154811061077757fe5b90600052602060002090600602016001016001848154811061079557fe5b906000526020600020906006020160020154600185815481106107b457fe5b9060005260206000209060060201600301546040516107d593929190611011565b60405180910390a1600190506107eb565b600090505b919050565b600080606060008090505b600180549050811015610a34576108c86001828154811061081857fe5b90600052602060002090600602016001018054600181600116156101000203166002900480601f0160208091040260200160405190810160405280929190818152602001828054600181600116156101000203166002900480156108bd5780601f10610892576101008083540402835291602001916108bd565b820191906000526020600020905b8154815290600101906020018083116108a057829003601f168201915b505050505088610a3f565b80156108f1575085600182815481106108dd57fe5b906000526020600020906006020160020154145b801561091a5750846001828154811061090657fe5b906000526020600020906006020160030154145b15610a27576001818154811061092c57fe5b9060005260206000209060060201600401548160028960405161094f9190610f64565b908152602001604051809103902060008981526020019081526020016000206000888152602001908152602001600020808054600181600116156101000203166002900480601f016020809104026020016040519081016040528092919081815260200182805460018160011615610100020316600290048015610a145780601f106109e957610100808354040283529160200191610a14565b820191906000526020600020905b8154815290600101906020018083116109f757829003601f168201915b5050505050905093509350935050610a36565b80806001019150506107fb565b505b93509350939050565b600081604051602001610a529190610f64565b6040516020818303038152906040528051906020012083604051602001610a799190610f64565b6040516020818303038152906040528051906020012014905092915050565b828054600181600116156101000203166002900490600052602060002090601f016020900481019282601f10610ad957805160ff1916838001178555610b07565b82800160010185558215610b07579182015b82811115610b06578251825591602001919060010190610aeb565b5b509050610b149190610b18565b5090565b610b3a91905b80821115610b36576000816000905550600101610b1e565b5090565b90565b600082601f830112610b4e57600080fd5b8135610b61610b5c826110ba565b61108d565b91508082526020830160208301858383011115610b7d57600080fd5b610b888382846111b4565b50505092915050565b600081359050610ba081611207565b92915050565b600080600080600060a08688031215610bbe57600080fd5b600086013567ffffffffffffffff811115610bd857600080fd5b610be488828901610b3d565b955050602086013567ffffffffffffffff811115610c0157600080fd5b610c0d88828901610b3d565b9450506040610c1e88828901610b91565b9350506060610c2f88828901610b91565b9250506080610c4088828901610b91565b9150509295509295909350565b600080600060608486031215610c6257600080fd5b600084013567ffffffffffffffff811115610c7c57600080fd5b610c8886828701610b3d565b9350506020610c9986828701610b91565b9250506040610caa86828701610b91565b9150509250925092565b600060208284031215610cc657600080fd5b6000610cd484828501610b91565b91505092915050565b6000610ce98383610eb6565b905092915050565b610cfa8161116c565b82525050565b6000610d0b8261110b565b610d15818561112e565b935083602082028501610d27856110e6565b8060005b85811015610d635784840389528151610d448582610cdd565b9450610d4f83611121565b925060208a01995050600181019050610d2b565b50829750879550505050505092915050565b610d7e8161117e565b82525050565b6000610d8f82611116565b610d99818561113f565b9350610da98185602086016111c3565b610db2816111f6565b840191505092915050565b6000610dc882611116565b610dd28185611150565b9350610de28185602086016111c3565b610deb816111f6565b840191505092915050565b6000610e0182611116565b610e0b8185611161565b9350610e1b8185602086016111c3565b80840191505092915050565b600081546001811660008114610e445760018114610e6a57610eae565b607f6002830416610e558187611150565b955060ff198316865260208601935050610eae565b60028204610e788187611150565b9550610e83856110f6565b60005b82811015610ea557815481890152600182019150602081019050610e86565b80880195505050505b505092915050565b600060c0830160008301518482036000860152610ed38282610d84565b91505060208301518482036020860152610eed8282610d84565b9150506040830151610f026040860182610f46565b506060830151610f156060860182610f46565b506080830151610f286080860182610f46565b5060a0830151610f3b60a0860182610f46565b508091505092915050565b610f4f816111aa565b82525050565b610f5e816111aa565b82525050565b6000610f708284610df6565b915081905092915050565b6000602082019050610f906000830184610cf1565b92915050565b60006020820190508181036000830152610fb08184610d00565b905092915050565b6000602082019050610fcd6000830184610d75565b92915050565b60006060820190508181036000830152610fed8186610dbd565b9050610ffc6020830185610f55565b6110096040830184610f55565b949350505050565b6000606082019050818103600083015261102b8186610e27565b905061103a6020830185610f55565b6110476040830184610f55565b949350505050565b60006060820190506110646000830186610f55565b6110716020830185610f55565b81810360408301526110838184610dbd565b9050949350505050565b6000604051905081810181811067ffffffffffffffff821117156110b057600080fd5b8060405250919050565b600067ffffffffffffffff8211156110d157600080fd5b601f19601f8301169050602081019050919050565b6000819050602082019050919050565b60008190508160005260206000209050919050565b600081519050919050565b600081519050919050565b6000602082019050919050565b600082825260208201905092915050565b600082825260208201905092915050565b600082825260208201905092915050565b600081905092915050565b60006111778261118a565b9050919050565b60008115159050919050565b600073ffffffffffffffffffffffffffffffffffffffff82169050919050565b6000819050919050565b82818337600083830152505050565b60005b838110156111e15780820151818401526020810190506111c6565b838111156111f0576000848401525b50505050565b6000601f19601f8301169050919050565b611210816111aa565b811461121b57600080fd5b5056fea2646970667358221220953ec1388118aef9681f5ff5a17dea365d3d988c7772f961baf0bc8cb090cfef64736f6c63430006070033",
  "source": "    // SPDX-License-Identifier: MIT\n    pragma solidity >=0.6.7;\n    pragma experimental ABIEncoderV2;\n\n     /**\n    * @author Deniz Durak\n    */\n   \n/**\n*   this contracts only administrates the capacity for each flight. \n*   before a flight is bookable, the inventory has to be created\n */\n\n    contract Inventar {\n        \n        address public owner;\n        Inv[] inv;\n\n        // string points to date and this to the cid\n        mapping(string => mapping(uint => mapping( uint => string))) invedFlights;\n\n\n        constructor() public {\n            owner = msg.sender;\n        }\n\n        /**\n        * this is the struct for the inventory\n         */\n        struct Inv {\n            string cid;\n            string flightNumber;\n            uint month;\n            uint day;\n            uint openSeats;\n            uint bookedSeats;\n        }\n\n\n        // create new inventory\n        function createInventory\n        (\n            string memory cid,\n            string memory flightNumber,\n            uint month,\n            uint day,\n            uint seats\n        )\n        public\n        isAirline()\n        {\n            inv.push(Inv(cid, flightNumber, month, day, seats, 0));\n            invedFlights[flightNumber][month][day] = cid;\n            emit InventoryCreated(flightNumber, month, day);\n        }\n\n\n        // search for inventory and return count of seats available\n        function searchInventory\n        (\n            string memory flightNumber,\n            uint month,\n            uint day\n        )\n        public\n        view\n        // (seats, array index)\n        returns(uint, uint, string memory)\n        {\n            for(uint indArray = 0; indArray<inv.length; indArray++) {\n                if(compareStrings(inv[indArray].flightNumber, flightNumber) && inv[indArray].month == month && inv[indArray].day == day) {\n                    return (inv[indArray].openSeats, indArray, invedFlights[flightNumber][month][day]);\n                }\n            }\n        }\n\n\n        // only access for contract owner (the airline) - get all inventorized flights\n        function searchFlights() public view isAirline() \n            returns(Inv[] memory) {\n\n            return (inv);\n        }\n\n\n        // flight has been booked - seats minus 1\n        function flightBooked\n        (\n            uint index\n        )\n        public\n        returns (bool)\n        {\n            if(inv[index].openSeats > 0){\n                inv[index].openSeats -= 1;\n                inv[index].bookedSeats += 1;\n                emit FlightBooked(inv[index].flightNumber, inv[index].month, inv[index].day);\n                return true;\n            }\n            else return false;\n        }\n\n        function flightTicketCancelled (string memory flightNo, uint month, uint day) public \n        {\n            for(uint ind = 0; ind<inv.length; ind++)\n            {\n                if(compareStrings(inv[ind].flightNumber, flightNo) && \n                    inv[ind].month == month &&  \n                    inv[ind].day == day) \n                {\n                    inv[ind].openSeats += 1;\n                    inv[ind].bookedSeats -= 1;\n                }\n            }\n        }\n\n\n        /**\n        * @dev concat all cids with underline between each one\n         */\n        function concatStrings\n        (\n            string[] memory cids\n        )\n        private\n        pure\n        returns(string memory)\n        {\n            uint length = cids.length;\n            uint strLength = 0;\n\n            if(length == 1) { return(cids[0]); }\n            \n            else {\n\n                string memory differ = \"_\";\n                bytes memory bDiffer = bytes(differ);\n                // get count of bytes\n                for(uint ind = 0; ind < length; ind++) \n                {\n                    bytes memory buf = bytes(cids[ind]);\n                    strLength += buf.length;\n                    if(ind < (length-1)) \n                    {\n                        strLength += bDiffer.length;\n                    }\n                }\n                \n                string memory bufStr = new string(strLength);\n                bytes memory concatBytes = bytes(bufStr);\n\n                uint indK = 0;\n                for(uint ind = 0; ind < cids.length; ind++)\n                {\n                    bytes memory tt = bytes(cids[ind]);\n                    for(uint indJ = 0; indJ<tt.length; indJ++) \n                    {\n                        concatBytes[indK++] = tt[indJ];\n                    }\n\n                    if(ind < (length-1)) \n                    {\n                        for(uint indDiffer = 0; indDiffer < bDiffer.length; indDiffer++)\n                        {\n                            concatBytes[indK++] = bDiffer[indDiffer];\n                        }\n                    }\n                }\n                \n                return(string(concatBytes));\n            }\n        }\n\n        /**\n        * @dev compares cmp1 & cmp2\n        */\n        function compareStrings\n        (\n            string memory cmp1,\n            string memory cmp2\n        )\n        private\n        pure\n        returns(bool)\n        {\n            return (keccak256(abi.encodePacked((cmp1))) == keccak256(abi.encodePacked((cmp2))));\n        }\n\n\n        // modifier access only for owner\n        modifier isAirline() {\n            require (msg.sender == owner);\n            _;\n        }\n\n        event FlightBooked(string flightNumber, uint month, uint day);\n        event InventoryCreated(string flightNumber, uint month, uint day);\n    }",
  "sourcePath": "/home/dubka/Documents/BachelorThesis/bin/smart_contracts/contracts/Inventar.sol",
  "compiler": {
    "name": "solc",
    "version": "0.6.7+commit.b8d736ae.Emscripten.clang"
  },
  "schemaVersion": "3.0.23",
  "updatedAt": "2020-11-22T21:21:39.271Z",
  "networkType": "ethereum",
  "devdoc": {
    "methods": {}
  },
  "userdoc": {
    "methods": {},
    "notice": "this contracts only administrates the capacity for each flight.   before a flight is bookable, the inventory has to be created"
  }
}