{
  "contractName": "InventoryContract",
  "abi": [
    {
      "inputs": [],
      "stateMutability": "nonpayable",
      "type": "constructor"
    },
    {
      "anonymous": false,
      "inputs": [
        {
          "indexed": false,
          "internalType": "string",
          "name": "flightNumber",
          "type": "string"
        },
        {
          "indexed": false,
          "internalType": "uint256",
          "name": "month",
          "type": "uint256"
        },
        {
          "indexed": false,
          "internalType": "uint256",
          "name": "day",
          "type": "uint256"
        }
      ],
      "name": "FlightBooked",
      "type": "event"
    },
    {
      "anonymous": false,
      "inputs": [
        {
          "indexed": false,
          "internalType": "string",
          "name": "flightNumber",
          "type": "string"
        },
        {
          "indexed": false,
          "internalType": "uint256",
          "name": "month",
          "type": "uint256"
        },
        {
          "indexed": false,
          "internalType": "uint256",
          "name": "day",
          "type": "uint256"
        }
      ],
      "name": "InventoryCreated",
      "type": "event"
    },
    {
      "inputs": [],
      "name": "owner",
      "outputs": [
        {
          "internalType": "address",
          "name": "",
          "type": "address"
        }
      ],
      "stateMutability": "view",
      "type": "function"
    },
    {
      "inputs": [
        {
          "internalType": "string",
          "name": "cid",
          "type": "string"
        },
        {
          "internalType": "string",
          "name": "flightNumber",
          "type": "string"
        },
        {
          "internalType": "uint256",
          "name": "month",
          "type": "uint256"
        },
        {
          "internalType": "uint256",
          "name": "day",
          "type": "uint256"
        },
        {
          "internalType": "uint256",
          "name": "seats",
          "type": "uint256"
        }
      ],
      "name": "createInventory",
      "outputs": [],
      "stateMutability": "nonpayable",
      "type": "function"
    },
    {
      "inputs": [
        {
          "internalType": "string",
          "name": "flightNumber",
          "type": "string"
        },
        {
          "internalType": "uint256",
          "name": "month",
          "type": "uint256"
        },
        {
          "internalType": "uint256",
          "name": "day",
          "type": "uint256"
        }
      ],
      "name": "searchInventory",
      "outputs": [
        {
          "internalType": "uint256",
          "name": "",
          "type": "uint256"
        },
        {
          "internalType": "uint256",
          "name": "",
          "type": "uint256"
        },
        {
          "internalType": "string",
          "name": "",
          "type": "string"
        }
      ],
      "stateMutability": "view",
      "type": "function"
    },
    {
      "inputs": [
        {
          "internalType": "uint256",
          "name": "month",
          "type": "uint256"
        },
        {
          "internalType": "uint256",
          "name": "day",
          "type": "uint256"
        }
      ],
      "name": "searchFlights",
      "outputs": [
        {
          "internalType": "string",
          "name": "",
          "type": "string"
        }
      ],
      "stateMutability": "view",
      "type": "function"
    },
    {
      "inputs": [
        {
          "internalType": "uint256",
          "name": "index",
          "type": "uint256"
        }
      ],
      "name": "flightBooked",
      "outputs": [
        {
          "internalType": "bool",
          "name": "",
          "type": "bool"
        }
      ],
      "stateMutability": "nonpayable",
      "type": "function"
    },
    {
      "inputs": [
        {
          "internalType": "string",
          "name": "flightNo",
          "type": "string"
        },
        {
          "internalType": "uint256",
          "name": "month",
          "type": "uint256"
        },
        {
          "internalType": "uint256",
          "name": "day",
          "type": "uint256"
        }
      ],
      "name": "flightTicketCancelled",
      "outputs": [],
      "stateMutability": "nonpayable",
      "type": "function"
    }
  ],
  "bytecode": "0x608060405234801561001057600080fd5b50336000806101000a81548173ffffffffffffffffffffffffffffffffffffffff021916908373ffffffffffffffffffffffffffffffffffffffff16021790555061136e806100606000396000f3fe608060405234801561001057600080fd5b50600436106100625760003560e01c80638441b3b3146100675780638da5cb5b14610083578063ac2e603f146100a1578063b52f0afe146100bd578063eb60afd5146100ed578063efa733491461011d575b600080fd5b610081600480360381019061007c9190610e2f565b61014f565b005b61008b6102fc565b60405161009891906110df565b60405180910390f35b6100bb60048036038101906100b69190610ed6565b610321565b005b6100d760048036038101906100d29190610f3d565b6104b7565b6040516100e491906110fa565b60405180910390f35b61010760048036038101906101029190610f66565b6105de565b6040516101149190611115565b60405180910390f35b61013760048036038101906101329190610ed6565b610651565b604051610146939291906111b3565b60405180910390f35b6000809054906101000a900473ffffffffffffffffffffffffffffffffffffffff1673ffffffffffffffffffffffffffffffffffffffff163373ffffffffffffffffffffffffffffffffffffffff16146101a857600080fd5b60016040518060c0016040528087815260200186815260200185815260200184815260200183815260200160008152509080600181540180825580915050600190039060005260206000209060060201600090919091909150600082015181600001908051906020019061021d929190610d21565b50602082015181600101908051906020019061023a929190610d21565b5060408201518160020155606082015181600301556080820151816004015560a0820151816005015550508460028560405161027691906110c8565b90815260200160405180910390206000858152602001908152602001600020600084815260200190815260200160002090805190602001906102b9929190610d21565b507fd1143855450f24fe995272d132c2274854d0082defaace8f005774cbb1c2ecd38484846040516102ed93929190611137565b60405180910390a15050505050565b6000809054906101000a900473ffffffffffffffffffffffffffffffffffffffff1681565b60008090505b6001805490508110156104b1576103f46001828154811061034457fe5b90600052602060002090600602016001018054600181600116156101000203166002900480601f0160208091040260200160405190810160405280929190818152602001828054600181600116156101000203166002900480156103e95780601f106103be576101008083540402835291602001916103e9565b820191906000526020600020905b8154815290600101906020018083116103cc57829003601f168201915b5050505050856108a0565b801561041d5750826001828154811061040957fe5b906000526020600020906006020160020154145b80156104465750816001828154811061043257fe5b906000526020600020906006020160030154145b156104a457600180828154811061045957fe5b906000526020600020906006020160040160008282540192505081905550600180828154811061048557fe5b9060005260206000209060060201600501600082825403925050819055505b8080600101915050610327565b50505050565b600080600183815481106104c757fe5b90600052602060002090600602016004015411156105d45760018083815481106104ed57fe5b906000526020600020906006020160040160008282540392505081905550600180838154811061051957fe5b9060005260206000209060060201600501600082825401925050819055507f6f3068da632778391afd7aed43ee6cfc1ffb50069a92434b6ff6cf2c0db0d53b6001838154811061056557fe5b90600052602060002090600602016001016001848154811061058357fe5b906000526020600020906006020160020154600185815481106105a257fe5b9060005260206000209060060201600301546040516105c393929190611175565b60405180910390a1600190506105d9565b600090505b919050565b60606000809054906101000a900473ffffffffffffffffffffffffffffffffffffffff1673ffffffffffffffffffffffffffffffffffffffff163373ffffffffffffffffffffffffffffffffffffffff161461063957600080fd5b606061064584846108f9565b90508091505092915050565b600080606060008090505b600180549050811015610895576107296001828154811061067957fe5b90600052602060002090600602016001018054600181600116156101000203166002900480601f01602080910402602001604051908101604052809291908181526020018280546001816001161561010002031660029004801561071e5780601f106106f35761010080835404028352916020019161071e565b820191906000526020600020905b81548152906001019060200180831161070157829003601f168201915b5050505050886108a0565b80156107525750856001828154811061073e57fe5b906000526020600020906006020160020154145b801561077b5750846001828154811061076757fe5b906000526020600020906006020160030154145b15610888576001818154811061078d57fe5b906000526020600020906006020160040154816002896040516107b091906110c8565b908152602001604051809103902060008981526020019081526020016000206000888152602001908152602001600020808054600181600116156101000203166002900480601f0160208091040260200160405190810160405280929190818152602001828054600181600116156101000203166002900480156108755780601f1061084a57610100808354040283529160200191610875565b820191906000526020600020905b81548152906001019060200180831161085857829003601f168201915b5050505050905093509350935050610897565b808060010191505061065c565b505b93509350939050565b6000816040516020016108b391906110c8565b60405160208183030381529060405280519060200120836040516020016108da91906110c8565b6040516020818303038152906040528051906020012014905092915050565b6060600060018054905090506000809050600080905060606040518060400160405280600181526020017f5f000000000000000000000000000000000000000000000000000000000000008152509050606081905060008090505b85811015610a9357886001828154811061096a57fe5b9060005260206000209060060201600201541480156109a65750876001828154811061099257fe5b906000526020600020906006020160030154145b15610a86576060600182815481106109ba57fe5b90600052602060002090600602016000018054600181600116156101000203166002900480601f016020809104026020016040519081016040528092919081815260200182805460018160011615610100020316600290048015610a5f5780601f10610a3457610100808354040283529160200191610a5f565b820191906000526020600020905b815481529060010190602001808311610a4257829003601f168201915b5050505050905080518601955060018703821015610a7e578251860195505b846001019450505b8080600101915050610954565b5060608467ffffffffffffffff81118015610aad57600080fd5b506040519080825280601f01601f191660200182016040528015610ae05781602001600182028036833780820191505090505b5090506060819050600080905060008090505b600180549050811015610d0f578b60018281548110610b0e57fe5b906000526020600020906006020160020154148015610b4a57508a60018281548110610b3657fe5b906000526020600020906006020160030154145b15610d0257606060018281548110610b5e57fe5b90600052602060002090600602016000018054600181600116156101000203166002900480601f016020809104026020016040519081016040528092919081815260200182805460018160011615610100020316600290048015610c035780601f10610bd857610100808354040283529160200191610c03565b820191906000526020600020905b815481529060010190602001808311610be657829003601f168201915b5050505050905060008090505b8151811015610c7e57818181518110610c2557fe5b602001015160f81c60f81b858580600101965081518110610c4257fe5b60200101907effffffffffffffffffffffffffffffffffffffffffffffffffffffffffffff1916908160001a9053508080600101915050610c10565b5060018a03821015610d005760008090505b8651811015610cfe57868181518110610ca557fe5b602001015160f81c60f81b858580600101965081518110610cc257fe5b60200101907effffffffffffffffffffffffffffffffffffffffffffffffffffffffffffff1916908160001a9053508080600101915050610c90565b505b505b8080600101915050610af3565b50819850505050505050505092915050565b828054600181600116156101000203166002900490600052602060002090601f016020900481019282601f10610d6257805160ff1916838001178555610d90565b82800160010185558215610d90579182015b82811115610d8f578251825591602001919060010190610d74565b5b509050610d9d9190610da1565b5090565b610dc391905b80821115610dbf576000816000905550600101610da7565b5090565b90565b600082601f830112610dd757600080fd5b8135610dea610de58261121e565b6111f1565b91508082526020830160208301858383011115610e0657600080fd5b610e118382846112ce565b50505092915050565b600081359050610e2981611321565b92915050565b600080600080600060a08688031215610e4757600080fd5b600086013567ffffffffffffffff811115610e6157600080fd5b610e6d88828901610dc6565b955050602086013567ffffffffffffffff811115610e8a57600080fd5b610e9688828901610dc6565b9450506040610ea788828901610e1a565b9350506060610eb888828901610e1a565b9250506080610ec988828901610e1a565b9150509295509295909350565b600080600060608486031215610eeb57600080fd5b600084013567ffffffffffffffff811115610f0557600080fd5b610f1186828701610dc6565b9350506020610f2286828701610e1a565b9250506040610f3386828701610e1a565b9150509250925092565b600060208284031215610f4f57600080fd5b6000610f5d84828501610e1a565b91505092915050565b60008060408385031215610f7957600080fd5b6000610f8785828601610e1a565b9250506020610f9885828601610e1a565b9150509250929050565b610fab81611286565b82525050565b610fba81611298565b82525050565b6000610fcb8261125f565b610fd5818561126a565b9350610fe58185602086016112dd565b610fee81611310565b840191505092915050565b60006110048261125f565b61100e818561127b565b935061101e8185602086016112dd565b80840191505092915050565b600081546001811660008114611047576001811461106d576110b1565b607f6002830416611058818761126a565b955060ff1983168652602086019350506110b1565b6002820461107b818761126a565b95506110868561124a565b60005b828110156110a857815481890152600182019150602081019050611089565b80880195505050505b505092915050565b6110c2816112c4565b82525050565b60006110d48284610ff9565b915081905092915050565b60006020820190506110f46000830184610fa2565b92915050565b600060208201905061110f6000830184610fb1565b92915050565b6000602082019050818103600083015261112f8184610fc0565b905092915050565b600060608201905081810360008301526111518186610fc0565b905061116060208301856110b9565b61116d60408301846110b9565b949350505050565b6000606082019050818103600083015261118f818661102a565b905061119e60208301856110b9565b6111ab60408301846110b9565b949350505050565b60006060820190506111c860008301866110b9565b6111d560208301856110b9565b81810360408301526111e78184610fc0565b9050949350505050565b6000604051905081810181811067ffffffffffffffff8211171561121457600080fd5b8060405250919050565b600067ffffffffffffffff82111561123557600080fd5b601f19601f8301169050602081019050919050565b60008190508160005260206000209050919050565b600081519050919050565b600082825260208201905092915050565b600081905092915050565b6000611291826112a4565b9050919050565b60008115159050919050565b600073ffffffffffffffffffffffffffffffffffffffff82169050919050565b6000819050919050565b82818337600083830152505050565b60005b838110156112fb5780820151818401526020810190506112e0565b8381111561130a576000848401525b50505050565b6000601f19601f8301169050919050565b61132a816112c4565b811461133557600080fd5b5056fea264697066735822122046e3983c9e52043458ff3a572224544cf31dbf05c89077214536cff86789ad9f64736f6c63430006070033",
  "source": "    // SPDX-License-Identifier: MIT\n    pragma solidity >=0.6.7;\n    pragma experimental ABIEncoderV2;\n\n     /**\n    * @author Deniz Durak\n    */\n   \n/**\n*   this contracts only administrates the capacity for each flight. \n*   before a flight is bookable, the inventory has to be created\n */\n\n    contract InventoryContract {\n        \n        address public owner;\n        Inv[] inv;\n\n        // string points to date and this to the cid\n        mapping(string => mapping(uint => mapping( uint => string))) invedFlights;\n\n\n        constructor() public {\n            owner = msg.sender;\n        }\n\n        /**\n        * this is the struct for the inventory\n         */\n        struct Inv {\n            string cid;\n            string flightNumber;\n            uint month;\n            uint day;\n            uint openSeats;\n            uint bookedSeats;\n        }\n\n\n        // create new inventory\n        function createInventory\n        (\n            string memory cid,\n            string memory flightNumber,\n            uint month,\n            uint day,\n            uint seats\n        )\n        public\n        isAirline()\n        {\n            inv.push(Inv(cid, flightNumber, month, day, seats, 0));\n            invedFlights[flightNumber][month][day] = cid;\n            emit InventoryCreated(flightNumber, month, day);\n        }\n\n\n        // search for inventory and return count of seats available\n        function searchInventory\n        (\n            string memory flightNumber,\n            uint month,\n            uint day\n        )\n        public\n        view\n        // (seats, array index)\n        returns(uint, uint, string memory)\n        {\n            for(uint indArray = 0; indArray<inv.length; indArray++) {\n                if(compareStrings(inv[indArray].flightNumber, flightNumber) && inv[indArray].month == month && inv[indArray].day == day) {\n                    return (inv[indArray].openSeats, indArray, invedFlights[flightNumber][month][day]);\n                }\n            }\n        }\n\n\n        // only access for contract owner (the airline) - get all inventorized flights\n        function searchFlights(uint month, uint day) public view isAirline() \n            returns(string memory) {\n\n            string memory res = concatStrings(month, day);\n\n            return (res);\n        }\n\n\n        // flight has been booked - seats minus 1\n        function flightBooked\n        (\n            uint index\n        )\n        public\n        returns (bool)\n        {\n            if(inv[index].openSeats > 0){\n                inv[index].openSeats -= 1;\n                inv[index].bookedSeats += 1;\n                emit FlightBooked(inv[index].flightNumber, inv[index].month, inv[index].day);\n                return true;\n            }\n            else return false;\n        }\n\n        function flightTicketCancelled (string memory flightNo, uint month, uint day) public \n        {\n            for(uint ind = 0; ind<inv.length; ind++)\n            {\n                if(compareStrings(inv[ind].flightNumber, flightNo) && \n                    inv[ind].month == month &&  \n                    inv[ind].day == day) \n                {\n                    inv[ind].openSeats += 1;\n                    inv[ind].bookedSeats -= 1;\n                }\n            }\n        }\n\n\n        /**\n        * @dev concat all cids with underline between each one\n         */\n        function concatStrings\n        (\n            uint month, uint day\n        )\n        private\n        view\n        returns(string memory)\n        {\n            uint length = inv.length;\n            uint strLength = 0;\n            uint bufLength = 0;\n            string memory differ = \"_\";\n            bytes memory bDiffer = bytes(differ);\n\n            for(uint ind = 0; ind<length; ind++) {\n                \n                if(inv[ind].month == month && inv[ind].day == day) {\n                    bytes memory buf = bytes(inv[ind].cid);\n                    strLength += buf.length;\n                    if(ind < (length-1)) \n                    {\n                        strLength += bDiffer.length;\n                    }\n                    ++bufLength;\n                }\n            }\n            \n            string memory bufStr = new string(strLength);\n            bytes memory concatBytes = bytes(bufStr);\n\n            uint indK = 0;\n            for(uint ind = 0; ind < inv.length; ind++)\n            {\n                if(inv[ind].month == month && inv[ind].day == day) {\n                    bytes memory tt = bytes(inv[ind].cid);\n                    for(uint indJ = 0; indJ<tt.length; indJ++) \n                    {\n                        concatBytes[indK++] = tt[indJ];\n                    }\n\n                    if(ind < (length-1)) \n                    {\n                        for(uint indDiffer = 0; indDiffer < bDiffer.length; indDiffer++)\n                        {\n                            concatBytes[indK++] = bDiffer[indDiffer];\n                        }\n                    }\n                }\n            }\n                \n            return(string(concatBytes));\n        }\n\n        /**\n        * @dev compares cmp1 & cmp2\n        */\n        function compareStrings\n        (\n            string memory cmp1,\n            string memory cmp2\n        )\n        private\n        pure\n        returns(bool)\n        {\n            return (keccak256(abi.encodePacked((cmp1))) == keccak256(abi.encodePacked((cmp2))));\n        }\n\n\n        // modifier access only for owner\n        modifier isAirline() {\n            require (msg.sender == owner);\n            _;\n        }\n\n        event FlightBooked(string flightNumber, uint month, uint day);\n        event InventoryCreated(string flightNumber, uint month, uint day);\n    }",
  "sourcePath": "/home/dubka/Documents/BachelorThesis/bin/smart_contracts/contracts/InvHandler.sol",
  "compiler": {
    "name": "solc",
    "version": "0.6.7+commit.b8d736ae.Emscripten.clang"
  },
  "schemaVersion": "3.0.23",
  "updatedAt": "2020-11-24T08:19:01.622Z",
  "devdoc": {
    "methods": {}
  },
  "userdoc": {
    "methods": {},
    "notice": "this contracts only administrates the capacity for each flight.   before a flight is bookable, the inventory has to be created"
  }
}