{
  "contractName": "Inventory",
  "abi": [
    {
      "inputs": [],
      "stateMutability": "nonpayable",
      "type": "constructor"
    },
    {
      "anonymous": false,
      "inputs": [
        {
          "indexed": false,
          "internalType": "string",
          "name": "flightNumber",
          "type": "string"
        },
        {
          "indexed": false,
          "internalType": "uint256",
          "name": "month",
          "type": "uint256"
        },
        {
          "indexed": false,
          "internalType": "uint256",
          "name": "day",
          "type": "uint256"
        }
      ],
      "name": "FlightBooked",
      "type": "event"
    },
    {
      "anonymous": false,
      "inputs": [
        {
          "indexed": false,
          "internalType": "string",
          "name": "flightNumber",
          "type": "string"
        },
        {
          "indexed": false,
          "internalType": "uint256",
          "name": "month",
          "type": "uint256"
        },
        {
          "indexed": false,
          "internalType": "uint256",
          "name": "day",
          "type": "uint256"
        }
      ],
      "name": "InventoryCreated",
      "type": "event"
    },
    {
      "inputs": [],
      "name": "owner",
      "outputs": [
        {
          "internalType": "address",
          "name": "",
          "type": "address"
        }
      ],
      "stateMutability": "view",
      "type": "function",
      "constant": true
    },
    {
      "inputs": [
        {
          "internalType": "string",
          "name": "cid",
          "type": "string"
        },
        {
          "internalType": "string",
          "name": "flightNumber",
          "type": "string"
        },
        {
          "internalType": "uint256",
          "name": "month",
          "type": "uint256"
        },
        {
          "internalType": "uint256",
          "name": "day",
          "type": "uint256"
        },
        {
          "internalType": "uint256",
          "name": "seats",
          "type": "uint256"
        }
      ],
      "name": "createInventory",
      "outputs": [],
      "stateMutability": "nonpayable",
      "type": "function"
    },
    {
      "inputs": [
        {
          "internalType": "string",
          "name": "flightNumber",
          "type": "string"
        },
        {
          "internalType": "uint256",
          "name": "month",
          "type": "uint256"
        },
        {
          "internalType": "uint256",
          "name": "day",
          "type": "uint256"
        }
      ],
      "name": "searchInventory",
      "outputs": [
        {
          "internalType": "uint256",
          "name": "",
          "type": "uint256"
        },
        {
          "internalType": "uint256",
          "name": "",
          "type": "uint256"
        },
        {
          "internalType": "string",
          "name": "",
          "type": "string"
        }
      ],
      "stateMutability": "view",
      "type": "function",
      "constant": true
    },
    {
      "inputs": [],
      "name": "getAllFlights",
      "outputs": [
        {
          "internalType": "string[]",
          "name": "",
          "type": "string[]"
        },
        {
          "internalType": "string[]",
          "name": "",
          "type": "string[]"
        },
        {
          "internalType": "uint256[]",
          "name": "",
          "type": "uint256[]"
        },
        {
          "internalType": "uint256[]",
          "name": "",
          "type": "uint256[]"
        },
        {
          "internalType": "uint256[]",
          "name": "",
          "type": "uint256[]"
        },
        {
          "internalType": "uint256[]",
          "name": "",
          "type": "uint256[]"
        }
      ],
      "stateMutability": "view",
      "type": "function",
      "constant": true
    },
    {
      "inputs": [
        {
          "internalType": "uint256",
          "name": "index",
          "type": "uint256"
        }
      ],
      "name": "flightBooked",
      "outputs": [
        {
          "internalType": "bool",
          "name": "",
          "type": "bool"
        }
      ],
      "stateMutability": "nonpayable",
      "type": "function"
    },
    {
      "inputs": [
        {
          "internalType": "string",
          "name": "flightNo",
          "type": "string"
        },
        {
          "internalType": "uint256",
          "name": "month",
          "type": "uint256"
        },
        {
          "internalType": "uint256",
          "name": "day",
          "type": "uint256"
        }
      ],
      "name": "flightTicketCancelled",
      "outputs": [],
      "stateMutability": "nonpayable",
      "type": "function"
    }
  ],
  "bytecode": "0x608060405234801561001057600080fd5b50336000806101000a81548173ffffffffffffffffffffffffffffffffffffffff021916908373ffffffffffffffffffffffffffffffffffffffff160217905550611551806100606000396000f3fe608060405234801561001057600080fd5b50600436106100625760003560e01c80634c67cc3b146100675780638441b3b31461008a5780638da5cb5b146100a6578063ac2e603f146100c4578063b52f0afe146100e0578063efa7334914610110575b600080fd5b61006f610142565b604051610081969594939291906111f1565b60405180910390f35b6100a4600480360381019061009f9190610e1b565b61062f565b005b6100ae610783565b6040516100bb91906111d6565b60405180910390f35b6100de60048036038101906100d99190610ec2565b6107a8565b005b6100fa60048036038101906100f59190610f29565b61093e565b604051610107919061127c565b60405180910390f35b61012a60048036038101906101259190610ec2565b610a65565b60405161013993929190611313565b60405180910390f35b6060806060806060806000809054906101000a900473ffffffffffffffffffffffffffffffffffffffff1673ffffffffffffffffffffffffffffffffffffffff163373ffffffffffffffffffffffffffffffffffffffff16146101a457600080fd5b6000600180549050905060608167ffffffffffffffff811180156101c757600080fd5b506040519080825280602002602001820160405280156101fb57816020015b60608152602001906001900390816101e65790505b50905060608267ffffffffffffffff8111801561021757600080fd5b5060405190808252806020026020018201604052801561024b57816020015b60608152602001906001900390816102365790505b50905060608367ffffffffffffffff8111801561026757600080fd5b506040519080825280602002602001820160405280156102965781602001602082028036833780820191505090505b50905060608467ffffffffffffffff811180156102b257600080fd5b506040519080825280602002602001820160405280156102e15781602001602082028036833780820191505090505b50905060608567ffffffffffffffff811180156102fd57600080fd5b5060405190808252806020026020018201604052801561032c5781602001602082028036833780820191505090505b50905060608667ffffffffffffffff8111801561034857600080fd5b506040519080825280602002602001820160405280156103775781602001602082028036833780820191505090505b50905060008090505b8781101561060d576001818154811061039557fe5b90600052602060002090600602016000018054600181600116156101000203166002900480601f01602080910402602001604051908101604052809291908181526020018280546001816001161561010002031660029004801561043a5780601f1061040f5761010080835404028352916020019161043a565b820191906000526020600020905b81548152906001019060200180831161041d57829003601f168201915b505050505087828151811061044b57fe5b60200260200101819052506001818154811061046357fe5b90600052602060002090600602016001018054600181600116156101000203166002900480601f0160208091040260200160405190810160405280929190818152602001828054600181600116156101000203166002900480156105085780601f106104dd57610100808354040283529160200191610508565b820191906000526020600020905b8154815290600101906020018083116104eb57829003601f168201915b505050505086828151811061051957fe5b60200260200101819052506001818154811061053157fe5b90600052602060002090600602016002015485828151811061054f57fe5b6020026020010181815250506001818154811061056857fe5b90600052602060002090600602016003015484828151811061058657fe5b6020026020010181815250506001818154811061059f57fe5b9060005260206000209060060201600401548382815181106105bd57fe5b602002602001018181525050600181815481106105d657fe5b9060005260206000209060060201600501548282815181106105f457fe5b6020026020010181815250508080600101915050610380565b508585858585859c509c509c509c509c509c5050505050505050909192939495565b60016040518060c001604052808781526020018681526020018581526020018481526020018381526020016000815250908060018154018082558091505060019003906000526020600020906006020160009091909190915060008201518160000190805190602001906106a4929190610d0d565b5060208201518160010190805190602001906106c1929190610d0d565b5060408201518160020155606082015181600301556080820151816004015560a082015181600501555050846002856040516106fd91906111bf565b9081526020016040518091039020600085815260200190815260200160002060008481526020019081526020016000209080519060200190610740929190610d0d565b507fd1143855450f24fe995272d132c2274854d0082defaace8f005774cbb1c2ecd384848460405161077493929190611297565b60405180910390a15050505050565b6000809054906101000a900473ffffffffffffffffffffffffffffffffffffffff1681565b60008090505b6001805490508110156109385761087b600182815481106107cb57fe5b90600052602060002090600602016001018054600181600116156101000203166002900480601f0160208091040260200160405190810160405280929190818152602001828054600181600116156101000203166002900480156108705780601f1061084557610100808354040283529160200191610870565b820191906000526020600020905b81548152906001019060200180831161085357829003601f168201915b505050505085610cb4565b80156108a45750826001828154811061089057fe5b906000526020600020906006020160020154145b80156108cd575081600182815481106108b957fe5b906000526020600020906006020160030154145b1561092b5760018082815481106108e057fe5b906000526020600020906006020160040160008282540192505081905550600180828154811061090c57fe5b9060005260206000209060060201600501600082825403925050819055505b80806001019150506107ae565b50505050565b6000806001838154811061094e57fe5b9060005260206000209060060201600401541115610a5b57600180838154811061097457fe5b90600052602060002090600602016004016000828254039250508190555060018083815481106109a057fe5b9060005260206000209060060201600501600082825401925050819055507f6f3068da632778391afd7aed43ee6cfc1ffb50069a92434b6ff6cf2c0db0d53b600183815481106109ec57fe5b906000526020600020906006020160010160018481548110610a0a57fe5b90600052602060002090600602016002015460018581548110610a2957fe5b906000526020600020906006020160030154604051610a4a939291906112d5565b60405180910390a160019050610a60565b600090505b919050565b600080606060008090505b600180549050811015610ca957610b3d60018281548110610a8d57fe5b90600052602060002090600602016001018054600181600116156101000203166002900480601f016020809104026020016040519081016040528092919081815260200182805460018160011615610100020316600290048015610b325780601f10610b0757610100808354040283529160200191610b32565b820191906000526020600020905b815481529060010190602001808311610b1557829003601f168201915b505050505088610cb4565b8015610b6657508560018281548110610b5257fe5b906000526020600020906006020160020154145b8015610b8f57508460018281548110610b7b57fe5b906000526020600020906006020160030154145b15610c9c5760018181548110610ba157fe5b90600052602060002090600602016004015481600289604051610bc491906111bf565b908152602001604051809103902060008981526020019081526020016000206000888152602001908152602001600020808054600181600116156101000203166002900480601f016020809104026020016040519081016040528092919081815260200182805460018160011615610100020316600290048015610c895780601f10610c5e57610100808354040283529160200191610c89565b820191906000526020600020905b815481529060010190602001808311610c6c57829003601f168201915b5050505050905093509350935050610cab565b8080600101915050610a70565b505b93509350939050565b600081604051602001610cc791906111bf565b6040516020818303038152906040528051906020012083604051602001610cee91906111bf565b6040516020818303038152906040528051906020012014905092915050565b828054600181600116156101000203166002900490600052602060002090601f016020900481019282601f10610d4e57805160ff1916838001178555610d7c565b82800160010185558215610d7c579182015b82811115610d7b578251825591602001919060010190610d60565b5b509050610d899190610d8d565b5090565b610daf91905b80821115610dab576000816000905550600101610d93565b5090565b90565b600082601f830112610dc357600080fd5b8135610dd6610dd18261137e565b611351565b91508082526020830160208301858383011115610df257600080fd5b610dfd8382846114b1565b50505092915050565b600081359050610e1581611504565b92915050565b600080600080600060a08688031215610e3357600080fd5b600086013567ffffffffffffffff811115610e4d57600080fd5b610e5988828901610db2565b955050602086013567ffffffffffffffff811115610e7657600080fd5b610e8288828901610db2565b9450506040610e9388828901610e06565b9350506060610ea488828901610e06565b9250506080610eb588828901610e06565b9150509295509295909350565b600080600060608486031215610ed757600080fd5b600084013567ffffffffffffffff811115610ef157600080fd5b610efd86828701610db2565b9350506020610f0e86828701610e06565b9250506040610f1f86828701610e06565b9150509250925092565b600060208284031215610f3b57600080fd5b6000610f4984828501610e06565b91505092915050565b6000610f5e838361106f565b905092915050565b6000610f7283836111a1565b60208301905092915050565b610f8781611469565b82525050565b6000610f98826113df565b610fa2818561141a565b935083602082028501610fb4856113aa565b8060005b85811015610ff05784840389528151610fd18582610f52565b9450610fdc83611400565b925060208a01995050600181019050610fb8565b50829750879550505050505092915050565b600061100d826113ea565b611017818561142b565b9350611022836113ba565b8060005b8381101561105357815161103a8882610f66565b97506110458361140d565b925050600181019050611026565b5085935050505092915050565b6110698161147b565b82525050565b600061107a826113f5565b611084818561143c565b93506110948185602086016114c0565b61109d816114f3565b840191505092915050565b60006110b3826113f5565b6110bd818561144d565b93506110cd8185602086016114c0565b6110d6816114f3565b840191505092915050565b60006110ec826113f5565b6110f6818561145e565b93506111068185602086016114c0565b80840191505092915050565b60008154600181166000811461112f576001811461115557611199565b607f6002830416611140818761144d565b955060ff198316865260208601935050611199565b60028204611163818761144d565b955061116e856113ca565b60005b8281101561119057815481890152600182019150602081019050611171565b80880195505050505b505092915050565b6111aa816114a7565b82525050565b6111b9816114a7565b82525050565b60006111cb82846110e1565b915081905092915050565b60006020820190506111eb6000830184610f7e565b92915050565b600060c082019050818103600083015261120b8189610f8d565b9050818103602083015261121f8188610f8d565b905081810360408301526112338187611002565b905081810360608301526112478186611002565b9050818103608083015261125b8185611002565b905081810360a083015261126f8184611002565b9050979650505050505050565b60006020820190506112916000830184611060565b92915050565b600060608201905081810360008301526112b181866110a8565b90506112c060208301856111b0565b6112cd60408301846111b0565b949350505050565b600060608201905081810360008301526112ef8186611112565b90506112fe60208301856111b0565b61130b60408301846111b0565b949350505050565b600060608201905061132860008301866111b0565b61133560208301856111b0565b818103604083015261134781846110a8565b9050949350505050565b6000604051905081810181811067ffffffffffffffff8211171561137457600080fd5b8060405250919050565b600067ffffffffffffffff82111561139557600080fd5b601f19601f8301169050602081019050919050565b6000819050602082019050919050565b6000819050602082019050919050565b60008190508160005260206000209050919050565b600081519050919050565b600081519050919050565b600081519050919050565b6000602082019050919050565b6000602082019050919050565b600082825260208201905092915050565b600082825260208201905092915050565b600082825260208201905092915050565b600082825260208201905092915050565b600081905092915050565b600061147482611487565b9050919050565b60008115159050919050565b600073ffffffffffffffffffffffffffffffffffffffff82169050919050565b6000819050919050565b82818337600083830152505050565b60005b838110156114de5780820151818401526020810190506114c3565b838111156114ed576000848401525b50505050565b6000601f19601f8301169050919050565b61150d816114a7565b811461151857600080fd5b5056fea264697066735822122066983bba719079cafd7cd0d791ce0cf207c8d9f6d3af4b54f130f430e526917064736f6c63430006070033",
  "source": "    // SPDX-License-Identifier: MIT\n    pragma solidity >=0.6.7;\n    pragma experimental ABIEncoderV2;\n\n     /**\n    * @author Deniz Durak\n    */\n   \n/**\n*   this contracts only administrates the capacity for each flight. \n*   before a flight is bookable, the inventory has to be created\n */\n\n    contract Inventory {\n        \n        address public owner;\n        Inv[] inv;\n\n        // string points to date and this to the cid\n        mapping(string => mapping(uint => mapping( uint => string))) invedFlights;\n\n\n        constructor() public {\n            owner = msg.sender;\n        }\n\n        /**\n        * this is the struct for the inventory\n         */\n        struct Inv {\n            string cid;\n            string flightNumber;\n            uint month;\n            uint day;\n            uint openSeats;\n            uint bookedSeats;\n        }\n\n\n        // create new inventory\n        function createInventory\n        (\n            string memory cid,\n            string memory flightNumber,\n            uint month,\n            uint day,\n            uint seats\n        )\n        public\n        {\n            inv.push(Inv(cid, flightNumber, month, day, seats, 0));\n            invedFlights[flightNumber][month][day] = cid;\n            emit InventoryCreated(flightNumber, month, day);\n        }\n\n\n        // search for inventory and return count of seats available\n        function searchInventory\n        (\n            string memory flightNumber,\n            uint month,\n            uint day\n        )\n        public\n        view\n        // (seats, array index)\n        returns(uint, uint, string memory)\n        {\n            for(uint indArray = 0; indArray<inv.length; indArray++) {\n                if(compareStrings(inv[indArray].flightNumber, flightNumber) && inv[indArray].month == month && inv[indArray].day == day) {\n                    return (inv[indArray].openSeats, indArray, invedFlights[flightNumber][month][day]);\n                }\n            }\n        }\n\n\n        // only access for contract owner (the airline) - get all inventorized flights\n        function getAllFlights() public view isAirline() \n            returns(string[] memory, string[] memory, uint[] memory, uint[] memory, uint[] memory, uint[] memory) {\n            uint len = inv.length;\n            string[] memory cids = new string[](len);\n            string[] memory flightNumbers = new string[](len);\n            uint[] memory fMonths = new uint[](len);\n            uint[] memory fDays = new uint[](len);\n            uint[] memory fOpenSeats = new uint[](len);\n            uint[] memory fBookedSeats = new uint[](len);\n\n            // parse through all flights inside the Inventory and create the return arrays\n            for(uint ind = 0; ind < len; ind++) {\n                cids[ind] = inv[ind].cid;\n                flightNumbers[ind] = inv[ind].flightNumber;\n                fMonths[ind] = inv[ind].month;\n                fDays[ind] = inv[ind].day;\n                fOpenSeats[ind] = inv[ind].openSeats;\n                fBookedSeats[ind] = inv[ind].bookedSeats;\n            }\n\n            return (cids, flightNumbers, fMonths, fDays, fOpenSeats, fBookedSeats);\n        }\n\n\n        // flight has been booked - seats minus 1\n        function flightBooked\n        (\n            uint index\n        )\n        public\n        returns (bool)\n        {\n            if(inv[index].openSeats > 0){\n                inv[index].openSeats -= 1;\n                inv[index].bookedSeats += 1;\n                emit FlightBooked(inv[index].flightNumber, inv[index].month, inv[index].day);\n                return true;\n            }\n            else return false;\n        }\n\n        function flightTicketCancelled (string memory flightNo, uint month, uint day) public \n        {\n            for(uint ind = 0; ind<inv.length; ind++)\n            {\n                if(compareStrings(inv[ind].flightNumber, flightNo) && \n                    inv[ind].month == month &&  \n                    inv[ind].day == day) \n                {\n                    inv[ind].openSeats += 1;\n                    inv[ind].bookedSeats -= 1;\n                }\n            }\n        }\n\n\n        /**\n        * @dev compares cmp1 & cmp2\n        */\n        function compareStrings\n        (\n            string memory cmp1,\n            string memory cmp2\n        )\n        private\n        pure\n        returns(bool)\n        {\n            return (keccak256(abi.encodePacked((cmp1))) == keccak256(abi.encodePacked((cmp2))));\n        }\n\n\n        // modifier access only for owner\n        modifier isAirline() {\n            require (msg.sender == owner);\n            _;\n        }\n\n        event FlightBooked(string flightNumber, uint month, uint day);\n        event InventoryCreated(string flightNumber, uint month, uint day);\n    }",
  "sourcePath": "/home/dubka/Documents/BachelorThesis/bin/smart_contracts/contracts/Inventory.sol",
  "compiler": {
    "name": "solc",
    "version": "0.6.7+commit.b8d736ae.Emscripten.clang"
  },
  "schemaVersion": "3.0.23",
  "updatedAt": "2020-11-19T21:09:04.005Z",
  "networkType": "ethereum",
  "devdoc": {
    "methods": {}
  },
  "userdoc": {
    "methods": {},
    "notice": "this contracts only administrates the capacity for each flight.   before a flight is bookable, the inventory has to be created"
  }
}