{
  "contractName": "InventContract",
  "abi": [
    {
      "inputs": [],
      "stateMutability": "nonpayable",
      "type": "constructor"
    },
    {
      "anonymous": false,
      "inputs": [
        {
          "indexed": false,
          "internalType": "string",
          "name": "flightNumber",
          "type": "string"
        },
        {
          "indexed": false,
          "internalType": "uint256",
          "name": "month",
          "type": "uint256"
        },
        {
          "indexed": false,
          "internalType": "uint256",
          "name": "day",
          "type": "uint256"
        }
      ],
      "name": "FlightBooked",
      "type": "event"
    },
    {
      "anonymous": false,
      "inputs": [
        {
          "indexed": false,
          "internalType": "string",
          "name": "flightNumber",
          "type": "string"
        },
        {
          "indexed": false,
          "internalType": "uint256",
          "name": "month",
          "type": "uint256"
        },
        {
          "indexed": false,
          "internalType": "uint256",
          "name": "day",
          "type": "uint256"
        }
      ],
      "name": "InventoryCreated",
      "type": "event"
    },
    {
      "inputs": [],
      "name": "owner",
      "outputs": [
        {
          "internalType": "address",
          "name": "",
          "type": "address"
        }
      ],
      "stateMutability": "view",
      "type": "function"
    },
    {
      "inputs": [
        {
          "internalType": "string",
          "name": "cid",
          "type": "string"
        },
        {
          "internalType": "string",
          "name": "flightNumber",
          "type": "string"
        },
        {
          "internalType": "uint256",
          "name": "month",
          "type": "uint256"
        },
        {
          "internalType": "uint256",
          "name": "day",
          "type": "uint256"
        },
        {
          "internalType": "uint256",
          "name": "seats",
          "type": "uint256"
        }
      ],
      "name": "createInventory",
      "outputs": [],
      "stateMutability": "nonpayable",
      "type": "function"
    },
    {
      "inputs": [
        {
          "internalType": "string",
          "name": "flightNumber",
          "type": "string"
        },
        {
          "internalType": "uint256",
          "name": "month",
          "type": "uint256"
        },
        {
          "internalType": "uint256",
          "name": "day",
          "type": "uint256"
        }
      ],
      "name": "searchInventory",
      "outputs": [
        {
          "internalType": "uint256",
          "name": "",
          "type": "uint256"
        },
        {
          "internalType": "uint256",
          "name": "",
          "type": "uint256"
        },
        {
          "internalType": "string",
          "name": "",
          "type": "string"
        }
      ],
      "stateMutability": "view",
      "type": "function"
    },
    {
      "inputs": [],
      "name": "getAllFlights",
      "outputs": [
        {
          "internalType": "string[]",
          "name": "",
          "type": "string[]"
        },
        {
          "internalType": "string[]",
          "name": "",
          "type": "string[]"
        },
        {
          "internalType": "uint256[]",
          "name": "",
          "type": "uint256[]"
        },
        {
          "internalType": "uint256[]",
          "name": "",
          "type": "uint256[]"
        },
        {
          "internalType": "uint256[]",
          "name": "",
          "type": "uint256[]"
        },
        {
          "internalType": "uint256[]",
          "name": "",
          "type": "uint256[]"
        }
      ],
      "stateMutability": "view",
      "type": "function"
    },
    {
      "inputs": [
        {
          "internalType": "uint256",
          "name": "index",
          "type": "uint256"
        }
      ],
      "name": "flightBooked",
      "outputs": [
        {
          "internalType": "bool",
          "name": "",
          "type": "bool"
        }
      ],
      "stateMutability": "nonpayable",
      "type": "function"
    },
    {
      "inputs": [
        {
          "internalType": "string",
          "name": "flightNo",
          "type": "string"
        },
        {
          "internalType": "uint256",
          "name": "month",
          "type": "uint256"
        },
        {
          "internalType": "uint256",
          "name": "day",
          "type": "uint256"
        }
      ],
      "name": "flightTicketCancelled",
      "outputs": [],
      "stateMutability": "nonpayable",
      "type": "function"
    }
  ],
  "bytecode": "0x608060405234801561001057600080fd5b50336000806101000a81548173ffffffffffffffffffffffffffffffffffffffff021916908373ffffffffffffffffffffffffffffffffffffffff16021790555061138e806100606000396000f3fe608060405234801561001057600080fd5b50600436106100625760003560e01c80634c67cc3b146100675780638441b3b31461008a5780638da5cb5b146100a6578063ac2e603f146100c4578063b52f0afe146100e0578063efa7334914610110575b600080fd5b61006f610142565b6040516100819695949392919061102e565b60405180910390f35b6100a4600480360381019061009f9190610c58565b61046c565b005b6100ae6105c0565b6040516100bb9190611013565b60405180910390f35b6100de60048036038101906100d99190610cff565b6105e5565b005b6100fa60048036038101906100f59190610d66565b61077b565b60405161010791906110b9565b60405180910390f35b61012a60048036038101906101259190610cff565b6108a2565b60405161013993929190611150565b60405180910390f35b6060806060806060806000809054906101000a900473ffffffffffffffffffffffffffffffffffffffff1673ffffffffffffffffffffffffffffffffffffffff163373ffffffffffffffffffffffffffffffffffffffff16146101a457600080fd5b6000600180549050905060608060608060608060008090505b8781101561044a57600181815481106101d257fe5b90600052602060002090600602016000018054600181600116156101000203166002900480601f0160208091040260200160405190810160405280929190818152602001828054600181600116156101000203166002900480156102775780601f1061024c57610100808354040283529160200191610277565b820191906000526020600020905b81548152906001019060200180831161025a57829003601f168201915b505050505087828151811061028857fe5b6020026020010181905250600181815481106102a057fe5b90600052602060002090600602016001018054600181600116156101000203166002900480601f0160208091040260200160405190810160405280929190818152602001828054600181600116156101000203166002900480156103455780601f1061031a57610100808354040283529160200191610345565b820191906000526020600020905b81548152906001019060200180831161032857829003601f168201915b505050505086828151811061035657fe5b60200260200101819052506001818154811061036e57fe5b90600052602060002090600602016002015485828151811061038c57fe5b602002602001018181525050600181815481106103a557fe5b9060005260206000209060060201600301548482815181106103c357fe5b602002602001018181525050600181815481106103dc57fe5b9060005260206000209060060201600401548382815181106103fa57fe5b6020026020010181815250506001818154811061041357fe5b90600052602060002090600602016005015482828151811061043157fe5b60200260200101818152505080806001019150506101bd565b508585858585859c509c509c509c509c509c5050505050505050909192939495565b60016040518060c001604052808781526020018681526020018581526020018481526020018381526020016000815250908060018154018082558091505060019003906000526020600020906006020160009091909190915060008201518160000190805190602001906104e1929190610b4a565b5060208201518160010190805190602001906104fe929190610b4a565b5060408201518160020155606082015181600301556080820151816004015560a0820151816005015550508460028560405161053a9190610ffc565b908152602001604051809103902060008581526020019081526020016000206000848152602001908152602001600020908051906020019061057d929190610b4a565b507fd1143855450f24fe995272d132c2274854d0082defaace8f005774cbb1c2ecd38484846040516105b1939291906110d4565b60405180910390a15050505050565b6000809054906101000a900473ffffffffffffffffffffffffffffffffffffffff1681565b60008090505b600180549050811015610775576106b86001828154811061060857fe5b90600052602060002090600602016001018054600181600116156101000203166002900480601f0160208091040260200160405190810160405280929190818152602001828054600181600116156101000203166002900480156106ad5780601f10610682576101008083540402835291602001916106ad565b820191906000526020600020905b81548152906001019060200180831161069057829003601f168201915b505050505085610af1565b80156106e1575082600182815481106106cd57fe5b906000526020600020906006020160020154145b801561070a575081600182815481106106f657fe5b906000526020600020906006020160030154145b1561076857600180828154811061071d57fe5b906000526020600020906006020160040160008282540192505081905550600180828154811061074957fe5b9060005260206000209060060201600501600082825403925050819055505b80806001019150506105eb565b50505050565b6000806001838154811061078b57fe5b90600052602060002090600602016004015411156108985760018083815481106107b157fe5b90600052602060002090600602016004016000828254039250508190555060018083815481106107dd57fe5b9060005260206000209060060201600501600082825401925050819055507f6f3068da632778391afd7aed43ee6cfc1ffb50069a92434b6ff6cf2c0db0d53b6001838154811061082957fe5b90600052602060002090600602016001016001848154811061084757fe5b9060005260206000209060060201600201546001858154811061086657fe5b90600052602060002090600602016003015460405161088793929190611112565b60405180910390a16001905061089d565b600090505b919050565b600080606060008090505b600180549050811015610ae65761097a600182815481106108ca57fe5b90600052602060002090600602016001018054600181600116156101000203166002900480601f01602080910402602001604051908101604052809291908181526020018280546001816001161561010002031660029004801561096f5780601f106109445761010080835404028352916020019161096f565b820191906000526020600020905b81548152906001019060200180831161095257829003601f168201915b505050505088610af1565b80156109a35750856001828154811061098f57fe5b906000526020600020906006020160020154145b80156109cc575084600182815481106109b857fe5b906000526020600020906006020160030154145b15610ad957600181815481106109de57fe5b90600052602060002090600602016004015481600289604051610a019190610ffc565b908152602001604051809103902060008981526020019081526020016000206000888152602001908152602001600020808054600181600116156101000203166002900480601f016020809104026020016040519081016040528092919081815260200182805460018160011615610100020316600290048015610ac65780601f10610a9b57610100808354040283529160200191610ac6565b820191906000526020600020905b815481529060010190602001808311610aa957829003601f168201915b5050505050905093509350935050610ae8565b80806001019150506108ad565b505b93509350939050565b600081604051602001610b049190610ffc565b6040516020818303038152906040528051906020012083604051602001610b2b9190610ffc565b6040516020818303038152906040528051906020012014905092915050565b828054600181600116156101000203166002900490600052602060002090601f016020900481019282601f10610b8b57805160ff1916838001178555610bb9565b82800160010185558215610bb9579182015b82811115610bb8578251825591602001919060010190610b9d565b5b509050610bc69190610bca565b5090565b610bec91905b80821115610be8576000816000905550600101610bd0565b5090565b90565b600082601f830112610c0057600080fd5b8135610c13610c0e826111bb565b61118e565b91508082526020830160208301858383011115610c2f57600080fd5b610c3a8382846112ee565b50505092915050565b600081359050610c5281611341565b92915050565b600080600080600060a08688031215610c7057600080fd5b600086013567ffffffffffffffff811115610c8a57600080fd5b610c9688828901610bef565b955050602086013567ffffffffffffffff811115610cb357600080fd5b610cbf88828901610bef565b9450506040610cd088828901610c43565b9350506060610ce188828901610c43565b9250506080610cf288828901610c43565b9150509295509295909350565b600080600060608486031215610d1457600080fd5b600084013567ffffffffffffffff811115610d2e57600080fd5b610d3a86828701610bef565b9350506020610d4b86828701610c43565b9250506040610d5c86828701610c43565b9150509250925092565b600060208284031215610d7857600080fd5b6000610d8684828501610c43565b91505092915050565b6000610d9b8383610eac565b905092915050565b6000610daf8383610fde565b60208301905092915050565b610dc4816112a6565b82525050565b6000610dd58261121c565b610ddf8185611257565b935083602082028501610df1856111e7565b8060005b85811015610e2d5784840389528151610e0e8582610d8f565b9450610e198361123d565b925060208a01995050600181019050610df5565b50829750879550505050505092915050565b6000610e4a82611227565b610e548185611268565b9350610e5f836111f7565b8060005b83811015610e90578151610e778882610da3565b9750610e828361124a565b925050600181019050610e63565b5085935050505092915050565b610ea6816112b8565b82525050565b6000610eb782611232565b610ec18185611279565b9350610ed18185602086016112fd565b610eda81611330565b840191505092915050565b6000610ef082611232565b610efa818561128a565b9350610f0a8185602086016112fd565b610f1381611330565b840191505092915050565b6000610f2982611232565b610f33818561129b565b9350610f438185602086016112fd565b80840191505092915050565b600081546001811660008114610f6c5760018114610f9257610fd6565b607f6002830416610f7d818761128a565b955060ff198316865260208601935050610fd6565b60028204610fa0818761128a565b9550610fab85611207565b60005b82811015610fcd57815481890152600182019150602081019050610fae565b80880195505050505b505092915050565b610fe7816112e4565b82525050565b610ff6816112e4565b82525050565b60006110088284610f1e565b915081905092915050565b60006020820190506110286000830184610dbb565b92915050565b600060c08201905081810360008301526110488189610dca565b9050818103602083015261105c8188610dca565b905081810360408301526110708187610e3f565b905081810360608301526110848186610e3f565b905081810360808301526110988185610e3f565b905081810360a08301526110ac8184610e3f565b9050979650505050505050565b60006020820190506110ce6000830184610e9d565b92915050565b600060608201905081810360008301526110ee8186610ee5565b90506110fd6020830185610fed565b61110a6040830184610fed565b949350505050565b6000606082019050818103600083015261112c8186610f4f565b905061113b6020830185610fed565b6111486040830184610fed565b949350505050565b60006060820190506111656000830186610fed565b6111726020830185610fed565b81810360408301526111848184610ee5565b9050949350505050565b6000604051905081810181811067ffffffffffffffff821117156111b157600080fd5b8060405250919050565b600067ffffffffffffffff8211156111d257600080fd5b601f19601f8301169050602081019050919050565b6000819050602082019050919050565b6000819050602082019050919050565b60008190508160005260206000209050919050565b600081519050919050565b600081519050919050565b600081519050919050565b6000602082019050919050565b6000602082019050919050565b600082825260208201905092915050565b600082825260208201905092915050565b600082825260208201905092915050565b600082825260208201905092915050565b600081905092915050565b60006112b1826112c4565b9050919050565b60008115159050919050565b600073ffffffffffffffffffffffffffffffffffffffff82169050919050565b6000819050919050565b82818337600083830152505050565b60005b8381101561131b578082015181840152602081019050611300565b8381111561132a576000848401525b50505050565b6000601f19601f8301169050919050565b61134a816112e4565b811461135557600080fd5b5056fea2646970667358221220e7aa5e49418eb5eaea083e7338abd0100c1cb96848f03f85f684f4dd65127de964736f6c63430006070033",
  "source": "    // SPDX-License-Identifier: MIT\n    pragma solidity >=0.6.7;\n    pragma experimental ABIEncoderV2;\n\n     /**\n    * @author Deniz Durak\n    */\n   \n/**\n*   this contracts only administrates the capacity for each flight. \n*   before a flight is bookable, the inventory has to be created\n */\n\n    contract InventContract {\n        \n        address public owner;\n        Inventory[] inv;\n\n        // string points to date and this to the cid\n        mapping(string => mapping(uint => mapping( uint => string))) invedFlights;\n\n\n        constructor() public {\n            owner = msg.sender;\n        }\n\n        /**\n        * this is the struct for the inventory\n         */\n        struct Inventory {\n            string cid;\n            string flightNumber;\n            uint month;\n            uint day;\n            uint openSeats;\n            uint bookedSeats;\n        }\n\n\n        // create new inventory\n        function createInventory\n        (\n            string memory cid,\n            string memory flightNumber,\n            uint month,\n            uint day,\n            uint seats\n        )\n        public\n        {\n            inv.push(Inventory(cid, flightNumber, month, day, seats, 0));\n            invedFlights[flightNumber][month][day] = cid;\n            emit InventoryCreated(flightNumber, month, day);\n        }\n\n\n        // search for inventory and return count of seats available\n        function searchInventory\n        (\n            string memory flightNumber,\n            uint month,\n            uint day\n        )\n        public\n        view\n        // (seats, array index)\n        returns(uint, uint, string memory)\n        {\n            for(uint indArray = 0; indArray<inv.length; indArray++) {\n                if(compareStrings(inv[indArray].flightNumber, flightNumber) && inv[indArray].month == month && inv[indArray].day == day) {\n                    return (inv[indArray].openSeats, indArray, invedFlights[flightNumber][month][day]);\n                }\n            }\n        }\n\n\n        // only access for contract owner (the airline) - get all inventorized flights\n        function getAllFlights() public view isAirline() \n            returns(string[] memory, string[] memory, uint[] memory, uint[] memory, uint[] memory, uint[] memory) {\n            uint len = inv.length;\n            string[] memory cids;\n            string[] memory flightNumbers;\n            uint[] memory fMonths;\n            uint[] memory fDays;\n            uint[] memory fOpenSeats;\n            uint[] memory fBookedSeats;\n\n            // parse through all flights inside the Inventory and create the return arrays\n            for(uint ind = 0; ind < len; ind++) {\n                cids[ind] = inv[ind].cid;\n                flightNumbers[ind] = inv[ind].flightNumber;\n                fMonths[ind] = inv[ind].month;\n                fDays[ind] = inv[ind].day;\n                fOpenSeats[ind] = inv[ind].openSeats;\n                fBookedSeats[ind] = inv[ind].bookedSeats;\n            }\n\n            return (cids, flightNumbers, fMonths, fDays, fOpenSeats, fBookedSeats);\n        }\n\n\n        // flight has been booked - seats minus 1\n        function flightBooked\n        (\n            uint index\n        )\n        public\n        returns (bool)\n        {\n            if(inv[index].openSeats > 0){\n                inv[index].openSeats -= 1;\n                inv[index].bookedSeats += 1;\n                emit FlightBooked(inv[index].flightNumber, inv[index].month, inv[index].day);\n                return true;\n            }\n            else return false;\n        }\n\n        function flightTicketCancelled (string memory flightNo, uint month, uint day) public \n        {\n            for(uint ind = 0; ind<inv.length; ind++)\n            {\n                if(compareStrings(inv[ind].flightNumber, flightNo) && \n                    inv[ind].month == month &&  \n                    inv[ind].day == day) \n                {\n                    inv[ind].openSeats += 1;\n                    inv[ind].bookedSeats -= 1;\n                }\n            }\n        }\n\n\n        /**\n        * @dev compares cmp1 & cmp2\n        */\n        function compareStrings\n        (\n            string memory cmp1,\n            string memory cmp2\n        )\n        private\n        pure\n        returns(bool)\n        {\n            return (keccak256(abi.encodePacked((cmp1))) == keccak256(abi.encodePacked((cmp2))));\n        }\n\n\n        // modifier access only for owner\n        modifier isAirline() {\n            require (msg.sender == owner);\n            _;\n        }\n\n        event FlightBooked(string flightNumber, uint month, uint day);\n        event InventoryCreated(string flightNumber, uint month, uint day);\n    }",
  "sourcePath": "/home/dubka/Documents/BachelorThesis/bin/smart_contracts/contracts/InventContract.sol",
  "compiler": {
    "name": "solc",
    "version": "0.6.7+commit.b8d736ae.Emscripten.clang"
  },
  "schemaVersion": "3.0.23",
  "updatedAt": "2020-11-19T20:27:41.159Z",
  "devdoc": {
    "methods": {}
  },
  "userdoc": {
    "methods": {},
    "notice": "this contracts only administrates the capacity for each flight.   before a flight is bookable, the inventory has to be created"
  }
}