{
  "contractName": "OperationPlan",
  "abi": [
    {
      "inputs": [],
      "stateMutability": "nonpayable",
      "type": "constructor"
    },
    {
      "anonymous": false,
      "inputs": [
        {
          "indexed": false,
          "internalType": "string",
          "name": "_from",
          "type": "string"
        },
        {
          "indexed": false,
          "internalType": "string",
          "name": "_to",
          "type": "string"
        },
        {
          "indexed": false,
          "internalType": "uint256",
          "name": "_status",
          "type": "uint256"
        }
      ],
      "name": "newFlightIssued",
      "type": "event"
    },
    {
      "inputs": [],
      "name": "owner",
      "outputs": [
        {
          "internalType": "address",
          "name": "",
          "type": "address"
        }
      ],
      "stateMutability": "view",
      "type": "function"
    },
    {
      "inputs": [
        {
          "internalType": "string",
          "name": "_from",
          "type": "string"
        },
        {
          "internalType": "string",
          "name": "_to",
          "type": "string"
        },
        {
          "internalType": "uint256",
          "name": "_status",
          "type": "uint256"
        },
        {
          "internalType": "string",
          "name": "cid",
          "type": "string"
        }
      ],
      "name": "issueFlight",
      "outputs": [],
      "stateMutability": "nonpayable",
      "type": "function"
    },
    {
      "inputs": [
        {
          "internalType": "string",
          "name": "_from",
          "type": "string"
        },
        {
          "internalType": "string",
          "name": "_to",
          "type": "string"
        }
      ],
      "name": "searchFlight",
      "outputs": [
        {
          "internalType": "string",
          "name": "",
          "type": "string"
        }
      ],
      "stateMutability": "view",
      "type": "function"
    }
  ],
  "bytecode": "0x608060405234801561001057600080fd5b50336000806101000a81548173ffffffffffffffffffffffffffffffffffffffff021916908373ffffffffffffffffffffffffffffffffffffffff16021790555060016002600080815260200190815260200160002060006101000a81548160ff0219169083600181111561008157fe5b02179055506000600260006001815260200190815260200160002060006101000a81548160ff021916908360018111156100b757fe5b0217905550610a92806100cb6000396000f3fe608060405234801561001057600080fd5b50600436106100415760003560e01c806355bc5c7e146100465780636c76c0c9146100625780638da5cb5b14610092575b600080fd5b610060600480360381019061005b919061076a565b6100b0565b005b61007c600480360381019061007791906106fe565b61024a565b60405161008991906108cf565b60405180910390f35b61009a610376565b6040516100a791906108b4565b60405180910390f35b81600281106100be57600080fd5b600160405180606001604052808781526020018681526020016002600087815260200190815260200160002060009054906101000a900460ff16600181111561010357fe5b8152509080600181540180825580915050600190039060005260206000209060030201600090919091909150600082015181600001908051906020019061014b9291906105f0565b5060208201518160010190805190602001906101689291906105f0565b5060408201518160020160006101000a81548160ff0219169083600181111561018d57fe5b021790555050506003856040516101a4919061089d565b9081526020016040518091039020846040516101c0919061089d565b9081526020016040518091039020829080600181540180825580915050600190039060005260206000200160009091909190915090805190602001906102079291906105f0565b507fe388c59d3f8fad3f0575452375c4fb78b995ccbf40f4a5dac226f10de1de815d85858560405161023b939291906108f1565b60405180910390a15050505050565b606061036e60038460405161025f919061089d565b90815260200160405180910390208360405161027b919061089d565b9081526020016040518091039020805480602002602001604051908101604052809291908181526020016000905b82821015610365578382906000526020600020018054600181600116156101000203166002900480601f0160208091040260200160405190810160405280929190818152602001828054600181600116156101000203166002900480156103515780601f1061032657610100808354040283529160200191610351565b820191906000526020600020905b81548152906001019060200180831161033457829003601f168201915b5050505050815260200190600101906102a9565b5050505061039b565b905092915050565b6000809054906101000a900473ffffffffffffffffffffffffffffffffffffffff1681565b6060600082519050600080905060018214156103cf57836000815181106103be57fe5b6020026020010151925050506105eb565b60606040518060400160405280600181526020017f5f000000000000000000000000000000000000000000000000000000000000008152509050606081905060008090505b8481101561045a57606087828151811061042a57fe5b602002602001015190508051850194506001860382101561044c578251850194505b508080600101915050610414565b5060608367ffffffffffffffff8111801561047457600080fd5b506040519080825280601f01601f1916602001820160405280156104a75781602001600182028036833780820191505090505b5090506060819050600080905060008090505b89518110156105df5760608a82815181106104d157fe5b6020026020010151905060008090505b815181101561054f578181815181106104f657fe5b602001015160f81c60f81b85858060010196508151811061051357fe5b60200101907effffffffffffffffffffffffffffffffffffffffffffffffffffffffffffff1916908160001a90535080806001019150506104e1565b50600189038210156105d15760008090505b86518110156105cf5786818151811061057657fe5b602001015160f81c60f81b85858060010196508151811061059357fe5b60200101907effffffffffffffffffffffffffffffffffffffffffffffffffffffffffffff1916908160001a9053508080600101915050610561565b505b5080806001019150506104ba565b50819750505050505050505b919050565b828054600181600116156101000203166002900490600052602060002090601f016020900481019282601f1061063157805160ff191683800117855561065f565b8280016001018555821561065f579182015b8281111561065e578251825591602001919060010190610643565b5b50905061066c9190610670565b5090565b61069291905b8082111561068e576000816000905550600101610676565b5090565b90565b600082601f8301126106a657600080fd5b81356106b96106b482610963565b610936565b915080825260208301602083018583830111156106d557600080fd5b6106e08382846109f2565b50505092915050565b6000813590506106f881610a45565b92915050565b6000806040838503121561071157600080fd5b600083013567ffffffffffffffff81111561072b57600080fd5b61073785828601610695565b925050602083013567ffffffffffffffff81111561075457600080fd5b61076085828601610695565b9150509250929050565b6000806000806080858703121561078057600080fd5b600085013567ffffffffffffffff81111561079a57600080fd5b6107a687828801610695565b945050602085013567ffffffffffffffff8111156107c357600080fd5b6107cf87828801610695565b93505060406107e0878288016106e9565b925050606085013567ffffffffffffffff8111156107fd57600080fd5b61080987828801610695565b91505092959194509250565b61081e816109b6565b82525050565b600061082f8261098f565b610839818561099a565b9350610849818560208601610a01565b61085281610a34565b840191505092915050565b60006108688261098f565b61087281856109ab565b9350610882818560208601610a01565b80840191505092915050565b610897816109e8565b82525050565b60006108a9828461085d565b915081905092915050565b60006020820190506108c96000830184610815565b92915050565b600060208201905081810360008301526108e98184610824565b905092915050565b6000606082019050818103600083015261090b8186610824565b9050818103602083015261091f8185610824565b905061092e604083018461088e565b949350505050565b6000604051905081810181811067ffffffffffffffff8211171561095957600080fd5b8060405250919050565b600067ffffffffffffffff82111561097a57600080fd5b601f19601f8301169050602081019050919050565b600081519050919050565b600082825260208201905092915050565b600081905092915050565b60006109c1826109c8565b9050919050565b600073ffffffffffffffffffffffffffffffffffffffff82169050919050565b6000819050919050565b82818337600083830152505050565b60005b83811015610a1f578082015181840152602081019050610a04565b83811115610a2e576000848401525b50505050565b6000601f19601f8301169050919050565b610a4e816109e8565b8114610a5957600080fd5b5056fea26469706673582212209756de7d335154aac8fb8d73e351c3c76dce8c7d00ce2a9a5197036b5b1cb99164736f6c63430006070033",
  "source": "    // SPDX-License-Identifier: MIT\n    pragma solidity >=0.6.7;\n    pragma experimental ABIEncoderV2;\n\n    /**\n    * @author Deniz Durak\n    */\n   \n    contract OperationPlan {\n\n        \n        // storage values\n\n        address public owner;\n        Route[] private flights;\n        mapping(uint => Status) private assignStatus;\n\n        // 1st is the dep, 2nd arr, 3rd the cid\n        mapping( string => mapping ( string => string[] ) ) private plan;\n\n        /**\n        * @param Flight represents route of Airline\n        */\n\n        struct Route {\n            string from;\n            string to;\n            Status status;\n        }\n\n        enum Status {\n            ACTIVE, CANCELLED\n        }\n\n\n        // constructor assigns the creator of the contract as owner\n        // only owner can do mutations\n        constructor() public{\n\n            owner = msg.sender;\n            \n            assignStatus[0] = Status.CANCELLED;\n            assignStatus[1] = Status.ACTIVE;\n        }\n\n        /**\n        * @dev this function issues new flights and emits the FlightIssued event\n        */\n\n        function issueFlight(\n            string memory _from, \n            string memory _to,\n            uint _status,\n            string memory cid\n        )\n            public\n            validateStatus(_status)\n        {\n            flights.push(Route(_from, _to, assignStatus[_status]));\n            plan[_from][_to].push(cid);\n            \n            emit newFlightIssued(_from, _to, _status);\n        }\n\n        /**\n        * @dev search for flights inside flightPlan\n        */\n\n        function searchFlight(\n            string memory _from,\n            string memory _to\n        )\n        public\n        view\n        returns (string memory)\n        {\n            return(concatStrings(plan[_from][_to]));\n        }\n\n\n        /**\n        * @dev concat all cids with underline between each one\n         */\n        function concatStrings\n        (\n            string[] memory cids\n        )\n        private\n        pure\n        returns(string memory)\n        {\n            uint length = cids.length;\n            uint strLength = 0;\n\n            if(length == 1) { return(cids[0]); }\n            \n            else {\n\n                string memory differ = \"_\";\n                bytes memory bDiffer = bytes(differ);\n                // get count of bytes\n                for(uint ind = 0; ind < length; ind++) \n                {\n                    bytes memory buf = bytes(cids[ind]);\n                    strLength += buf.length;\n                    if(ind < (length-1)) \n                    {\n                        strLength += bDiffer.length;\n                    }\n                }\n                \n                string memory bufStr = new string(strLength);\n                bytes memory concatBytes = bytes(bufStr);\n\n                uint indK = 0;\n                for(uint ind = 0; ind < cids.length; ind++)\n                {\n                    bytes memory tt = bytes(cids[ind]);\n                    for(uint indJ = 0; indJ<tt.length; indJ++) \n                    {\n                        concatBytes[indK++] = tt[indJ];\n                    }\n\n                    if(ind < (length-1)) \n                    {\n                        for(uint indDiffer = 0; indDiffer < bDiffer.length; indDiffer++)\n                        {\n                            concatBytes[indK++] = bDiffer[indDiffer];\n                        }\n                    }\n                }\n                \n                return(string(concatBytes));\n            }\n        }\n        /**\n        * @dev compares cmp1 & cmp2\n        */\n\n        function compareStrings\n        (\n            string memory cmp1,\n            string memory cmp2\n        )\n        private\n        pure\n        returns(bool)\n        {\n            return (keccak256(abi.encodePacked((cmp1))) == keccak256(abi.encodePacked((cmp2))));\n        }\n\n        //  ** modifier ** \n        //\n        // checks if the status is 0 or 1 \n        //\n        modifier validateStatus(uint _status) {\n            require(_status < 2);\n            _;\n        }\n\n        // events\n        //\n        event newFlightIssued(string _from, string _to, uint _status);\n    }",
  "sourcePath": "/home/dubka/Documents/BachelorThesis/bin/smart_contracts/contracts/OperationPlan.sol",
  "compiler": {
    "name": "solc",
    "version": "0.6.7+commit.b8d736ae.Emscripten.clang"
  },
  "schemaVersion": "3.0.23",
  "updatedAt": "2020-11-13T20:01:34.372Z",
  "devdoc": {
    "author": "Deniz Durak",
    "methods": {
      "issueFlight(string,string,uint256,string)": {
        "details": "this function issues new flights and emits the FlightIssued event"
      },
      "searchFlight(string,string)": {
        "details": "search for flights inside flightPlan"
      }
    }
  },
  "userdoc": {
    "methods": {}
  }
}