{
  "contractName": "PassSystemContract",
  "abi": [
    {
      "inputs": [],
      "stateMutability": "nonpayable",
      "type": "constructor"
    },
    {
      "anonymous": false,
      "inputs": [
        {
          "indexed": false,
          "internalType": "string",
          "name": "flightNumber",
          "type": "string"
        },
        {
          "indexed": false,
          "internalType": "uint256",
          "name": "month",
          "type": "uint256"
        },
        {
          "indexed": false,
          "internalType": "uint256",
          "name": "day",
          "type": "uint256"
        }
      ],
      "name": "FlightCreated",
      "type": "event"
    },
    {
      "anonymous": false,
      "inputs": [
        {
          "indexed": false,
          "internalType": "string",
          "name": "flightNumber",
          "type": "string"
        },
        {
          "indexed": false,
          "internalType": "uint256",
          "name": "month",
          "type": "uint256"
        },
        {
          "indexed": false,
          "internalType": "uint256",
          "name": "day",
          "type": "uint256"
        },
        {
          "indexed": false,
          "internalType": "uint256",
          "name": "status",
          "type": "uint256"
        }
      ],
      "name": "FlightStatusChanged",
      "type": "event"
    },
    {
      "anonymous": false,
      "inputs": [
        {
          "indexed": false,
          "internalType": "address",
          "name": "customer",
          "type": "address"
        },
        {
          "indexed": false,
          "internalType": "string",
          "name": "flightNumber",
          "type": "string"
        },
        {
          "indexed": false,
          "internalType": "uint256",
          "name": "month",
          "type": "uint256"
        },
        {
          "indexed": false,
          "internalType": "uint256",
          "name": "day",
          "type": "uint256"
        },
        {
          "indexed": false,
          "internalType": "uint256",
          "name": "status",
          "type": "uint256"
        }
      ],
      "name": "PassengerStatusChanged",
      "type": "event"
    },
    {
      "anonymous": false,
      "inputs": [
        {
          "indexed": false,
          "internalType": "address",
          "name": "customer",
          "type": "address"
        },
        {
          "indexed": false,
          "internalType": "uint256",
          "name": "price",
          "type": "uint256"
        }
      ],
      "name": "TicketCancelled",
      "type": "event"
    },
    {
      "anonymous": false,
      "inputs": [
        {
          "indexed": false,
          "internalType": "address",
          "name": "customer",
          "type": "address"
        },
        {
          "indexed": false,
          "internalType": "string",
          "name": "flightNumber",
          "type": "string"
        },
        {
          "indexed": false,
          "internalType": "uint256",
          "name": "month",
          "type": "uint256"
        },
        {
          "indexed": false,
          "internalType": "uint256",
          "name": "day",
          "type": "uint256"
        }
      ],
      "name": "TicketIssued",
      "type": "event"
    },
    {
      "inputs": [
        {
          "internalType": "string",
          "name": "cid",
          "type": "string"
        },
        {
          "internalType": "string",
          "name": "flightNumber",
          "type": "string"
        },
        {
          "internalType": "uint256",
          "name": "month",
          "type": "uint256"
        },
        {
          "internalType": "uint256",
          "name": "day",
          "type": "uint256"
        },
        {
          "internalType": "uint256",
          "name": "price",
          "type": "uint256"
        }
      ],
      "name": "createTicket",
      "outputs": [
        {
          "internalType": "bool",
          "name": "",
          "type": "bool"
        }
      ],
      "stateMutability": "nonpayable",
      "type": "function"
    },
    {
      "inputs": [
        {
          "internalType": "string",
          "name": "flightNumber",
          "type": "string"
        },
        {
          "internalType": "uint256",
          "name": "month",
          "type": "uint256"
        },
        {
          "internalType": "uint256",
          "name": "day",
          "type": "uint256"
        },
        {
          "internalType": "uint256",
          "name": "_status",
          "type": "uint256"
        }
      ],
      "name": "changeFlightStatus",
      "outputs": [
        {
          "internalType": "bool",
          "name": "",
          "type": "bool"
        },
        {
          "internalType": "uint256",
          "name": "",
          "type": "uint256"
        }
      ],
      "stateMutability": "nonpayable",
      "type": "function"
    },
    {
      "inputs": [
        {
          "internalType": "string",
          "name": "flightNumber",
          "type": "string"
        },
        {
          "internalType": "uint256",
          "name": "month",
          "type": "uint256"
        },
        {
          "internalType": "uint256",
          "name": "day",
          "type": "uint256"
        }
      ],
      "name": "getFlightStatus",
      "outputs": [
        {
          "internalType": "string",
          "name": "",
          "type": "string"
        }
      ],
      "stateMutability": "view",
      "type": "function",
      "constant": true
    },
    {
      "inputs": [
        {
          "internalType": "string",
          "name": "flightNumber",
          "type": "string"
        },
        {
          "internalType": "uint256",
          "name": "month",
          "type": "uint256"
        },
        {
          "internalType": "uint256",
          "name": "day",
          "type": "uint256"
        }
      ],
      "name": "getPassengerStatus",
      "outputs": [
        {
          "internalType": "string",
          "name": "",
          "type": "string"
        }
      ],
      "stateMutability": "view",
      "type": "function",
      "constant": true
    },
    {
      "inputs": [
        {
          "internalType": "string",
          "name": "flightNumber",
          "type": "string"
        },
        {
          "internalType": "uint256",
          "name": "month",
          "type": "uint256"
        },
        {
          "internalType": "uint256",
          "name": "day",
          "type": "uint256"
        }
      ],
      "name": "getPassengerList",
      "outputs": [
        {
          "internalType": "address[]",
          "name": "",
          "type": "address[]"
        }
      ],
      "stateMutability": "view",
      "type": "function",
      "constant": true
    },
    {
      "inputs": [],
      "name": "getTickets",
      "outputs": [
        {
          "internalType": "string",
          "name": "",
          "type": "string"
        }
      ],
      "stateMutability": "view",
      "type": "function",
      "constant": true
    },
    {
      "inputs": [
        {
          "internalType": "uint256",
          "name": "_status",
          "type": "uint256"
        },
        {
          "internalType": "string",
          "name": "flightNumber",
          "type": "string"
        },
        {
          "internalType": "uint256",
          "name": "month",
          "type": "uint256"
        },
        {
          "internalType": "uint256",
          "name": "day",
          "type": "uint256"
        }
      ],
      "name": "changePassengerStatus",
      "outputs": [
        {
          "internalType": "bool",
          "name": "",
          "type": "bool"
        }
      ],
      "stateMutability": "nonpayable",
      "type": "function"
    }
  ],
  "bytecode": "0x60806040523480156200001157600080fd5b50336000806101000a81548173ffffffffffffffffffffffffffffffffffffffff021916908373ffffffffffffffffffffffffffffffffffffffff16021790555060006002600080815260200190815260200160002060006101000a81548160ff021916908360078111156200008357fe5b02179055506001600260006001815260200190815260200160002060006101000a81548160ff02191690836007811115620000ba57fe5b021790555060028060006002815260200190815260200160002060006101000a81548160ff02191690836007811115620000f057fe5b02179055506003600260006003815260200190815260200160002060006101000a81548160ff021916908360078111156200012757fe5b02179055506004600260006004815260200190815260200160002060006101000a81548160ff021916908360078111156200015e57fe5b02179055506005600260006005815260200190815260200160002060006101000a81548160ff021916908360078111156200019557fe5b02179055506006600260006006815260200190815260200160002060006101000a81548160ff02191690836007811115620001cc57fe5b02179055506007600260006007815260200190815260200160002060006101000a81548160ff021916908360078111156200020357fe5b021790555060006003600080815260200190815260200160002060006101000a81548160ff021916908360068111156200023957fe5b02179055506001600360006001815260200190815260200160002060006101000a81548160ff021916908360068111156200027057fe5b02179055506002600360006002815260200190815260200160002060006101000a81548160ff02191690836006811115620002a757fe5b021790555060038060006003815260200190815260200160002060006101000a81548160ff02191690836006811115620002dd57fe5b02179055506004600360006004815260200190815260200160002060006101000a81548160ff021916908360068111156200031457fe5b02179055506005600360006005815260200190815260200160002060006101000a81548160ff021916908360068111156200034b57fe5b021790555061294280620003606000396000f3fe608060405234801561001057600080fd5b506004361061007d5760003560e01c80636725b0621161005b5780636725b062146101005780639450f9bb14610130578063b314ccb814610161578063d22eeacc146101915761007d565b806307115c211461008257806340924173146100b25780634ed02622146100e2575b600080fd5b61009c60048036038101906100979190612256565b6101c1565b6040516100a991906126aa565b60405180910390f35b6100cc60048036038101906100c79190612338565b61039d565b6040516100d99190612666565b60405180910390f35b6100ea6109d3565b6040516100f791906126aa565b60405180910390f35b61011a60048036038101906101159190612256565b610b5a565b6040516101279190612644565b60405180910390f35b61014a600480360381019061014591906122bd565b610ea2565b604051610158929190612681565b60405180910390f35b61017b600480360381019061017691906121af565b611158565b6040516101889190612666565b60405180910390f35b6101ab60048036038101906101a69190612256565b611786565b6040516101b891906126aa565b60405180910390f35b606060008090505b60048054905081101561039457610296600482815481106101e657fe5b90600052602060002090600502016000018054600181600116156101000203166002900480601f01602080910402602001604051908101604052809291908181526020018280546001816001161561010002031660029004801561028b5780601f106102605761010080835404028352916020019161028b565b820191906000526020600020905b81548152906001019060200180831161026e57829003601f168201915b505050505086611afd565b80156102bf575083600482815481106102ab57fe5b906000526020600020906005020160010154145b80156102e8575082600482815481106102d457fe5b906000526020600020906005020160020154145b15610387576000600482815481106102fc57fe5b906000526020600020906005020160040160009054906101000a900460ff16905060008090505b81600781111561032f57fe5b6002600083815260200190815260200160002060009054906101000a900460ff16600781111561035b57fe5b141561037a57606061036c82611b56565b905080945050505050610396565b8080600101915050610323565b80806001019150506101c9565b505b9392505050565b600080600160003373ffffffffffffffffffffffffffffffffffffffff1673ffffffffffffffffffffffffffffffffffffffff1681526020019081526020016000208054905090506060600160003373ffffffffffffffffffffffffffffffffffffffff1673ffffffffffffffffffffffffffffffffffffffff168152602001908152602001600020805480602002602001604051908101604052809291908181526020016000905b8282101561055b5783829060005260206000209060040201604051806080016040529081600082018054600181600116156101000203166002900480601f0160208091040260200160405190810160405280929190818152602001828054600181600116156101000203166002900480156105025780601f106104d757610100808354040283529160200191610502565b820191906000526020600020905b8154815290600101906020018083116104e557829003601f168201915b50505050508152602001600182015481526020016002820160009054906101000a900460ff16600681111561053357fe5b600681111561053e57fe5b815260200160038201548152505081526020019060010190610446565b50505050905060008090505b828110156109c757610646600483838151811061058057fe5b6020026020010151602001518154811061059657fe5b90600052602060002090600502016000018054600181600116156101000203166002900480601f01602080910402602001604051908101604052809291908181526020018280546001816001161561010002031660029004801561063b5780601f106106105761010080835404028352916020019161063b565b820191906000526020600020905b81548152906001019060200180831161061e57829003601f168201915b505050505088611afd565b8015610686575085600483838151811061065c57fe5b6020026020010151602001518154811061067257fe5b906000526020600020906005020160010154145b80156106c6575084600483838151811061069c57fe5b602002602001015160200151815481106106b257fe5b906000526020600020906005020160020154145b156109ba576003600089815260200190815260200160002060009054906101000a900460ff16600160003373ffffffffffffffffffffffffffffffffffffffff1673ffffffffffffffffffffffffffffffffffffffff168152602001908152602001600020828154811061073657fe5b906000526020600020906004020160020160006101000a81548160ff0219169083600681111561076257fe5b02179055506005881415610805577fea2df1906aa0678464bc2a22d5ed1eefedfa34eef24e9db4a75034297414befe33600160003373ffffffffffffffffffffffffffffffffffffffff1673ffffffffffffffffffffffffffffffffffffffff16815260200190815260200160002083815481106107dc57fe5b9060005260206000209060040201600301546040516107fc92919061261b565b60405180910390a15b7f9767e04d71df5800a6ed1a3e76cbdfd62ffa5b6e13c8207ac8235e78dd35f993336004600160003373ffffffffffffffffffffffffffffffffffffffff1673ffffffffffffffffffffffffffffffffffffffff168152602001908152602001600020848154811061087357fe5b9060005260206000209060040201600101548154811061088f57fe5b90600052602060002090600502016000016004600160003373ffffffffffffffffffffffffffffffffffffffff1673ffffffffffffffffffffffffffffffffffffffff16815260200190815260200160002085815481106108ec57fe5b9060005260206000209060040201600101548154811061090857fe5b9060005260206000209060050201600101546004600160003373ffffffffffffffffffffffffffffffffffffffff1673ffffffffffffffffffffffffffffffffffffffff168152602001908152602001600020868154811061096657fe5b9060005260206000209060040201600101548154811061098257fe5b9060005260206000209060050201600201548c6040516109a69594939291906125c1565b60405180910390a1600193505050506109cb565b8080600101915050610567565b5050505b949350505050565b6060610b55600160003373ffffffffffffffffffffffffffffffffffffffff1673ffffffffffffffffffffffffffffffffffffffff168152602001908152602001600020805480602002602001604051908101604052809291908181526020016000905b82821015610b4c5783829060005260206000209060040201604051806080016040529081600082018054600181600116156101000203166002900480601f016020809104026020016040519081016040528092919081815260200182805460018160011615610100020316600290048015610af35780601f10610ac857610100808354040283529160200191610af3565b820191906000526020600020905b815481529060010190602001808311610ad657829003601f168201915b50505050508152602001600182015481526020016002820160009054906101000a900460ff166006811115610b2457fe5b6006811115610b2f57fe5b815260200160038201548152505081526020019060010190610a37565b50505050611d39565b905090565b60606000809054906101000a900473ffffffffffffffffffffffffffffffffffffffff1673ffffffffffffffffffffffffffffffffffffffff163373ffffffffffffffffffffffffffffffffffffffff1614610bb557600080fd5b610bbd611f9a565b60008090505b600480549050811015610e9257610c9060048281548110610be057fe5b90600052602060002090600502016000018054600181600116156101000203166002900480601f016020809104026020016040519081016040528092919081815260200182805460018160011615610100020316600290048015610c855780601f10610c5a57610100808354040283529160200191610c85565b820191906000526020600020905b815481529060010190602001808311610c6857829003601f168201915b505050505087611afd565b8015610cb957508460048281548110610ca557fe5b906000526020600020906005020160010154145b8015610ce257508360048281548110610cce57fe5b906000526020600020906005020160020154145b15610e855760048181548110610cf457fe5b90600052602060002090600502016040518060a0016040529081600082018054600181600116156101000203166002900480601f016020809104026020016040519081016040528092919081815260200182805460018160011615610100020316600290048015610da65780601f10610d7b57610100808354040283529160200191610da6565b820191906000526020600020905b815481529060010190602001808311610d8957829003601f168201915b50505050508152602001600182015481526020016002820154815260200160038201805480602002602001604051908101604052809291908181526020018280548015610e4857602002820191906000526020600020905b8160009054906101000a900473ffffffffffffffffffffffffffffffffffffffff1673ffffffffffffffffffffffffffffffffffffffff1681526020019060010190808311610dfe575b505050505081526020016004820160009054906101000a900460ff166007811115610e6f57fe5b6007811115610e7a57fe5b815250509150610e92565b8080600101915050610bc3565b5080606001519150509392505050565b6000806000809054906101000a900473ffffffffffffffffffffffffffffffffffffffff1673ffffffffffffffffffffffffffffffffffffffff163373ffffffffffffffffffffffffffffffffffffffff1614610efe57600080fd5b60008090505b60048054905081101561114357610fd160048281548110610f2157fe5b90600052602060002090600502016000018054600181600116156101000203166002900480601f016020809104026020016040519081016040528092919081815260200182805460018160011615610100020316600290048015610fc65780601f10610f9b57610100808354040283529160200191610fc6565b820191906000526020600020905b815481529060010190602001808311610fa957829003601f168201915b505050505088611afd565b8015610ffa57508560048281548110610fe657fe5b906000526020600020906005020160010154145b80156110235750846004828154811061100f57fe5b906000526020600020906005020160020154145b15611136576002600085815260200190815260200160002060009054906101000a900460ff166004828154811061105657fe5b906000526020600020906005020160040160006101000a81548160ff0219169083600781111561108257fe5b021790555060018414806110965750600784145b156110e8577f23d934a9b4a24e98d938a9e9c3bfb2ef4113e5e8feed96a962c02582d9b561b7878787876040516110d0949392919061270a565b60405180910390a1600180809050925092505061114f565b7f23d934a9b4a24e98d938a9e9c3bfb2ef4113e5e8feed96a962c02582d9b561b78787878760405161111d949392919061270a565b60405180910390a160016000809050925092505061114f565b8080600101915050610f04565b50600080809050915091505b94509492505050565b600080600090505b6004805490508110156114675761122d6004828154811061117d57fe5b90600052602060002090600502016000018054600181600116156101000203166002900480601f0160208091040260200160405190810160405280929190818152602001828054600181600116156101000203166002900480156112225780601f106111f757610100808354040283529160200191611222565b820191906000526020600020905b81548152906001019060200180831161120557829003601f168201915b505050505087611afd565b80156112565750846004828154811061124257fe5b906000526020600020906005020160010154145b801561127f5750836004828154811061126b57fe5b906000526020600020906005020160020154145b1561145a57600160003373ffffffffffffffffffffffffffffffffffffffff1673ffffffffffffffffffffffffffffffffffffffff16815260200190815260200160002060405180608001604052808981526020018381526020016003600080815260200190815260200160002060009054906101000a900460ff16600681111561130657fe5b81526020018581525090806001815401808255809150506001900390600052602060002090600402016000909190919091506000820151816000019080519060200190611354929190611fd4565b506020820151816001015560408201518160020160006101000a81548160ff0219169083600681111561138357fe5b0217905550606082015181600301555050600481815481106113a157fe5b9060005260206000209060050201600301339080600181540180825580915050600190039060005260206000200160009091909190916101000a81548173ffffffffffffffffffffffffffffffffffffffff021916908373ffffffffffffffffffffffffffffffffffffffff1602179055507fb742dcbc662f4af54968dec292b228644e14fe49906909fae34be3425c688b57338787876040516114489493929190612575565b60405180910390a1600191505061177d565b8080600101915050611160565b50606060046040518060a001604052808881526020018781526020018681526020018381526020016002600080815260200190815260200160002060009054906101000a900460ff1660078111156114bb57fe5b81525090806001815401808255809150506001900390600052602060002090600502016000909190919091506000820151816000019080519060200190611503929190611fd4565b5060208201518160010155604082015181600201556060820151816003019080519060200190611534929190612054565b5060808201518160040160006101000a81548160ff0219169083600781111561155957fe5b0217905550505060046001600480549050038154811061157557fe5b9060005260206000209060050201600301339080600181540180825580915050600190039060005260206000200160009091909190916101000a81548173ffffffffffffffffffffffffffffffffffffffff021916908373ffffffffffffffffffffffffffffffffffffffff160217905550600160003373ffffffffffffffffffffffffffffffffffffffff1673ffffffffffffffffffffffffffffffffffffffff168152602001908152602001600020604051806080016040528089815260200160016004805490500381526020016003600080815260200190815260200160002060009054906101000a900460ff16600681111561167157fe5b815260200185815250908060018154018082558091505060019003906000526020600020906004020160009091909190915060008201518160000190805190602001906116bf929190611fd4565b506020820151816001015560408201518160020160006101000a81548160ff021916908360068111156116ee57fe5b02179055506060820151816003015550507fd48277ab4ff6de1fa4514a9148af108b347890a9b125701d486de18eae914fca868686604051611732939291906126cc565b60405180910390a17fb742dcbc662f4af54968dec292b228644e14fe49906909fae34be3425c688b573387878760405161176f9493929190612575565b60405180910390a160019150505b95945050505050565b60606000600160003373ffffffffffffffffffffffffffffffffffffffff1673ffffffffffffffffffffffffffffffffffffffff168152602001908152602001600020805490509050600080600090505b82811015611a8b576117e7611f9a565b6004600160003373ffffffffffffffffffffffffffffffffffffffff1673ffffffffffffffffffffffffffffffffffffffff168152602001908152602001600020838154811061183357fe5b9060005260206000209060040201600101548154811061184f57fe5b90600052602060002090600502016040518060a0016040529081600082018054600181600116156101000203166002900480601f0160208091040260200160405190810160405280929190818152602001828054600181600116156101000203166002900480156119015780601f106118d657610100808354040283529160200191611901565b820191906000526020600020905b8154815290600101906020018083116118e457829003601f168201915b505050505081526020016001820154815260200160028201548152602001600382018054806020026020016040519081016040528092919081815260200182805480156119a357602002820191906000526020600020905b8160009054906101000a900473ffffffffffffffffffffffffffffffffffffffff1673ffffffffffffffffffffffffffffffffffffffff1681526020019060010190808311611959575b505050505081526020016004820160009054906101000a900460ff1660078111156119ca57fe5b60078111156119d557fe5b8152505090506119e9888260000151611afd565b80156119f85750806020015187145b8015611a075750806040015186145b15611a7d57600160003373ffffffffffffffffffffffffffffffffffffffff1673ffffffffffffffffffffffffffffffffffffffff1681526020019081526020016000208281548110611a5657fe5b906000526020600020906004020160020160009054906101000a900460ff16925050611a8b565b5080806001019150506117d7565b5060008090505b816006811115611a9e57fe5b6003600083815260200190815260200160002060009054906101000a900460ff166006811115611aca57fe5b1415611ae9576060611adb82611b56565b905080945050505050611af6565b8080600101915050611a92565b9392505050565b600081604051602001611b10919061255e565b6040516020818303038152906040528051906020012083604051602001611b37919061255e565b6040516020818303038152906040528051906020012014905092915050565b60606000821415611b9e576040518060400160405280600181526020017f30000000000000000000000000000000000000000000000000000000000000008152509050611d34565b60006064905060608167ffffffffffffffff81118015611bbd57600080fd5b506040519080825280601f01601f191660200182016040528015611bf05781602001600182028036833780820191505090505b50905060008090505b60008514611c6b576000600a8681611c0d57fe5b069050600a8681611c1a57fe5b0495508060300160f81b838380600101945081518110611c3657fe5b60200101907effffffffffffffffffffffffffffffffffffffffffffffffffffffffffffff1916908160001a90535050611bf9565b60606001820167ffffffffffffffff81118015611c8757600080fd5b506040519080825280601f01601f191660200182016040528015611cba5781602001600182028036833780820191505090505b50905060008090505b828111611d2b578381840381518110611cd857fe5b602001015160f81c60f81b828281518110611cef57fe5b60200101907effffffffffffffffffffffffffffffffffffffffffffffffffffffffffffff1916908160001a9053508080600101915050611cc3565b50809450505050505b919050565b606060008251905060008090506001821415611d715783600081518110611d5c57fe5b60200260200101516000015192505050611f95565b60606040518060400160405280600181526020017f5f000000000000000000000000000000000000000000000000000000000000008152509050606081905060008090505b84811015611e00576060878281518110611dcc57fe5b602002602001015160000151905080518501945060018603821015611df2578251850194505b508080600101915050611db6565b5060608367ffffffffffffffff81118015611e1a57600080fd5b506040519080825280601f01601f191660200182016040528015611e4d5781602001600182028036833780820191505090505b5090506060819050600080905060008090505b8951811015611f895760608a8281518110611e7757fe5b602002602001015160000151905060008090505b8151811015611ef957818181518110611ea057fe5b602001015160f81c60f81b858580600101965081518110611ebd57fe5b60200101907effffffffffffffffffffffffffffffffffffffffffffffffffffffffffffff1916908160001a9053508080600101915050611e8b565b5060018903821015611f7b5760008090505b8651811015611f7957868181518110611f2057fe5b602001015160f81c60f81b858580600101965081518110611f3d57fe5b60200101907effffffffffffffffffffffffffffffffffffffffffffffffffffffffffffff1916908160001a9053508080600101915050611f0b565b505b508080600101915050611e60565b50819750505050505050505b919050565b6040518060a001604052806060815260200160008152602001600081526020016060815260200160006007811115611fce57fe5b81525090565b828054600181600116156101000203166002900490600052602060002090601f016020900481019282601f1061201557805160ff1916838001178555612043565b82800160010185558215612043579182015b82811115612042578251825591602001919060010190612027565b5b50905061205091906120de565b5090565b8280548282559060005260206000209081019282156120cd579160200282015b828111156120cc5782518260006101000a81548173ffffffffffffffffffffffffffffffffffffffff021916908373ffffffffffffffffffffffffffffffffffffffff16021790555091602001919060010190612074565b5b5090506120da9190612103565b5090565b61210091905b808211156120fc5760008160009055506001016120e4565b5090565b90565b61214391905b8082111561213f57600081816101000a81549073ffffffffffffffffffffffffffffffffffffffff021916905550600101612109565b5090565b90565b600082601f83011261215757600080fd5b813561216a61216582612783565b612756565b9150808252602083016020830185838301111561218657600080fd5b6121918382846128a2565b50505092915050565b6000813590506121a9816128f5565b92915050565b600080600080600060a086880312156121c757600080fd5b600086013567ffffffffffffffff8111156121e157600080fd5b6121ed88828901612146565b955050602086013567ffffffffffffffff81111561220a57600080fd5b61221688828901612146565b94505060406122278882890161219a565b93505060606122388882890161219a565b92505060806122498882890161219a565b9150509295509295909350565b60008060006060848603121561226b57600080fd5b600084013567ffffffffffffffff81111561228557600080fd5b61229186828701612146565b93505060206122a28682870161219a565b92505060406122b38682870161219a565b9150509250925092565b600080600080608085870312156122d357600080fd5b600085013567ffffffffffffffff8111156122ed57600080fd5b6122f987828801612146565b945050602061230a8782880161219a565b935050604061231b8782880161219a565b925050606061232c8782880161219a565b91505092959194509250565b6000806000806080858703121561234e57600080fd5b600061235c8782880161219a565b945050602085013567ffffffffffffffff81111561237957600080fd5b61238587828801612146565b93505060406123968782880161219a565b92505060606123a78782880161219a565b91505092959194509250565b60006123bf83836123da565b60208301905092915050565b6123d48161286c565b82525050565b6123e381612824565b82525050565b60006123f4826127d4565b6123fe81856127f7565b9350612409836127af565b8060005b8381101561243a57815161242188826123b3565b975061242c836127ea565b92505060018101905061240d565b5085935050505092915050565b61245081612836565b82525050565b6000612461826127df565b61246b8185612808565b935061247b8185602086016128b1565b612484816128e4565b840191505092915050565b600061249a826127df565b6124a48185612819565b93506124b48185602086016128b1565b80840191505092915050565b6000815460018116600081146124dd576001811461250357612547565b607f60028304166124ee8187612808565b955060ff198316865260208601935050612547565b600282046125118187612808565b955061251c856127bf565b60005b8281101561253e5781548189015260018201915060208101905061251f565b80880195505050505b505092915050565b61255881612862565b82525050565b600061256a828461248f565b915081905092915050565b600060808201905061258a60008301876123cb565b818103602083015261259c8186612456565b90506125ab604083018561254f565b6125b8606083018461254f565b95945050505050565b600060a0820190506125d660008301886123cb565b81810360208301526125e881876124c0565b90506125f7604083018661254f565b612604606083018561254f565b612611608083018461254f565b9695505050505050565b600060408201905061263060008301856123cb565b61263d602083018461254f565b9392505050565b6000602082019050818103600083015261265e81846123e9565b905092915050565b600060208201905061267b6000830184612447565b92915050565b60006040820190506126966000830185612447565b6126a3602083018461254f565b9392505050565b600060208201905081810360008301526126c48184612456565b905092915050565b600060608201905081810360008301526126e68186612456565b90506126f5602083018561254f565b612702604083018461254f565b949350505050565b600060808201905081810360008301526127248187612456565b9050612733602083018661254f565b612740604083018561254f565b61274d606083018461254f565b95945050505050565b6000604051905081810181811067ffffffffffffffff8211171561277957600080fd5b8060405250919050565b600067ffffffffffffffff82111561279a57600080fd5b601f19601f8301169050602081019050919050565b6000819050602082019050919050565b60008190508160005260206000209050919050565b600081519050919050565b600081519050919050565b6000602082019050919050565b600082825260208201905092915050565b600082825260208201905092915050565b600081905092915050565b600061282f82612842565b9050919050565b60008115159050919050565b600073ffffffffffffffffffffffffffffffffffffffff82169050919050565b6000819050919050565b60006128778261287e565b9050919050565b600061288982612890565b9050919050565b600061289b82612842565b9050919050565b82818337600083830152505050565b60005b838110156128cf5780820151818401526020810190506128b4565b838111156128de576000848401525b50505050565b6000601f19601f8301169050919050565b6128fe81612862565b811461290957600080fd5b5056fea2646970667358221220e9cfe35aa08cca2ec67a8ab335b447700018659cc9007ab1b224eef20088741764736f6c63430006070033",
  "source": "// SPDX-License-Identifier: MIT\npragma solidity >=0.6.7;\npragma experimental ABIEncoderV2;\n\n/**\n*   @author Deniz Durak\n */\n\n\n/**\n*   @dev this is a try to abstract the PSS of airlines in real world\n*   all functions of this contract are only called if the payments, inside \n*   FlightToken contract, are completed.\n*   \n*   in case of following refund to the customer, this contract reports to customer\n*   the client automatically reports this to the FlightToken contract. This contract then\n*   refunds if granted\n*\n */\n\ncontract PassSystemContract {\n\n    address owner; // owner is the airline\n    mapping(address => FlightTicket[]) ticketBase; // one cust can book many tickets\n    mapping(uint => FlightStatus) flightStatusMap;\n    mapping(uint => PassengerStatus) passStatusMap;\n    Flight[] flights;\n\n    enum FlightStatus {\n        PLANNED, CANCELLED, CHECKIN, BOARDING, DEP_ON_TIME, ARR_ON_TIME, DEP_DELAYED, ARR_DELAYED\n    }\n\n    enum PassengerStatus {\n        BOOKED, CHECKEDIN, BOARDED, DEPARTED, ARRIVED, CANCELLED, OVERBOOKED\n    }\n\n    constructor() public {\n        owner = msg.sender;\n\n        flightStatusMap[0] = FlightStatus.PLANNED;\n        flightStatusMap[1] = FlightStatus.CANCELLED;\n        flightStatusMap[2] = FlightStatus.CHECKIN;\n        flightStatusMap[3] = FlightStatus.BOARDING;\n        flightStatusMap[4] = FlightStatus.DEP_ON_TIME;\n        flightStatusMap[5] = FlightStatus.ARR_ON_TIME;\n        flightStatusMap[6] = FlightStatus.DEP_DELAYED;\n        flightStatusMap[7] = FlightStatus.ARR_DELAYED;\n\n        passStatusMap[0] = PassengerStatus.BOOKED;\n        passStatusMap[1] = PassengerStatus.CHECKEDIN;\n        passStatusMap[2] = PassengerStatus.BOARDED;\n        passStatusMap[3] = PassengerStatus.DEPARTED;\n        passStatusMap[4] = PassengerStatus.ARRIVED;\n        passStatusMap[5] = PassengerStatus.CANCELLED; // from airline or passenger\n    }\n\n    struct FlightTicket {\n        string cid; // ipfs hash to json ticket data\n        uint flightIndex; // points to a struct flight\n        PassengerStatus pStatus;\n        uint256 price; // price in wei\n    }\n\n    struct Flight {\n        string flightNumber;\n        uint month;\n        uint day;  // day + month + flightNumber important for status change\n        address[] passengerList;\n        FlightStatus fStatus;\n    }\n\n\n    function createTicket\n    (\n        string memory cid, // pointer to ticket data\n        string memory flightNumber,\n        uint month,\n        uint day,\n        uint256 price\n    ) \n    public\n    returns (bool)\n    {\n\n        // check if flight exists\n\n        for(uint ind = 0; ind<flights.length; ind++) {\n            if(compareStrings(flights[ind].flightNumber, flightNumber) && flights[ind].month == month && flights[ind].day == day) {\n                ticketBase[msg.sender].push(FlightTicket(cid, ind, passStatusMap[0], price));\n                flights[ind].passengerList.push(msg.sender); \n                emit TicketIssued(msg.sender, flightNumber, month, day);\n                return true; // ticket isssued\n            }\n        }\n        \n        address[] memory passengerList;\n        \n        flights.push(Flight(flightNumber, month, day, passengerList, flightStatusMap[0])); // create new flight\n        flights[flights.length-1].passengerList.push(msg.sender); // push msg.sender into passengerList\n        \n        ticketBase[msg.sender].push(FlightTicket(cid, flights.length-1, passStatusMap[0], price)); // create ticket\n        \n        emit FlightCreated(flightNumber, month, day);\n        emit TicketIssued(msg.sender, flightNumber, month, day);\n        \n        return true; // ticket issued\n    }\n\n\n    //changes the status of the flight -- TODO: check if any passengerstatus changes are necessary\n    function changeFlightStatus\n    (\n        string memory flightNumber, uint month, uint day, uint _status\n    ) \n    public isAirline() returns (bool, uint)\n    {\n        for(uint ind =0; ind<flights.length; ind++) {\n            if(compareStrings(flights[ind].flightNumber, flightNumber) && flights[ind].month == month && flights[ind].day == day) {\n                flights[ind].fStatus = flightStatusMap[_status];\n                if(_status == 1 || _status == 7) {\n                    emit FlightStatusChanged(flightNumber, month, day, _status);\n                    return (true, 1); // true - status change done; 1 - status cancelled or arr_delay --> check for refund\n                }\n                emit FlightStatusChanged(flightNumber, month, day, _status);\n                return (true, 0);\n            }\n        }\n        return (false, 0);\n    }\n\n\n    // get flight status\n    function getFlightStatus(\n        string memory flightNumber, uint month, uint day\n    ) public view returns(string memory) \n    {\n        for(uint ind =0; ind<flights.length; ind++) {\n            if(compareStrings(flights[ind].flightNumber, flightNumber) && flights[ind].month == month && flights[ind].day == day) {\n                FlightStatus status = flights[ind].fStatus;\n\n                for(uint j = 0; ; j++) {\n                    if(flightStatusMap[j] == status) {\n                        string memory s = uintToString(j);\n                        return s;\n                    }\n                }\n            }\n        }\n    }\n\n    function getPassengerStatus(string memory flightNumber, uint month, uint day) public view returns(string memory) \n    {\n        uint len = ticketBase[msg.sender].length;\n        PassengerStatus stat;\n\n        for(uint i = 0; i<len; i++) {\n            Flight memory fl = flights[ticketBase[msg.sender][i].flightIndex];\n            if(compareStrings(flightNumber, fl.flightNumber) \n                && month == fl.month \n                && day == fl.day){\n                stat = ticketBase[msg.sender][i].pStatus;\n                break;\n            }\n        }\n        for(uint j = 0; ; j++) {\n            if(passStatusMap[j] == stat) {\n                string memory s = uintToString(j);\n                return s;\n            }\n        }\n    }\n\n    // get PassengerList - to do the refund\n    function getPassengerList(string memory flightNumber, uint month, uint day) \n    public view isAirline() returns(address[] memory) {\n        Flight memory buf;\n\n        for(uint i = 0; i<flights.length; i++) {\n            if(compareStrings(flights[i].flightNumber, flightNumber) && flights[i].month == month && flights[i].day == day) {\n                buf = flights[i];\n                break;\n            }\n        }\n\n        return buf.passengerList;\n    }\n\n\n    // get ticket cids to fetch details about in frontend\n    function getTickets() public view returns (string memory) {\n        return(concatStrings(ticketBase[msg.sender]));\n    }\n\n\n    // change passenger status\n    function changePassengerStatus(\n        uint _status, string memory flightNumber, uint month, uint day\n    ) public returns (bool) \n    {\n        uint len = ticketBase[msg.sender].length;\n        FlightTicket[] memory mFlights = ticketBase[msg.sender];\n\n        for(uint i = 0; i<len; i++) {\n            if(compareStrings(flights[mFlights[i].flightIndex].flightNumber, flightNumber) \n                && flights[mFlights[i].flightIndex].month == month\n                && flights[mFlights[i].flightIndex].day == day)\n            {\n                ticketBase[msg.sender][i].pStatus = passStatusMap[_status];\n                \n                if(_status == 5) {\n                    emit TicketCancelled(msg.sender, ticketBase[msg.sender][i].price); // AirlineOracle listens to and sends back the money\n                }\n\n                emit PassengerStatusChanged(msg.sender, flights[ticketBase[msg.sender][i].flightIndex].flightNumber, \n                                            flights[ticketBase[msg.sender][i].flightIndex].month, flights[ticketBase[msg.sender][i].flightIndex].day, _status);\n                return true;\n            }\n        }\n    }\n\n\n    /**\n    * @dev concat all cids with underline between each one\n    */\n    function concatStrings(FlightTicket[] memory tickets) private pure\n    returns(string memory)\n    {\n        uint length = tickets.length;\n        uint strLength = 0;\n\n        if(length == 1) { return(tickets[0].cid); }\n            \n        else {\n            string memory differ = \"_\";\n            bytes memory bDiffer = bytes(differ);\n            // get count of bytes\n            for(uint ind = 0; ind < length; ind++) \n            {\n                bytes memory buf = bytes(tickets[ind].cid);\n                strLength += buf.length;\n                if(ind < (length-1)) \n                {\n                    strLength += bDiffer.length;\n                }\n            }\n                \n            string memory bufStr = new string(strLength);\n            bytes memory concatBytes = bytes(bufStr);\n\n            uint indK = 0;\n            for(uint ind = 0; ind < tickets.length; ind++)\n            {\n                bytes memory tt = bytes(tickets[ind].cid);\n                for(uint indJ = 0; indJ<tt.length; indJ++) \n                {\n                    concatBytes[indK++] = tt[indJ];\n                }\n\n                if(ind < (length-1)) \n                {\n                    for(uint indDiffer = 0; indDiffer < bDiffer.length; indDiffer++)\n                    {\n                        concatBytes[indK++] = bDiffer[indDiffer];\n                    }\n                }\n            }\n                \n            return(string(concatBytes));\n        }\n    }\n        \n\n    /**\n    * @dev compares cmp1 & cmp2\n    */\n\n    function compareStrings\n    (\n        string memory cmp1,\n        string memory cmp2\n    )\n    private\n    pure\n    returns(bool)\n    {\n        return (keccak256(abi.encodePacked((cmp1))) == keccak256(abi.encodePacked((cmp2))));\n    }\n\n    function uintToString(uint v) internal pure returns (string memory str) {\n\n            if(v == 0) {\n                return \"0\";\n            }\n\n            uint maxlength = 100;\n            bytes memory reversed = new bytes(maxlength);\n            uint i = 0;\n            while (v != 0) {\n                uint remainder = v % 10;\n                v = v / 10;\n                reversed[i++] = byte(uint8(48 + remainder));\n            }\n            bytes memory s = new bytes(i + 1);\n            for (uint j = 0; j <= i; j++) {\n                s[j] = reversed[i - j];\n            }\n            str = string(s);\n        }\n\n\n    modifier isAirline() {\n        require(msg.sender == owner);\n        _;\n    }\n\n    event TicketIssued(address customer, string flightNumber, uint month, uint day);\n    event TicketCancelled(address customer, uint price);\n    event FlightCreated(string flightNumber, uint month, uint day);\n    event FlightStatusChanged(string flightNumber, uint month, uint day, uint status);\n    event PassengerStatusChanged(address customer, string flightNumber, uint month, uint day, uint status);\n}\n",
  "sourcePath": "/home/dubka/Documents/BachelorThesis/bin/smart_contracts/contracts/PassSystemContract.sol",
  "compiler": {
    "name": "solc",
    "version": "0.6.7+commit.b8d736ae.Emscripten.clang"
  },
  "schemaVersion": "3.0.23",
  "updatedAt": "2020-11-24T21:01:17.928Z",
  "networkType": "ethereum",
  "devdoc": {
    "details": "this is a try to abstract the PSS of airlines in real world  all functions of this contract are only called if the payments, inside   FlightToken contract, are completed.    in case of following refund to the customer, this contract reports to customer  the client automatically reports this to the FlightToken contract. This contract then  refunds if granted ",
    "methods": {}
  },
  "userdoc": {
    "methods": {}
  }
}