{
  "contractName": "passengerContract",
  "abi": [
    {
      "inputs": [],
      "stateMutability": "nonpayable",
      "type": "constructor"
    },
    {
      "anonymous": false,
      "inputs": [
        {
          "indexed": false,
          "internalType": "string",
          "name": "flightNumber",
          "type": "string"
        },
        {
          "indexed": false,
          "internalType": "uint256",
          "name": "month",
          "type": "uint256"
        },
        {
          "indexed": false,
          "internalType": "uint256",
          "name": "day",
          "type": "uint256"
        }
      ],
      "name": "FlightCreated",
      "type": "event"
    },
    {
      "anonymous": false,
      "inputs": [
        {
          "indexed": false,
          "internalType": "string",
          "name": "flightNumber",
          "type": "string"
        },
        {
          "indexed": false,
          "internalType": "uint256",
          "name": "month",
          "type": "uint256"
        },
        {
          "indexed": false,
          "internalType": "uint256",
          "name": "day",
          "type": "uint256"
        },
        {
          "indexed": false,
          "internalType": "uint256",
          "name": "status",
          "type": "uint256"
        }
      ],
      "name": "FlightStatusChanged",
      "type": "event"
    },
    {
      "anonymous": false,
      "inputs": [
        {
          "indexed": false,
          "internalType": "address",
          "name": "customer",
          "type": "address"
        },
        {
          "indexed": false,
          "internalType": "string",
          "name": "flightNumber",
          "type": "string"
        },
        {
          "indexed": false,
          "internalType": "uint256",
          "name": "month",
          "type": "uint256"
        },
        {
          "indexed": false,
          "internalType": "uint256",
          "name": "day",
          "type": "uint256"
        },
        {
          "indexed": false,
          "internalType": "uint256",
          "name": "status",
          "type": "uint256"
        }
      ],
      "name": "PassengerStatusChanged",
      "type": "event"
    },
    {
      "anonymous": false,
      "inputs": [
        {
          "indexed": false,
          "internalType": "address",
          "name": "customer",
          "type": "address"
        },
        {
          "indexed": false,
          "internalType": "string",
          "name": "flightNumber",
          "type": "string"
        },
        {
          "indexed": false,
          "internalType": "uint256",
          "name": "month",
          "type": "uint256"
        },
        {
          "indexed": false,
          "internalType": "uint256",
          "name": "day",
          "type": "uint256"
        }
      ],
      "name": "TicketIssued",
      "type": "event"
    },
    {
      "inputs": [
        {
          "internalType": "string",
          "name": "cid",
          "type": "string"
        },
        {
          "internalType": "string",
          "name": "flightNumber",
          "type": "string"
        },
        {
          "internalType": "uint256",
          "name": "month",
          "type": "uint256"
        },
        {
          "internalType": "uint256",
          "name": "day",
          "type": "uint256"
        },
        {
          "internalType": "uint256",
          "name": "price",
          "type": "uint256"
        }
      ],
      "name": "createTicket",
      "outputs": [
        {
          "internalType": "bool",
          "name": "",
          "type": "bool"
        }
      ],
      "stateMutability": "nonpayable",
      "type": "function"
    },
    {
      "inputs": [
        {
          "internalType": "string",
          "name": "flightNumber",
          "type": "string"
        },
        {
          "internalType": "uint256",
          "name": "month",
          "type": "uint256"
        },
        {
          "internalType": "uint256",
          "name": "day",
          "type": "uint256"
        },
        {
          "internalType": "uint256",
          "name": "_status",
          "type": "uint256"
        }
      ],
      "name": "changeFlightStatus",
      "outputs": [
        {
          "internalType": "bool",
          "name": "",
          "type": "bool"
        },
        {
          "internalType": "uint256",
          "name": "",
          "type": "uint256"
        }
      ],
      "stateMutability": "nonpayable",
      "type": "function"
    },
    {
      "inputs": [
        {
          "internalType": "string",
          "name": "flightNumber",
          "type": "string"
        },
        {
          "internalType": "uint256",
          "name": "month",
          "type": "uint256"
        },
        {
          "internalType": "uint256",
          "name": "day",
          "type": "uint256"
        }
      ],
      "name": "getPassengerList",
      "outputs": [
        {
          "internalType": "address[]",
          "name": "",
          "type": "address[]"
        }
      ],
      "stateMutability": "view",
      "type": "function"
    },
    {
      "inputs": [],
      "name": "getTickets",
      "outputs": [
        {
          "internalType": "string",
          "name": "",
          "type": "string"
        }
      ],
      "stateMutability": "view",
      "type": "function"
    },
    {
      "inputs": [
        {
          "internalType": "uint256",
          "name": "_status",
          "type": "uint256"
        },
        {
          "internalType": "string",
          "name": "flightNumber",
          "type": "string"
        }
      ],
      "name": "changePassengerStatus",
      "outputs": [
        {
          "internalType": "bool",
          "name": "",
          "type": "bool"
        }
      ],
      "stateMutability": "nonpayable",
      "type": "function"
    }
  ],
  "bytecode": "0x60806040523480156200001157600080fd5b50336000806101000a81548173ffffffffffffffffffffffffffffffffffffffff021916908373ffffffffffffffffffffffffffffffffffffffff16021790555060006002600080815260200190815260200160002060006101000a81548160ff021916908360078111156200008357fe5b02179055506001600260006001815260200190815260200160002060006101000a81548160ff02191690836007811115620000ba57fe5b021790555060028060006002815260200190815260200160002060006101000a81548160ff02191690836007811115620000f057fe5b02179055506003600260006003815260200190815260200160002060006101000a81548160ff021916908360078111156200012757fe5b02179055506004600260006004815260200190815260200160002060006101000a81548160ff021916908360078111156200015e57fe5b02179055506005600260006005815260200190815260200160002060006101000a81548160ff021916908360078111156200019557fe5b02179055506006600260006006815260200190815260200160002060006101000a81548160ff02191690836007811115620001cc57fe5b02179055506007600260006007815260200190815260200160002060006101000a81548160ff021916908360078111156200020357fe5b021790555060006003600080815260200190815260200160002060006101000a81548160ff021916908360068111156200023957fe5b02179055506001600360006001815260200190815260200160002060006101000a81548160ff021916908360068111156200027057fe5b02179055506002600360006002815260200190815260200160002060006101000a81548160ff02191690836006811115620002a757fe5b021790555060038060006003815260200190815260200160002060006101000a81548160ff02191690836006811115620002dd57fe5b02179055506004600360006004815260200190815260200160002060006101000a81548160ff021916908360068111156200031457fe5b02179055506005600360006005815260200190815260200160002060006101000a81548160ff021916908360068111156200034b57fe5b02179055506006600360006006815260200190815260200160002060006101000a81548160ff021916908360068111156200038257fe5b021790555061208480620003976000396000f3fe608060405234801561001057600080fd5b50600436106100575760003560e01c80634ed026221461005c57806356418bbe146100df5780636725b062146101bc5780639450f9bb146102e0578063b314ccb8146103d8575b600080fd5b610064610560565b6040518080602001828103825283818151815260200191508051906020019080838360005b838110156100a4578082015181840152602081019050610089565b50505050905090810190601f1680156100d15780820380516001836020036101000a031916815260200191505b509250505060405180910390f35b6101a2600480360360408110156100f557600080fd5b81019080803590602001909291908035906020019064010000000081111561011c57600080fd5b82018360208201111561012e57600080fd5b8035906020019184600183028401116401000000008311171561015057600080fd5b91908080601f016020809104026020016040519081016040528093929190818152602001838380828437600081840152601f19601f8201169050808301925050505050505091929192905050506106e7565b604051808215151515815260200191505060405180910390f35b610289600480360360608110156101d257600080fd5b81019080803590602001906401000000008111156101ef57600080fd5b82018360208201111561020157600080fd5b8035906020019184600183028401116401000000008311171561022357600080fd5b91908080601f016020809104026020016040519081016040528093929190818152602001838380828437600081840152601f19601f8201169050808301925050505050505091929192908035906020019092919080359060200190929190505050610cda565b6040518080602001828103825283818151815260200191508051906020019060200280838360005b838110156102cc5780820151818401526020810190506102b1565b505050509050019250505060405180910390f35b6103b7600480360360808110156102f657600080fd5b810190808035906020019064010000000081111561031357600080fd5b82018360208201111561032557600080fd5b8035906020019184600183028401116401000000008311171561034757600080fd5b91908080601f016020809104026020016040519081016040528093929190818152602001838380828437600081840152601f19601f820116905080830192505050505050509192919290803590602001909291908035906020019092919080359060200190929190505050610fc9565b60405180831515151581526020018281526020019250505060405180910390f35b610546600480360360a08110156103ee57600080fd5b810190808035906020019064010000000081111561040b57600080fd5b82018360208201111561041d57600080fd5b8035906020019184600183028401116401000000008311171561043f57600080fd5b91908080601f016020809104026020016040519081016040528093929190818152602001838380828437600081840152601f19601f820116905080830192505050505050509192919290803590602001906401000000008111156104a257600080fd5b8201836020820111156104b457600080fd5b803590602001918460018302840111640100000000831117156104d657600080fd5b91908080601f016020809104026020016040519081016040528093929190818152602001838380828437600081840152601f19601f82011690508083019250505050505050919291929080359060200190929190803590602001909291908035906020019092919050505061136d565b604051808215151515815260200191505060405180910390f35b60606106e2600160003373ffffffffffffffffffffffffffffffffffffffff1673ffffffffffffffffffffffffffffffffffffffff168152602001908152602001600020805480602002602001604051908101604052809291908181526020016000905b828210156106d95783829060005260206000209060040201604051806080016040529081600082018054600181600116156101000203166002900480601f0160208091040260200160405190810160405280929190818152602001828054600181600116156101000203166002900480156106805780601f1061065557610100808354040283529160200191610680565b820191906000526020600020905b81548152906001019060200180831161066357829003601f168201915b50505050508152602001600182015481526020016002820160009054906101000a900460ff1660068111156106b157fe5b60068111156106bc57fe5b8152602001600382015481525050815260200190600101906105c4565b50505050611b52565b905090565b60006060600160003373ffffffffffffffffffffffffffffffffffffffff1673ffffffffffffffffffffffffffffffffffffffff168152602001908152602001600020805480602002602001604051908101604052809291908181526020016000905b8282101561085f5783829060005260206000209060040201604051806080016040529081600082018054600181600116156101000203166002900480601f0160208091040260200160405190810160405280929190818152602001828054600181600116156101000203166002900480156108065780601f106107db57610100808354040283529160200191610806565b820191906000526020600020905b8154815290600101906020018083116107e957829003601f168201915b50505050508152602001600182015481526020016002820160009054906101000a900460ff16600681111561083757fe5b600681111561084257fe5b81526020016003820154815250508152602001906001019061074a565b505050509050600181511415610a23576003600085815260200190815260200160002060009054906101000a900460ff168160008151811061089d57fe5b60200260200101516040019060068111156108b457fe5b908160068111156108c157fe5b815250507f9767e04d71df5800a6ed1a3e76cbdfd62ffa5b6e13c8207ac8235e78dd35f99333846004846000815181106108f757fe5b6020026020010151602001518154811061090d57fe5b90600052602060002090600502016001015460048560008151811061092e57fe5b6020026020010151602001518154811061094457fe5b90600052602060002090600502016002015488604051808673ffffffffffffffffffffffffffffffffffffffff1673ffffffffffffffffffffffffffffffffffffffff16815260200180602001858152602001848152602001838152602001828103825286818151815260200191508051906020019080838360005b838110156109db5780820151818401526020810190506109c0565b50505050905090810190601f168015610a085780820380516001836020036101000a031916815260200191505b50965050505050505060405180910390a16001915050610cd4565b60008090505b8151811015610ccd57610b096004838381518110610a4357fe5b60200260200101516020015181548110610a5957fe5b90600052602060002090600502016000018054600181600116156101000203166002900480601f016020809104026020016040519081016040528092919081815260200182805460018160011615610100020316600290048015610afe5780601f10610ad357610100808354040283529160200191610afe565b820191906000526020600020905b815481529060010190602001808311610ae157829003601f168201915b505050505085611db3565b15610cc0576003600086815260200190815260200160002060009054906101000a900460ff16828281518110610b3b57fe5b6020026020010151604001906006811115610b5257fe5b90816006811115610b5f57fe5b815250507f9767e04d71df5800a6ed1a3e76cbdfd62ffa5b6e13c8207ac8235e78dd35f99333856004858581518110610b9457fe5b60200260200101516020015181548110610baa57fe5b9060005260206000209060050201600101546004868681518110610bca57fe5b60200260200101516020015181548110610be057fe5b90600052602060002090600502016002015489604051808673ffffffffffffffffffffffffffffffffffffffff1673ffffffffffffffffffffffffffffffffffffffff16815260200180602001858152602001848152602001838152602001828103825286818151815260200191508051906020019080838360005b83811015610c77578082015181840152602081019050610c5c565b50505050905090810190601f168015610ca45780820380516001836020036101000a031916815260200191505b50965050505050505060405180910390a1600192505050610cd4565b8080600101915050610a29565b5060009150505b92915050565b6060610ce4611ea2565b60008090505b600480549050811015610fb957610db760048281548110610d0757fe5b90600052602060002090600502016000018054600181600116156101000203166002900480601f016020809104026020016040519081016040528092919081815260200182805460018160011615610100020316600290048015610dac5780601f10610d8157610100808354040283529160200191610dac565b820191906000526020600020905b815481529060010190602001808311610d8f57829003601f168201915b505050505087611db3565b8015610de057508460048281548110610dcc57fe5b906000526020600020906005020160010154145b8015610e0957508360048281548110610df557fe5b906000526020600020906005020160020154145b15610fac5760048181548110610e1b57fe5b90600052602060002090600502016040518060a0016040529081600082018054600181600116156101000203166002900480601f016020809104026020016040519081016040528092919081815260200182805460018160011615610100020316600290048015610ecd5780601f10610ea257610100808354040283529160200191610ecd565b820191906000526020600020905b815481529060010190602001808311610eb057829003601f168201915b50505050508152602001600182015481526020016002820154815260200160038201805480602002602001604051908101604052809291908181526020018280548015610f6f57602002820191906000526020600020905b8160009054906101000a900473ffffffffffffffffffffffffffffffffffffffff1673ffffffffffffffffffffffffffffffffffffffff1681526020019060010190808311610f25575b505050505081526020016004820160009054906101000a900460ff166007811115610f9657fe5b6007811115610fa157fe5b815250509150610fb9565b8080600101915050610cea565b5080606001519150509392505050565b6000806000809054906101000a900473ffffffffffffffffffffffffffffffffffffffff1673ffffffffffffffffffffffffffffffffffffffff163373ffffffffffffffffffffffffffffffffffffffff161461102557600080fd5b60008090505b600480549050811015611358576110f86004828154811061104857fe5b90600052602060002090600502016000018054600181600116156101000203166002900480601f0160208091040260200160405190810160405280929190818152602001828054600181600116156101000203166002900480156110ed5780601f106110c2576101008083540402835291602001916110ed565b820191906000526020600020905b8154815290600101906020018083116110d057829003601f168201915b505050505088611db3565b80156111215750856004828154811061110d57fe5b906000526020600020906005020160010154145b801561114a5750846004828154811061113657fe5b906000526020600020906005020160020154145b1561134b576002600085815260200190815260200160002060009054906101000a900460ff166004828154811061117d57fe5b906000526020600020906005020160040160006101000a81548160ff021916908360078111156111a957fe5b021790555060018414806111bd5750600784145b15611286577f23d934a9b4a24e98d938a9e9c3bfb2ef4113e5e8feed96a962c02582d9b561b7878787876040518080602001858152602001848152602001838152602001828103825286818151815260200191508051906020019080838360005b8381101561123957808201518184015260208101905061121e565b50505050905090810190601f1680156112665780820380516001836020036101000a031916815260200191505b509550505050505060405180910390a16001808090509250925050611364565b7f23d934a9b4a24e98d938a9e9c3bfb2ef4113e5e8feed96a962c02582d9b561b7878787876040518080602001858152602001848152602001838152602001828103825286818151815260200191508051906020019080838360005b838110156112fd5780820151818401526020810190506112e2565b50505050905090810190601f16801561132a5780820380516001836020036101000a031916815260200191505b509550505050505060405180910390a1600160008090509250925050611364565b808060010191505061102b565b50600080809050915091505b94509492505050565b600080600090505b60048054905081101561171f576114426004828154811061139257fe5b90600052602060002090600502016000018054600181600116156101000203166002900480601f0160208091040260200160405190810160405280929190818152602001828054600181600116156101000203166002900480156114375780601f1061140c57610100808354040283529160200191611437565b820191906000526020600020905b81548152906001019060200180831161141a57829003601f168201915b505050505087611db3565b801561146b5750846004828154811061145757fe5b906000526020600020906005020160010154145b80156114945750836004828154811061148057fe5b906000526020600020906005020160020154145b1561171257600160003373ffffffffffffffffffffffffffffffffffffffff1673ffffffffffffffffffffffffffffffffffffffff16815260200190815260200160002060405180608001604052808981526020018381526020016003600080815260200190815260200160002060009054906101000a900460ff16600681111561151b57fe5b81526020018581525090806001815401808255809150506001900390600052602060002090600402016000909190919091506000820151816000019080519060200190611569929190611edc565b506020820151816001015560408201518160020160006101000a81548160ff0219169083600681111561159857fe5b0217905550606082015181600301555050600481815481106115b657fe5b9060005260206000209060050201600301339080600181540180825580915050600190039060005260206000200160009091909190916101000a81548173ffffffffffffffffffffffffffffffffffffffff021916908373ffffffffffffffffffffffffffffffffffffffff1602179055507fb742dcbc662f4af54968dec292b228644e14fe49906909fae34be3425c688b5733878787604051808573ffffffffffffffffffffffffffffffffffffffff1673ffffffffffffffffffffffffffffffffffffffff16815260200180602001848152602001838152602001828103825285818151815260200191508051906020019080838360005b838110156116cb5780820151818401526020810190506116b0565b50505050905090810190601f1680156116f85780820380516001836020036101000a031916815260200191505b509550505050505060405180910390a16001915050611b49565b8080600101915050611375565b50606060046040518060a001604052808881526020018781526020018681526020018381526020016002600080815260200190815260200160002060009054906101000a900460ff16600781111561177357fe5b815250908060018154018082558091505060019003906000526020600020906005020160009091909190915060008201518160000190805190602001906117bb929190611edc565b50602082015181600101556040820151816002015560608201518160030190805190602001906117ec929190611f5c565b5060808201518160040160006101000a81548160ff0219169083600781111561181157fe5b0217905550505060046001600480549050038154811061182d57fe5b9060005260206000209060050201600301339080600181540180825580915050600190039060005260206000200160009091909190916101000a81548173ffffffffffffffffffffffffffffffffffffffff021916908373ffffffffffffffffffffffffffffffffffffffff160217905550600160003373ffffffffffffffffffffffffffffffffffffffff1673ffffffffffffffffffffffffffffffffffffffff168152602001908152602001600020604051806080016040528089815260200160016004805490500381526020016003600080815260200190815260200160002060009054906101000a900460ff16600681111561192957fe5b81526020018581525090806001815401808255809150506001900390600052602060002090600402016000909190919091506000820151816000019080519060200190611977929190611edc565b506020820151816001015560408201518160020160006101000a81548160ff021916908360068111156119a657fe5b02179055506060820151816003015550507fd48277ab4ff6de1fa4514a9148af108b347890a9b125701d486de18eae914fca8686866040518080602001848152602001838152602001828103825285818151815260200191508051906020019080838360005b83811015611a27578082015181840152602081019050611a0c565b50505050905090810190601f168015611a545780820380516001836020036101000a031916815260200191505b5094505050505060405180910390a17fb742dcbc662f4af54968dec292b228644e14fe49906909fae34be3425c688b5733878787604051808573ffffffffffffffffffffffffffffffffffffffff1673ffffffffffffffffffffffffffffffffffffffff16815260200180602001848152602001838152602001828103825285818151815260200191508051906020019080838360005b83811015611b06578082015181840152602081019050611aeb565b50505050905090810190601f168015611b335780820380516001836020036101000a031916815260200191505b509550505050505060405180910390a160019150505b95945050505050565b606060008251905060008090506001821415611b8a5783600081518110611b7557fe5b60200260200101516000015192505050611dae565b60606040518060400160405280600181526020017f5f000000000000000000000000000000000000000000000000000000000000008152509050606081905060008090505b84811015611c19576060878281518110611be557fe5b602002602001015160000151905080518501945060018603821015611c0b578251850194505b508080600101915050611bcf565b5060608367ffffffffffffffff81118015611c3357600080fd5b506040519080825280601f01601f191660200182016040528015611c665781602001600182028036833780820191505090505b5090506060819050600080905060008090505b8951811015611da25760608a8281518110611c9057fe5b602002602001015160000151905060008090505b8151811015611d1257818181518110611cb957fe5b602001015160f81c60f81b858580600101965081518110611cd657fe5b60200101907effffffffffffffffffffffffffffffffffffffffffffffffffffffffffffff1916908160001a9053508080600101915050611ca4565b5060018903821015611d945760008090505b8651811015611d9257868181518110611d3957fe5b602001015160f81c60f81b858580600101965081518110611d5657fe5b60200101907effffffffffffffffffffffffffffffffffffffffffffffffffffffffffffff1916908160001a9053508080600101915050611d24565b505b508080600101915050611c79565b50819750505050505050505b919050565b6000816040516020018082805190602001908083835b60208310611dec5780518252602082019150602081019050602083039250611dc9565b6001836020036101000a03801982511681845116808217855250505050505090500191505060405160208183030381529060405280519060200120836040516020018082805190602001908083835b60208310611e5e5780518252602082019150602081019050602083039250611e3b565b6001836020036101000a0380198251168184511680821785525050505050509050019150506040516020818303038152906040528051906020012014905092915050565b6040518060a001604052806060815260200160008152602001600081526020016060815260200160006007811115611ed657fe5b81525090565b828054600181600116156101000203166002900490600052602060002090601f016020900481019282601f10611f1d57805160ff1916838001178555611f4b565b82800160010185558215611f4b579182015b82811115611f4a578251825591602001919060010190611f2f565b5b509050611f589190611fe6565b5090565b828054828255906000526020600020908101928215611fd5579160200282015b82811115611fd45782518260006101000a81548173ffffffffffffffffffffffffffffffffffffffff021916908373ffffffffffffffffffffffffffffffffffffffff16021790555091602001919060010190611f7c565b5b509050611fe2919061200b565b5090565b61200891905b80821115612004576000816000905550600101611fec565b5090565b90565b61204b91905b8082111561204757600081816101000a81549073ffffffffffffffffffffffffffffffffffffffff021916905550600101612011565b5090565b9056fea264697066735822122090c793b8f50203590d4b7e9cf0a6f3fd2987b2d1ff9b2f8371f2ad278d89224664736f6c63430006070033",
  "source": "// SPDX-License-Identifier: MIT\npragma solidity >=0.6.7;\n\n/**\n*   @author Deniz Durak\n */\n\n\n/**\n*   @dev this is a try to abstract the PSS of airlines in real world\n*   all functions of this contract are only called if the payments, inside \n*   FlightToken contract, are completed.\n*   \n*   in case of following refund to the customer, this contract reports to customer\n*   the client automatically reports this to the FlightToken contract. This contract then\n*   refunds if granted\n*\n */\n\ncontract passengerContract {\n\n    address owner; // owner is the airline\n    mapping(address => FlightTicket[]) ticketBase; // one cust can book many tickets\n    mapping(uint => FlightStatus) flightStatusMap;\n    mapping(uint => PassengerStatus) passStatusMap;\n    Flight[] flights;\n\n    enum FlightStatus {\n        PLANNED, CANCELLED, CHECKIN, BOARDING, DEP_ON_TIME, ARR_ON_TIME, DEP_DELAYED, ARR_DELAYED\n    }\n\n    enum PassengerStatus {\n        BOOKED, CHECKEDIN, BOARDED, DEPARTED, ARRIVED, CANCELLED, OVERBOOKED\n    }\n\n    constructor() public {\n        owner = msg.sender;\n\n        flightStatusMap[0] = FlightStatus.PLANNED;\n        flightStatusMap[1] = FlightStatus.CANCELLED;\n        flightStatusMap[2] = FlightStatus.CHECKIN;\n        flightStatusMap[3] = FlightStatus.BOARDING;\n        flightStatusMap[4] = FlightStatus.DEP_ON_TIME;\n        flightStatusMap[5] = FlightStatus.ARR_ON_TIME;\n        flightStatusMap[6] = FlightStatus.DEP_DELAYED;\n        flightStatusMap[7] = FlightStatus.ARR_DELAYED;\n\n        passStatusMap[0] = PassengerStatus.BOOKED;\n        passStatusMap[1] = PassengerStatus.CHECKEDIN;\n        passStatusMap[2] = PassengerStatus.BOARDED;\n        passStatusMap[3] = PassengerStatus.DEPARTED;\n        passStatusMap[4] = PassengerStatus.ARRIVED;\n        passStatusMap[5] = PassengerStatus.CANCELLED; // from airline or passenger\n        passStatusMap[6] = PassengerStatus.OVERBOOKED; // if flight is overbooked - new ticket status\n    }\n\n    struct FlightTicket {\n        string cid; // ipfs hash to json ticket data\n        uint flightIndex; // points to a struct flight\n        PassengerStatus pStatus;\n        uint256 price; // price in wei\n    }\n\n    struct Flight {\n        string flightNumber;\n        uint month;\n        uint day;  // day + month + flightNumber important for status change\n        address[] passengerList;\n        FlightStatus fStatus;\n    }\n\n    function createTicket\n    (\n        string memory cid, // pointer to ticket data\n        string memory flightNumber,\n        uint month,\n        uint day,\n        uint256 price\n    ) \n    public\n    returns (bool)\n    {\n\n        // check if flight exists\n\n        for(uint ind = 0; ind<flights.length; ind++) {\n            if(compareStrings(flights[ind].flightNumber, flightNumber) && flights[ind].month == month && flights[ind].day == day) {\n                ticketBase[msg.sender].push(FlightTicket(cid, ind, passStatusMap[0], price));\n                flights[ind].passengerList.push(msg.sender); \n                emit TicketIssued(msg.sender, flightNumber, month, day);\n                return true; // ticket isssued\n            }\n        }\n        \n        address[] memory passengerList;\n        \n        flights.push(Flight(flightNumber, month, day, passengerList, flightStatusMap[0])); // create new flight\n        flights[flights.length-1].passengerList.push(msg.sender); // push msg.sender into passengerList\n        \n        ticketBase[msg.sender].push(FlightTicket(cid, flights.length-1, passStatusMap[0], price)); // create ticket\n        \n        emit FlightCreated(flightNumber, month, day);\n        emit TicketIssued(msg.sender, flightNumber, month, day);\n        \n        return true; // ticket issued\n    }\n\n\n    //changes the status of the flight\n    function changeFlightStatus(\n        string memory flightNumber, uint month, uint day, uint _status\n        ) public isAirline() \n        returns (bool, uint)\n    {\n        for(uint ind =0; ind<flights.length; ind++) {\n            if(compareStrings(flights[ind].flightNumber, flightNumber) && flights[ind].month == month && flights[ind].day == day) {\n                flights[ind].fStatus = flightStatusMap[_status];\n                if(_status == 1 || _status == 7) {\n                    emit FlightStatusChanged(flightNumber, month, day, _status);\n                    return (true, 1); // true - status change done; 1 - status cancelled or arr_delay --> check for refund\n                }\n                emit FlightStatusChanged(flightNumber, month, day, _status);\n                return (true, 0);\n            }\n        }\n        return (false, 0);\n    }\n\n\n    // get PassengerList - to do the refund\n    function getPassengerList(string memory flightNumber, uint month, uint day) \n    public view returns(address[] memory) {\n        Flight memory buf;\n\n        for(uint i = 0; i<flights.length; i++) {\n            if(compareStrings(flights[i].flightNumber, flightNumber) && flights[i].month == month && flights[i].day == day) {\n                buf = flights[i];\n                break;\n            }\n        }\n\n        return buf.passengerList;\n    }\n\n\n    // get ticket cids to fetch details about in frontend\n    function getTickets() public view returns (string memory) {\n        return(concatStrings(ticketBase[msg.sender]));\n    }\n\n\n    // change passenger status\n    function changePassengerStatus(\n        uint _status, string memory flightNumber\n    ) public returns (bool) \n    {\n        FlightTicket[] memory tickets = ticketBase[msg.sender];\n        if(tickets.length == 1) {\n            tickets[0].pStatus = passStatusMap[_status];\n            emit PassengerStatusChanged(msg.sender, flightNumber, flights[tickets[0].flightIndex].month, flights[tickets[0].flightIndex].day, _status);\n            return true;\n        } else {\n            for(uint ind = 0; ind < tickets.length; ind++) {\n                if(compareStrings(flights[tickets[ind].flightIndex].flightNumber, flightNumber)) {\n                    tickets[ind].pStatus = passStatusMap[_status];\n                    // check if passenger status is cancelled --> if so, check the business rules for refund\n                    emit PassengerStatusChanged(msg.sender, flightNumber, flights[tickets[ind].flightIndex].month, flights[tickets[ind].flightIndex].day, _status);\n                    return true;\n                }\n            }\n        }\n        return false;\n    }\n\n\n    /**\n    * @dev concat all cids with underline between each one\n    */\n    function concatStrings(FlightTicket[] memory tickets) private pure\n    returns(string memory)\n    {\n        uint length = tickets.length;\n        uint strLength = 0;\n\n        if(length == 1) { return(tickets[0].cid); }\n            \n        else {\n            string memory differ = \"_\";\n            bytes memory bDiffer = bytes(differ);\n            // get count of bytes\n            for(uint ind = 0; ind < length; ind++) \n            {\n                bytes memory buf = bytes(tickets[ind].cid);\n                strLength += buf.length;\n                if(ind < (length-1)) \n                {\n                    strLength += bDiffer.length;\n                }\n            }\n                \n            string memory bufStr = new string(strLength);\n            bytes memory concatBytes = bytes(bufStr);\n\n            uint indK = 0;\n            for(uint ind = 0; ind < tickets.length; ind++)\n            {\n                bytes memory tt = bytes(tickets[ind].cid);\n                for(uint indJ = 0; indJ<tt.length; indJ++) \n                {\n                    concatBytes[indK++] = tt[indJ];\n                }\n\n                if(ind < (length-1)) \n                {\n                    for(uint indDiffer = 0; indDiffer < bDiffer.length; indDiffer++)\n                    {\n                        concatBytes[indK++] = bDiffer[indDiffer];\n                    }\n                }\n            }\n                \n            return(string(concatBytes));\n        }\n    }\n        \n\n    /**\n    * @dev compares cmp1 & cmp2\n    */\n\n    function compareStrings\n    (\n        string memory cmp1,\n        string memory cmp2\n    )\n    private\n    pure\n    returns(bool)\n    {\n        return (keccak256(abi.encodePacked((cmp1))) == keccak256(abi.encodePacked((cmp2))));\n    }\n\n\n    modifier isAirline() {\n        require(msg.sender == owner);\n        _;\n    }\n\n    event TicketIssued(address customer, string flightNumber, uint month, uint day);\n    event FlightCreated(string flightNumber, uint month, uint day);\n    event FlightStatusChanged(string flightNumber, uint month, uint day, uint status);\n    event PassengerStatusChanged(address customer, string flightNumber, uint month, uint day, uint status);\n}\n",
  "sourcePath": "/home/dubka/Documents/BachelorThesis/bin/smart_contracts/contracts/passengerContract.sol",
  "compiler": {
    "name": "solc",
    "version": "0.6.7+commit.b8d736ae.Emscripten.clang"
  },
  "schemaVersion": "3.0.23",
  "updatedAt": "2020-11-25T20:28:27.946Z",
  "devdoc": {
    "details": "this is a try to abstract the PSS of airlines in real world  all functions of this contract are only called if the payments, inside   FlightToken contract, are completed.    in case of following refund to the customer, this contract reports to customer  the client automatically reports this to the FlightToken contract. This contract then  refunds if granted ",
    "methods": {}
  },
  "userdoc": {
    "methods": {}
  }
}