{
  "contractName": "PSSContract",
  "abi": [
    {
      "inputs": [],
      "stateMutability": "nonpayable",
      "type": "constructor"
    },
    {
      "anonymous": false,
      "inputs": [
        {
          "indexed": false,
          "internalType": "address",
          "name": "",
          "type": "address"
        },
        {
          "indexed": false,
          "internalType": "uint256",
          "name": "",
          "type": "uint256"
        }
      ],
      "name": "PaymentReceived",
      "type": "event"
    },
    {
      "stateMutability": "payable",
      "type": "receive",
      "payable": true
    },
    {
      "inputs": [
        {
          "internalType": "string",
          "name": "cid",
          "type": "string"
        },
        {
          "internalType": "string",
          "name": "flightNumber",
          "type": "string"
        },
        {
          "internalType": "uint256",
          "name": "month",
          "type": "uint256"
        },
        {
          "internalType": "uint256",
          "name": "day",
          "type": "uint256"
        },
        {
          "internalType": "uint256",
          "name": "price",
          "type": "uint256"
        }
      ],
      "name": "createTicket",
      "outputs": [
        {
          "internalType": "bool",
          "name": "",
          "type": "bool"
        }
      ],
      "stateMutability": "nonpayable",
      "type": "function"
    },
    {
      "inputs": [
        {
          "internalType": "string",
          "name": "flightNumber",
          "type": "string"
        },
        {
          "internalType": "uint256",
          "name": "month",
          "type": "uint256"
        },
        {
          "internalType": "uint256",
          "name": "day",
          "type": "uint256"
        },
        {
          "internalType": "uint256",
          "name": "_status",
          "type": "uint256"
        }
      ],
      "name": "changeFlightStatus",
      "outputs": [
        {
          "internalType": "bool",
          "name": "",
          "type": "bool"
        },
        {
          "internalType": "uint256",
          "name": "",
          "type": "uint256"
        }
      ],
      "stateMutability": "nonpayable",
      "type": "function"
    },
    {
      "inputs": [
        {
          "internalType": "uint256",
          "name": "_status",
          "type": "uint256"
        },
        {
          "internalType": "string",
          "name": "flightNumber",
          "type": "string"
        }
      ],
      "name": "changePassengerStatus",
      "outputs": [
        {
          "internalType": "bool",
          "name": "",
          "type": "bool"
        }
      ],
      "stateMutability": "view",
      "type": "function",
      "constant": true
    }
  ],
  "bytecode": "0x60806040523480156200001157600080fd5b50336000806101000a81548173ffffffffffffffffffffffffffffffffffffffff021916908373ffffffffffffffffffffffffffffffffffffffff16021790555060006002600080815260200190815260200160002060006101000a81548160ff021916908360078111156200008357fe5b02179055506001600260006001815260200190815260200160002060006101000a81548160ff02191690836007811115620000ba57fe5b021790555060028060006002815260200190815260200160002060006101000a81548160ff02191690836007811115620000f057fe5b02179055506003600260006003815260200190815260200160002060006101000a81548160ff021916908360078111156200012757fe5b02179055506004600260006004815260200190815260200160002060006101000a81548160ff021916908360078111156200015e57fe5b02179055506005600260006005815260200190815260200160002060006101000a81548160ff021916908360078111156200019557fe5b02179055506006600260006006815260200190815260200160002060006101000a81548160ff02191690836007811115620001cc57fe5b02179055506007600260006007815260200190815260200160002060006101000a81548160ff021916908360078111156200020357fe5b021790555060006003600080815260200190815260200160002060006101000a81548160ff021916908360068111156200023957fe5b02179055506001600360006001815260200190815260200160002060006101000a81548160ff021916908360068111156200027057fe5b02179055506002600360006002815260200190815260200160002060006101000a81548160ff02191690836006811115620002a757fe5b021790555060038060006003815260200190815260200160002060006101000a81548160ff02191690836006811115620002dd57fe5b02179055506004600360006004815260200190815260200160002060006101000a81548160ff021916908360068111156200031457fe5b02179055506005600360006005815260200190815260200160002060006101000a81548160ff021916908360068111156200034b57fe5b02179055506006600360006006815260200190815260200160002060006101000a81548160ff021916908360068111156200038257fe5b02179055506111cc80620003976000396000f3fe6080604052600436106100385760003560e01c806356418bbe146100af5780639450f9bb14610199578063b314ccb81461029e576100aa565b366100aa577f6ef95f06320e7a25a04a175ca677b7052bdd97131872c2192525a629f51be7703334604051808373ffffffffffffffffffffffffffffffffffffffff1673ffffffffffffffffffffffffffffffffffffffff1681526020018281526020019250505060405180910390a1005b600080fd5b3480156100bb57600080fd5b5061017f600480360360408110156100d257600080fd5b8101908080359060200190929190803590602001906401000000008111156100f957600080fd5b82018360208201111561010b57600080fd5b8035906020019184600183028401116401000000008311171561012d57600080fd5b91908080601f016020809104026020016040519081016040528093929190818152602001838380828437600081840152601f19601f820116905080830192505050505050509192919290505050610433565b604051808215151515815260200191505060405180910390f35b3480156101a557600080fd5b5061027d600480360360808110156101bc57600080fd5b81019080803590602001906401000000008111156101d957600080fd5b8201836020820111156101eb57600080fd5b8035906020019184600183028401116401000000008311171561020d57600080fd5b91908080601f016020809104026020016040519081016040528093929190818152602001838380828437600081840152601f19601f820116905080830192505050505050509192919290803590602001909291908035906020019092919080359060200190929190505050610780565b60405180831515151581526020018281526020019250505060405180910390f35b3480156102aa57600080fd5b50610419600480360360a08110156102c157600080fd5b81019080803590602001906401000000008111156102de57600080fd5b8201836020820111156102f057600080fd5b8035906020019184600183028401116401000000008311171561031257600080fd5b91908080601f016020809104026020016040519081016040528093929190818152602001838380828437600081840152601f19601f8201169050808301925050505050505091929192908035906020019064010000000081111561037557600080fd5b82018360208201111561038757600080fd5b803590602001918460018302840111640100000000831117156103a957600080fd5b91908080601f016020809104026020016040519081016040528093929190818152602001838380828437600081840152601f19601f8201169050808301925050505050505091929192908035906020019092919080359060200190929190803590602001909291905050506109bc565b604051808215151515815260200191505060405180910390f35b60006060600160003373ffffffffffffffffffffffffffffffffffffffff1673ffffffffffffffffffffffffffffffffffffffff168152602001908152602001600020805480602002602001604051908101604052809291908181526020016000905b828210156105ab5783829060005260206000209060040201604051806080016040529081600082018054600181600116156101000203166002900480601f0160208091040260200160405190810160405280929190818152602001828054600181600116156101000203166002900480156105525780601f1061052757610100808354040283529160200191610552565b820191906000526020600020905b81548152906001019060200180831161053557829003601f168201915b50505050508152602001600182015481526020016002820160009054906101000a900460ff16600681111561058357fe5b600681111561058e57fe5b815260200160038201548152505081526020019060010190610496565b50505050905060018151141561061b576003600085815260200190815260200160002060009054906101000a900460ff16816000815181106105e957fe5b602002602001015160400190600681111561060057fe5b9081600681111561060d57fe5b81525050600191505061077a565b60008090505b815181101561077357610701600483838151811061063b57fe5b6020026020010151602001518154811061065157fe5b90600052602060002090600502016000018054600181600116156101000203166002900480601f0160208091040260200160405190810160405280929190818152602001828054600181600116156101000203166002900480156106f65780601f106106cb576101008083540402835291602001916106f6565b820191906000526020600020905b8154815290600101906020018083116106d957829003601f168201915b505050505085610f35565b15610766576003600086815260200190815260200160002060009054906101000a900460ff1682828151811061073357fe5b602002602001015160400190600681111561074a57fe5b9081600681111561075757fe5b8152505060019250505061077a565b8080600101915050610621565b5060009150505b92915050565b6000806000809054906101000a900473ffffffffffffffffffffffffffffffffffffffff1673ffffffffffffffffffffffffffffffffffffffff163373ffffffffffffffffffffffffffffffffffffffff16146107dc57600080fd5b60008090505b6004805490508110156109a7576108af600482815481106107ff57fe5b90600052602060002090600502016000018054600181600116156101000203166002900480601f0160208091040260200160405190810160405280929190818152602001828054600181600116156101000203166002900480156108a45780601f10610879576101008083540402835291602001916108a4565b820191906000526020600020905b81548152906001019060200180831161088757829003601f168201915b505050505088610f35565b80156108d8575085600482815481106108c457fe5b906000526020600020906005020160010154145b8015610901575084600482815481106108ed57fe5b906000526020600020906005020160020154145b1561099a576002600085815260200190815260200160002060009054906101000a900460ff166004828154811061093457fe5b906000526020600020906005020160040160006101000a81548160ff0219169083600781111561096057fe5b021790555060018414806109745750600784145b156109895760018080905092509250506109b3565b6001600080905092509250506109b3565b80806001019150506107e2565b50600080809050915091505b94509492505050565b600080600090505b600480549050811015610c8e57610a91600482815481106109e157fe5b90600052602060002090600502016000018054600181600116156101000203166002900480601f016020809104026020016040519081016040528092919081815260200182805460018160011615610100020316600290048015610a865780601f10610a5b57610100808354040283529160200191610a86565b820191906000526020600020905b815481529060010190602001808311610a6957829003601f168201915b505050505087610f35565b8015610aba57508460048281548110610aa657fe5b906000526020600020906005020160010154145b8015610ae357508360048281548110610acf57fe5b906000526020600020906005020160020154145b15610c8157600160003373ffffffffffffffffffffffffffffffffffffffff1673ffffffffffffffffffffffffffffffffffffffff16815260200190815260200160002060405180608001604052808981526020018381526020016003600080815260200190815260200160002060009054906101000a900460ff166006811115610b6a57fe5b81526020018581525090806001815401808255809150506001900390600052602060002090600402016000909190919091506000820151816000019080519060200190610bb8929190611024565b506020820151816001015560408201518160020160006101000a81548160ff02191690836006811115610be757fe5b021790555060608201518160030155505060048181548110610c0557fe5b9060005260206000209060050201600301339080600181540180825580915050600190039060005260206000200160009091909190916101000a81548173ffffffffffffffffffffffffffffffffffffffff021916908373ffffffffffffffffffffffffffffffffffffffff1602179055506001915050610f2c565b80806001019150506109c4565b50606060046040518060a001604052808881526020018781526020018681526020018381526020016002600080815260200190815260200160002060009054906101000a900460ff166007811115610ce257fe5b81525090806001815401808255809150506001900390600052602060002090600502016000909190919091506000820151816000019080519060200190610d2a929190611024565b5060208201518160010155604082015181600201556060820151816003019080519060200190610d5b9291906110a4565b5060808201518160040160006101000a81548160ff02191690836007811115610d8057fe5b02179055505050600460016004805490500381548110610d9c57fe5b9060005260206000209060050201600301339080600181540180825580915050600190039060005260206000200160009091909190916101000a81548173ffffffffffffffffffffffffffffffffffffffff021916908373ffffffffffffffffffffffffffffffffffffffff160217905550600160003373ffffffffffffffffffffffffffffffffffffffff1673ffffffffffffffffffffffffffffffffffffffff168152602001908152602001600020604051806080016040528089815260200160016004805490500381526020016003600080815260200190815260200160002060009054906101000a900460ff166006811115610e9857fe5b81526020018581525090806001815401808255809150506001900390600052602060002090600402016000909190919091506000820151816000019080519060200190610ee6929190611024565b506020820151816001015560408201518160020160006101000a81548160ff02191690836006811115610f1557fe5b021790555060608201518160030155505060019150505b95945050505050565b6000816040516020018082805190602001908083835b60208310610f6e5780518252602082019150602081019050602083039250610f4b565b6001836020036101000a03801982511681845116808217855250505050505090500191505060405160208183030381529060405280519060200120836040516020018082805190602001908083835b60208310610fe05780518252602082019150602081019050602083039250610fbd565b6001836020036101000a0380198251168184511680821785525050505050509050019150506040516020818303038152906040528051906020012014905092915050565b828054600181600116156101000203166002900490600052602060002090601f016020900481019282601f1061106557805160ff1916838001178555611093565b82800160010185558215611093579182015b82811115611092578251825591602001919060010190611077565b5b5090506110a0919061112e565b5090565b82805482825590600052602060002090810192821561111d579160200282015b8281111561111c5782518260006101000a81548173ffffffffffffffffffffffffffffffffffffffff021916908373ffffffffffffffffffffffffffffffffffffffff160217905550916020019190600101906110c4565b5b50905061112a9190611153565b5090565b61115091905b8082111561114c576000816000905550600101611134565b5090565b90565b61119391905b8082111561118f57600081816101000a81549073ffffffffffffffffffffffffffffffffffffffff021916905550600101611159565b5090565b9056fea26469706673582212204eae426f4d7be9317e9e20516e6a95b55dc16f8f6fc5dc2b618edd515ecfa69964736f6c63430006070033",
  "source": "// SPDX-License-Identifier: MIT\npragma solidity >=0.6.7;\n\n/**\n*   @author Deniz Durak\n */\n\n\n/**\n*   @dev this is a try to abstract the PSS of airlines in real world\n*   all functions of this contract are only called if the payments, inside \n*   FlightToken contract, are completed.\n*   \n*   in case of following refund to the customer, this contract reports to customer\n*   the client automatically reports this to the FlightToken contract. This contract then\n*   refunds if granted\n*\n */\n\ncontract PSSContract {\n\n    address owner; // owner is the airline\n    mapping(address => FlightTicket[]) ticketBase; // one cust can book many tickets\n    mapping(uint => FlightStatus) flightStatusMap;\n    mapping(uint => PassengerStatus) passStatusMap;\n    Flight[] flights;\n\n    enum FlightStatus {\n        PLANNED, CANCELLED, CHECKIN, BOARDING, DEP_ON_TIME, ARR_ON_TIME, DEP_DELAYED, ARR_DELAYED\n    }\n\n    enum PassengerStatus {\n        BOOKED, CHECKEDIN, BOARDED, DEPARTED, ARRIVED, CANCELLED, OVERBOOKED\n    }\n\n    constructor() public {\n        owner = msg.sender;\n\n        flightStatusMap[0] = FlightStatus.PLANNED;\n        flightStatusMap[1] = FlightStatus.CANCELLED;\n        flightStatusMap[2] = FlightStatus.CHECKIN;\n        flightStatusMap[3] = FlightStatus.BOARDING;\n        flightStatusMap[4] = FlightStatus.DEP_ON_TIME;\n        flightStatusMap[5] = FlightStatus.ARR_ON_TIME;\n        flightStatusMap[6] = FlightStatus.DEP_DELAYED;\n        flightStatusMap[7] = FlightStatus.ARR_DELAYED;\n\n        passStatusMap[0] = PassengerStatus.BOOKED;\n        passStatusMap[1] = PassengerStatus.CHECKEDIN;\n        passStatusMap[2] = PassengerStatus.BOARDED;\n        passStatusMap[3] = PassengerStatus.DEPARTED;\n        passStatusMap[4] = PassengerStatus.ARRIVED;\n        passStatusMap[5] = PassengerStatus.CANCELLED;\n        passStatusMap[6] = PassengerStatus.OVERBOOKED; // if flight is overbooked - new ticket status\n    }\n\n    struct FlightTicket {\n        string cid; // ipfs hash to json ticket data\n        uint flightIndex; // points to a struct flight\n        PassengerStatus pStatus;\n        uint256 price; // price in wei\n    }\n\n    struct Flight {\n        string flightNumber;\n        uint month;\n        uint day;  // day + month + flightNumber important for status change\n        address[] passengerList;\n        FlightStatus fStatus;\n    }\n\n    function createTicket\n    (\n        string memory cid, // pointer to ticket data\n        string memory flightNumber,\n        uint month,\n        uint day,\n        uint256 price\n    ) \n    public\n    returns (bool)\n    {\n\n        // check if flight exists\n\n        for(uint ind = 0; ind<flights.length; ind++) {\n            if(compareStrings(flights[ind].flightNumber, flightNumber) && flights[ind].month == month && flights[ind].day == day) {\n                ticketBase[msg.sender].push(FlightTicket(cid, ind, passStatusMap[0], price));\n                flights[ind].passengerList.push(msg.sender); \n                return true; // ticket isssued\n            }\n        }\n        address[] memory passengerList;\n        flights.push(Flight(flightNumber, month, day, passengerList, flightStatusMap[0])); // create new flight\n        flights[flights.length-1].passengerList.push(msg.sender); // push msg.sender into passengerList\n        ticketBase[msg.sender].push(FlightTicket(cid, flights.length-1, passStatusMap[0], price)); // create ticket\n        return true; // ticket issued\n    }\n\n\n    //changes the status of the flight\n    function changeFlightStatus(\n        string memory flightNumber, uint month, uint day, uint _status\n        ) public isAirline() \n        returns (bool, uint)\n    {\n        for(uint ind =0; ind<flights.length; ind++) {\n            if(compareStrings(flights[ind].flightNumber, flightNumber) && flights[ind].month == month && flights[ind].day == day) {\n                flights[ind].fStatus = flightStatusMap[_status];\n                if(_status == 1 || _status == 7) {\n                    return (true, 1); // true - status change done; 1 - status cancelled or arr_delay --> check for refund\n                }\n                return (true, 0);\n            }\n        }\n        return (false, 0);\n    }\n\n\n    // change passenger status\n    function changePassengerStatus(\n        uint _status, string memory flightNumber\n    ) public view returns (bool) \n    {\n        FlightTicket[] memory tickets = ticketBase[msg.sender];\n        if(tickets.length == 1) {\n            tickets[0].pStatus = passStatusMap[_status];\n            return true;\n        } else {\n            for(uint ind = 0; ind < tickets.length; ind++) {\n                if(compareStrings(flights[tickets[ind].flightIndex].flightNumber, flightNumber)) {\n                    tickets[ind].pStatus = passStatusMap[_status];\n                    // check if passenger status is cancelled --> if so, check the business rules for refund\n                    return true;\n                }\n            }\n        }\n        return false;\n    }\n\n    /**\n    * @dev compares cmp1 & cmp2\n    */\n\n    function compareStrings\n    (\n        string memory cmp1,\n        string memory cmp2\n    )\n    private\n    pure\n    returns(bool)\n    {\n        return (keccak256(abi.encodePacked((cmp1))) == keccak256(abi.encodePacked((cmp2))));\n    }\n\n    // receives payment and throws event\n    receive() external payable {\n        emit PaymentReceived(msg.sender, msg.value);\n    }\n\n\n    modifier isAirline() {\n        require(msg.sender == owner);\n        _;\n    }\n\n    event PaymentReceived(address, uint);\n}\n",
  "sourcePath": "/home/dubka/Documents/BachelorThesis/bin/smart_contracts/contracts/PSSContract.sol",
  "compiler": {
    "name": "solc",
    "version": "0.6.7+commit.b8d736ae.Emscripten.clang"
  },
  "schemaVersion": "3.0.23",
  "updatedAt": "2020-11-06T09:19:35.343Z",
  "networkType": "ethereum",
  "devdoc": {
    "details": "this is a try to abstract the PSS of airlines in real world  all functions of this contract are only called if the payments, inside   FlightToken contract, are completed.    in case of following refund to the customer, this contract reports to customer  the client automatically reports this to the FlightToken contract. This contract then  refunds if granted ",
    "methods": {}
  },
  "userdoc": {
    "methods": {}
  }
}