{
  "contractName": "PSystemContract",
  "abi": [
    {
      "inputs": [],
      "stateMutability": "nonpayable",
      "type": "constructor"
    },
    {
      "anonymous": false,
      "inputs": [
        {
          "indexed": false,
          "internalType": "address",
          "name": "",
          "type": "address"
        },
        {
          "indexed": false,
          "internalType": "uint256",
          "name": "",
          "type": "uint256"
        }
      ],
      "name": "PaymentReceived",
      "type": "event"
    },
    {
      "stateMutability": "payable",
      "type": "receive",
      "payable": true
    },
    {
      "inputs": [
        {
          "internalType": "string",
          "name": "cid",
          "type": "string"
        },
        {
          "internalType": "string",
          "name": "flightNumber",
          "type": "string"
        },
        {
          "internalType": "uint256",
          "name": "month",
          "type": "uint256"
        },
        {
          "internalType": "uint256",
          "name": "day",
          "type": "uint256"
        },
        {
          "internalType": "uint256",
          "name": "price",
          "type": "uint256"
        }
      ],
      "name": "createTicket",
      "outputs": [
        {
          "internalType": "bool",
          "name": "",
          "type": "bool"
        }
      ],
      "stateMutability": "nonpayable",
      "type": "function"
    },
    {
      "inputs": [
        {
          "internalType": "string",
          "name": "flightNumber",
          "type": "string"
        },
        {
          "internalType": "uint256",
          "name": "month",
          "type": "uint256"
        },
        {
          "internalType": "uint256",
          "name": "day",
          "type": "uint256"
        },
        {
          "internalType": "uint256",
          "name": "_status",
          "type": "uint256"
        }
      ],
      "name": "changeFlightStatus",
      "outputs": [
        {
          "internalType": "bool",
          "name": "",
          "type": "bool"
        },
        {
          "internalType": "uint256",
          "name": "",
          "type": "uint256"
        }
      ],
      "stateMutability": "nonpayable",
      "type": "function"
    },
    {
      "inputs": [
        {
          "internalType": "string",
          "name": "flightNumber",
          "type": "string"
        },
        {
          "internalType": "uint256",
          "name": "month",
          "type": "uint256"
        },
        {
          "internalType": "uint256",
          "name": "day",
          "type": "uint256"
        }
      ],
      "name": "getPassengerList",
      "outputs": [
        {
          "internalType": "address[]",
          "name": "",
          "type": "address[]"
        }
      ],
      "stateMutability": "view",
      "type": "function",
      "constant": true
    },
    {
      "inputs": [],
      "name": "getTickets",
      "outputs": [
        {
          "internalType": "string",
          "name": "",
          "type": "string"
        }
      ],
      "stateMutability": "view",
      "type": "function",
      "constant": true
    },
    {
      "inputs": [
        {
          "internalType": "uint256",
          "name": "_status",
          "type": "uint256"
        },
        {
          "internalType": "string",
          "name": "flightNumber",
          "type": "string"
        }
      ],
      "name": "changePassengerStatus",
      "outputs": [
        {
          "internalType": "bool",
          "name": "",
          "type": "bool"
        }
      ],
      "stateMutability": "view",
      "type": "function",
      "constant": true
    }
  ],
  "bytecode": "0x60806040523480156200001157600080fd5b50336000806101000a81548173ffffffffffffffffffffffffffffffffffffffff021916908373ffffffffffffffffffffffffffffffffffffffff16021790555060006002600080815260200190815260200160002060006101000a81548160ff021916908360078111156200008357fe5b02179055506001600260006001815260200190815260200160002060006101000a81548160ff02191690836007811115620000ba57fe5b021790555060028060006002815260200190815260200160002060006101000a81548160ff02191690836007811115620000f057fe5b02179055506003600260006003815260200190815260200160002060006101000a81548160ff021916908360078111156200012757fe5b02179055506004600260006004815260200190815260200160002060006101000a81548160ff021916908360078111156200015e57fe5b02179055506005600260006005815260200190815260200160002060006101000a81548160ff021916908360078111156200019557fe5b02179055506006600260006006815260200190815260200160002060006101000a81548160ff02191690836007811115620001cc57fe5b02179055506007600260006007815260200190815260200160002060006101000a81548160ff021916908360078111156200020357fe5b021790555060006003600080815260200190815260200160002060006101000a81548160ff021916908360068111156200023957fe5b02179055506001600360006001815260200190815260200160002060006101000a81548160ff021916908360068111156200027057fe5b02179055506002600360006002815260200190815260200160002060006101000a81548160ff02191690836006811115620002a757fe5b021790555060038060006003815260200190815260200160002060006101000a81548160ff02191690836006811115620002dd57fe5b02179055506004600360006004815260200190815260200160002060006101000a81548160ff021916908360068111156200031457fe5b02179055506005600360006005815260200190815260200160002060006101000a81548160ff021916908360068111156200034b57fe5b02179055506006600360006006815260200190815260200160002060006101000a81548160ff021916908360068111156200038257fe5b0217905550611b3880620003976000396000f3fe60806040526004361061004e5760003560e01c80634ed02622146100c557806356418bbe146101555780636725b0621461023f5780639450f9bb14610370578063b314ccb814610475576100c0565b366100c0577f6ef95f06320e7a25a04a175ca677b7052bdd97131872c2192525a629f51be7703334604051808373ffffffffffffffffffffffffffffffffffffffff1673ffffffffffffffffffffffffffffffffffffffff1681526020018281526020019250505060405180910390a1005b600080fd5b3480156100d157600080fd5b506100da61060a565b6040518080602001828103825283818151815260200191508051906020019080838360005b8381101561011a5780820151818401526020810190506100ff565b50505050905090810190601f1680156101475780820380516001836020036101000a031916815260200191505b509250505060405180910390f35b34801561016157600080fd5b506102256004803603604081101561017857600080fd5b81019080803590602001909291908035906020019064010000000081111561019f57600080fd5b8201836020820111156101b157600080fd5b803590602001918460018302840111640100000000831117156101d357600080fd5b91908080601f016020809104026020016040519081016040528093929190818152602001838380828437600081840152601f19601f8201169050808301925050505050505091929192905050506107ee565b604051808215151515815260200191505060405180910390f35b34801561024b57600080fd5b506103196004803603606081101561026257600080fd5b810190808035906020019064010000000081111561027f57600080fd5b82018360208201111561029157600080fd5b803590602001918460018302840111640100000000831117156102b357600080fd5b91908080601f016020809104026020016040519081016040528093929190818152602001838380828437600081840152601f19601f8201169050808301925050505050505091929192908035906020019092919080359060200190929190505050610b3b565b6040518080602001828103825283818151815260200191508051906020019060200280838360005b8381101561035c578082015181840152602081019050610341565b505050509050019250505060405180910390f35b34801561037c57600080fd5b506104546004803603608081101561039357600080fd5b81019080803590602001906401000000008111156103b057600080fd5b8201836020820111156103c257600080fd5b803590602001918460018302840111640100000000831117156103e457600080fd5b91908080601f016020809104026020016040519081016040528093929190818152602001838380828437600081840152601f19601f820116905080830192505050505050509192919290803590602001909291908035906020019092919080359060200190929190505050610e2a565b60405180831515151581526020018281526020019250505060405180910390f35b34801561048157600080fd5b506105f0600480360360a081101561049857600080fd5b81019080803590602001906401000000008111156104b557600080fd5b8201836020820111156104c757600080fd5b803590602001918460018302840111640100000000831117156104e957600080fd5b91908080601f016020809104026020016040519081016040528093929190818152602001838380828437600081840152601f19601f8201169050808301925050505050505091929192908035906020019064010000000081111561054c57600080fd5b82018360208201111561055e57600080fd5b8035906020019184600183028401116401000000008311171561058057600080fd5b91908080601f016020809104026020016040519081016040528093929190818152602001838380828437600081840152601f19601f820116905080830192505050505050509192919290803590602001909291908035906020019092919080359060200190929190505050611066565b604051808215151515815260200191505060405180910390f35b60606000600160003373ffffffffffffffffffffffffffffffffffffffff1673ffffffffffffffffffffffffffffffffffffffff168152602001908152602001600020805490509050606060008090505b828110156107dd5761066b611923565b600160003373ffffffffffffffffffffffffffffffffffffffff1673ffffffffffffffffffffffffffffffffffffffff16815260200190815260200160002082815481106106b557fe5b9060005260206000209060040201604051806080016040529081600082018054600181600116156101000203166002900480601f0160208091040260200160405190810160405280929190818152602001828054600181600116156101000203166002900480156107675780601f1061073c57610100808354040283529160200191610767565b820191906000526020600020905b81548152906001019060200180831161074a57829003601f168201915b50505050508152602001600182015481526020016002820160009054906101000a900460ff16600681111561079857fe5b60068111156107a357fe5b8152602001600382015481525050905080600001518383815181106107c457fe5b602002602001018190525050808060010191505061065b565b506107e7816115df565b9250505090565b60006060600160003373ffffffffffffffffffffffffffffffffffffffff1673ffffffffffffffffffffffffffffffffffffffff168152602001908152602001600020805480602002602001604051908101604052809291908181526020016000905b828210156109665783829060005260206000209060040201604051806080016040529081600082018054600181600116156101000203166002900480601f01602080910402602001604051908101604052809291908181526020018280546001816001161561010002031660029004801561090d5780601f106108e25761010080835404028352916020019161090d565b820191906000526020600020905b8154815290600101906020018083116108f057829003601f168201915b50505050508152602001600182015481526020016002820160009054906101000a900460ff16600681111561093e57fe5b600681111561094957fe5b815260200160038201548152505081526020019060010190610851565b5050505090506001815114156109d6576003600085815260200190815260200160002060009054906101000a900460ff16816000815181106109a457fe5b60200260200101516040019060068111156109bb57fe5b908160068111156109c857fe5b815250506001915050610b35565b60008090505b8151811015610b2e57610abc60048383815181106109f657fe5b60200260200101516020015181548110610a0c57fe5b90600052602060002090600502016000018054600181600116156101000203166002900480601f016020809104026020016040519081016040528092919081815260200182805460018160011615610100020316600290048015610ab15780601f10610a8657610100808354040283529160200191610ab1565b820191906000526020600020905b815481529060010190602001808311610a9457829003601f168201915b505050505085611834565b15610b21576003600086815260200190815260200160002060009054906101000a900460ff16828281518110610aee57fe5b6020026020010151604001906006811115610b0557fe5b90816006811115610b1257fe5b81525050600192505050610b35565b80806001019150506109dc565b5060009150505b92915050565b6060610b45611956565b60008090505b600480549050811015610e1a57610c1860048281548110610b6857fe5b90600052602060002090600502016000018054600181600116156101000203166002900480601f016020809104026020016040519081016040528092919081815260200182805460018160011615610100020316600290048015610c0d5780601f10610be257610100808354040283529160200191610c0d565b820191906000526020600020905b815481529060010190602001808311610bf057829003601f168201915b505050505087611834565b8015610c4157508460048281548110610c2d57fe5b906000526020600020906005020160010154145b8015610c6a57508360048281548110610c5657fe5b906000526020600020906005020160020154145b15610e0d5760048181548110610c7c57fe5b90600052602060002090600502016040518060a0016040529081600082018054600181600116156101000203166002900480601f016020809104026020016040519081016040528092919081815260200182805460018160011615610100020316600290048015610d2e5780601f10610d0357610100808354040283529160200191610d2e565b820191906000526020600020905b815481529060010190602001808311610d1157829003601f168201915b50505050508152602001600182015481526020016002820154815260200160038201805480602002602001604051908101604052809291908181526020018280548015610dd057602002820191906000526020600020905b8160009054906101000a900473ffffffffffffffffffffffffffffffffffffffff1673ffffffffffffffffffffffffffffffffffffffff1681526020019060010190808311610d86575b505050505081526020016004820160009054906101000a900460ff166007811115610df757fe5b6007811115610e0257fe5b815250509150610e1a565b8080600101915050610b4b565b5080606001519150509392505050565b6000806000809054906101000a900473ffffffffffffffffffffffffffffffffffffffff1673ffffffffffffffffffffffffffffffffffffffff163373ffffffffffffffffffffffffffffffffffffffff1614610e8657600080fd5b60008090505b60048054905081101561105157610f5960048281548110610ea957fe5b90600052602060002090600502016000018054600181600116156101000203166002900480601f016020809104026020016040519081016040528092919081815260200182805460018160011615610100020316600290048015610f4e5780601f10610f2357610100808354040283529160200191610f4e565b820191906000526020600020905b815481529060010190602001808311610f3157829003601f168201915b505050505088611834565b8015610f8257508560048281548110610f6e57fe5b906000526020600020906005020160010154145b8015610fab57508460048281548110610f9757fe5b906000526020600020906005020160020154145b15611044576002600085815260200190815260200160002060009054906101000a900460ff1660048281548110610fde57fe5b906000526020600020906005020160040160006101000a81548160ff0219169083600781111561100a57fe5b0217905550600184148061101e5750600784145b1561103357600180809050925092505061105d565b60016000809050925092505061105d565b8080600101915050610e8c565b50600080809050915091505b94509492505050565b600080600090505b6004805490508110156113385761113b6004828154811061108b57fe5b90600052602060002090600502016000018054600181600116156101000203166002900480601f0160208091040260200160405190810160405280929190818152602001828054600181600116156101000203166002900480156111305780601f1061110557610100808354040283529160200191611130565b820191906000526020600020905b81548152906001019060200180831161111357829003601f168201915b505050505087611834565b80156111645750846004828154811061115057fe5b906000526020600020906005020160010154145b801561118d5750836004828154811061117957fe5b906000526020600020906005020160020154145b1561132b57600160003373ffffffffffffffffffffffffffffffffffffffff1673ffffffffffffffffffffffffffffffffffffffff16815260200190815260200160002060405180608001604052808981526020018381526020016003600080815260200190815260200160002060009054906101000a900460ff16600681111561121457fe5b81526020018581525090806001815401808255809150506001900390600052602060002090600402016000909190919091506000820151816000019080519060200190611262929190611990565b506020820151816001015560408201518160020160006101000a81548160ff0219169083600681111561129157fe5b0217905550606082015181600301555050600481815481106112af57fe5b9060005260206000209060050201600301339080600181540180825580915050600190039060005260206000200160009091909190916101000a81548173ffffffffffffffffffffffffffffffffffffffff021916908373ffffffffffffffffffffffffffffffffffffffff16021790555060019150506115d6565b808060010191505061106e565b50606060046040518060a001604052808881526020018781526020018681526020018381526020016002600080815260200190815260200160002060009054906101000a900460ff16600781111561138c57fe5b815250908060018154018082558091505060019003906000526020600020906005020160009091909190915060008201518160000190805190602001906113d4929190611990565b5060208201518160010155604082015181600201556060820151816003019080519060200190611405929190611a10565b5060808201518160040160006101000a81548160ff0219169083600781111561142a57fe5b0217905550505060046001600480549050038154811061144657fe5b9060005260206000209060050201600301339080600181540180825580915050600190039060005260206000200160009091909190916101000a81548173ffffffffffffffffffffffffffffffffffffffff021916908373ffffffffffffffffffffffffffffffffffffffff160217905550600160003373ffffffffffffffffffffffffffffffffffffffff1673ffffffffffffffffffffffffffffffffffffffff168152602001908152602001600020604051806080016040528089815260200160016004805490500381526020016003600080815260200190815260200160002060009054906101000a900460ff16600681111561154257fe5b81526020018581525090806001815401808255809150506001900390600052602060002090600402016000909190919091506000820151816000019080519060200190611590929190611990565b506020820151816001015560408201518160020160006101000a81548160ff021916908360068111156115bf57fe5b021790555060608201518160030155505060019150505b95945050505050565b606060008251905060008090506001821415611613578360008151811061160257fe5b60200260200101519250505061182f565b60606040518060400160405280600181526020017f5f000000000000000000000000000000000000000000000000000000000000008152509050606081905060008090505b8481101561169e57606087828151811061166e57fe5b6020026020010151905080518501945060018603821015611690578251850194505b508080600101915050611658565b5060608367ffffffffffffffff811180156116b857600080fd5b506040519080825280601f01601f1916602001820160405280156116eb5781602001600182028036833780820191505090505b5090506060819050600080905060008090505b89518110156118235760608a828151811061171557fe5b6020026020010151905060008090505b81518110156117935781818151811061173a57fe5b602001015160f81c60f81b85858060010196508151811061175757fe5b60200101907effffffffffffffffffffffffffffffffffffffffffffffffffffffffffffff1916908160001a9053508080600101915050611725565b50600189038210156118155760008090505b8651811015611813578681815181106117ba57fe5b602001015160f81c60f81b8585806001019650815181106117d757fe5b60200101907effffffffffffffffffffffffffffffffffffffffffffffffffffffffffffff1916908160001a90535080806001019150506117a5565b505b5080806001019150506116fe565b50819750505050505050505b919050565b6000816040516020018082805190602001908083835b6020831061186d578051825260208201915060208101905060208303925061184a565b6001836020036101000a03801982511681845116808217855250505050505090500191505060405160208183030381529060405280519060200120836040516020018082805190602001908083835b602083106118df57805182526020820191506020810190506020830392506118bc565b6001836020036101000a0380198251168184511680821785525050505050509050019150506040516020818303038152906040528051906020012014905092915050565b604051806080016040528060608152602001600081526020016000600681111561194957fe5b8152602001600081525090565b6040518060a00160405280606081526020016000815260200160008152602001606081526020016000600781111561198a57fe5b81525090565b828054600181600116156101000203166002900490600052602060002090601f016020900481019282601f106119d157805160ff19168380011785556119ff565b828001600101855582156119ff579182015b828111156119fe5782518255916020019190600101906119e3565b5b509050611a0c9190611a9a565b5090565b828054828255906000526020600020908101928215611a89579160200282015b82811115611a885782518260006101000a81548173ffffffffffffffffffffffffffffffffffffffff021916908373ffffffffffffffffffffffffffffffffffffffff16021790555091602001919060010190611a30565b5b509050611a969190611abf565b5090565b611abc91905b80821115611ab8576000816000905550600101611aa0565b5090565b90565b611aff91905b80821115611afb57600081816101000a81549073ffffffffffffffffffffffffffffffffffffffff021916905550600101611ac5565b5090565b9056fea264697066735822122062d2e01bb24a549bcf361447e024a8e35c48bcfb2294daae1273bb68185f9bb864736f6c63430006070033",
  "source": "// SPDX-License-Identifier: MIT\npragma solidity >=0.6.7;\n\n/**\n*   @author Deniz Durak\n */\n\n\n/**\n*   @dev this is a try to abstract the PSS of airlines in real world\n*   all functions of this contract are only called if the payments, inside \n*   FlightToken contract, are completed.\n*   \n*   in case of following refund to the customer, this contract reports to customer\n*   the client automatically reports this to the FlightToken contract. This contract then\n*   refunds if granted\n*\n */\n\ncontract PSystemContract {\n\n    address owner; // owner is the airline\n    mapping(address => FlightTicket[]) ticketBase; // one cust can book many tickets\n    mapping(uint => FlightStatus) flightStatusMap;\n    mapping(uint => PassengerStatus) passStatusMap;\n    Flight[] flights;\n\n    enum FlightStatus {\n        PLANNED, CANCELLED, CHECKIN, BOARDING, DEP_ON_TIME, ARR_ON_TIME, DEP_DELAYED, ARR_DELAYED\n    }\n\n    enum PassengerStatus {\n        BOOKED, CHECKEDIN, BOARDED, DEPARTED, ARRIVED, CANCELLED, OVERBOOKED\n    }\n\n    constructor() public {\n        owner = msg.sender;\n\n        flightStatusMap[0] = FlightStatus.PLANNED;\n        flightStatusMap[1] = FlightStatus.CANCELLED;\n        flightStatusMap[2] = FlightStatus.CHECKIN;\n        flightStatusMap[3] = FlightStatus.BOARDING;\n        flightStatusMap[4] = FlightStatus.DEP_ON_TIME;\n        flightStatusMap[5] = FlightStatus.ARR_ON_TIME;\n        flightStatusMap[6] = FlightStatus.DEP_DELAYED;\n        flightStatusMap[7] = FlightStatus.ARR_DELAYED;\n\n        passStatusMap[0] = PassengerStatus.BOOKED;\n        passStatusMap[1] = PassengerStatus.CHECKEDIN;\n        passStatusMap[2] = PassengerStatus.BOARDED;\n        passStatusMap[3] = PassengerStatus.DEPARTED;\n        passStatusMap[4] = PassengerStatus.ARRIVED;\n        passStatusMap[5] = PassengerStatus.CANCELLED; // from airline or passenger\n        passStatusMap[6] = PassengerStatus.OVERBOOKED; // if flight is overbooked - new ticket status\n    }\n\n    struct FlightTicket {\n        string cid; // ipfs hash to json ticket data\n        uint flightIndex; // points to a struct flight\n        PassengerStatus pStatus;\n        uint256 price; // price in wei\n    }\n\n    struct Flight {\n        string flightNumber;\n        uint month;\n        uint day;  // day + month + flightNumber important for status change\n        address[] passengerList;\n        FlightStatus fStatus;\n    }\n\n    function createTicket\n    (\n        string memory cid, // pointer to ticket data\n        string memory flightNumber,\n        uint month,\n        uint day,\n        uint256 price\n    ) \n    public\n    returns (bool)\n    {\n\n        // check if flight exists\n\n        for(uint ind = 0; ind<flights.length; ind++) {\n            if(compareStrings(flights[ind].flightNumber, flightNumber) && flights[ind].month == month && flights[ind].day == day) {\n                ticketBase[msg.sender].push(FlightTicket(cid, ind, passStatusMap[0], price));\n                flights[ind].passengerList.push(msg.sender); \n                return true; // ticket isssued\n            }\n        }\n        address[] memory passengerList;\n        flights.push(Flight(flightNumber, month, day, passengerList, flightStatusMap[0])); // create new flight\n        flights[flights.length-1].passengerList.push(msg.sender); // push msg.sender into passengerList\n        ticketBase[msg.sender].push(FlightTicket(cid, flights.length-1, passStatusMap[0], price)); // create ticket\n        return true; // ticket issued\n    }\n\n\n    //changes the status of the flight\n    function changeFlightStatus(\n        string memory flightNumber, uint month, uint day, uint _status\n        ) public isAirline() \n        returns (bool, uint)\n    {\n        for(uint ind =0; ind<flights.length; ind++) {\n            if(compareStrings(flights[ind].flightNumber, flightNumber) && flights[ind].month == month && flights[ind].day == day) {\n                flights[ind].fStatus = flightStatusMap[_status];\n                if(_status == 1 || _status == 7) {\n                    return (true, 1); // true - status change done; 1 - status cancelled or arr_delay --> check for refund\n                }\n                return (true, 0);\n            }\n        }\n        return (false, 0);\n    }\n\n\n    // get PassengerList - to do the refund\n    function getPassengerList(string memory flightNumber, uint month, uint day) \n    public view returns(address[] memory) {\n        Flight memory buf;\n\n        for(uint i = 0; i<flights.length; i++) {\n            if(compareStrings(flights[i].flightNumber, flightNumber) && flights[i].month == month && flights[i].day == day) {\n                buf = flights[i];\n                break;\n            }\n        }\n\n        return buf.passengerList;\n    }\n\n\n    // get ticket cids to fetch details about in frontend\n    function getTickets() public view returns (string memory) {\n\n        uint len = ticketBase[msg.sender].length;\n\n        string[] memory aCids;\n\n        for(uint ind = 0; ind<len; ind++) {\n            FlightTicket memory buf = ticketBase[msg.sender][ind];\n            aCids[ind] = buf.cid;\n        }\n        return concatStrings(aCids);\n    }\n\n\n    // change passenger status\n    function changePassengerStatus(\n        uint _status, string memory flightNumber\n    ) public view returns (bool) \n    {\n        FlightTicket[] memory tickets = ticketBase[msg.sender];\n        if(tickets.length == 1) {\n            tickets[0].pStatus = passStatusMap[_status];\n            return true;\n        } else {\n            for(uint ind = 0; ind < tickets.length; ind++) {\n                if(compareStrings(flights[tickets[ind].flightIndex].flightNumber, flightNumber)) {\n                    tickets[ind].pStatus = passStatusMap[_status];\n                    // check if passenger status is cancelled --> if so, check the business rules for refund\n                    return true;\n                }\n            }\n        }\n        return false;\n    }\n\n\n    /**\n    * @dev concat all cids with underline between each one\n    */\n    function concatStrings(string[] memory cids) private pure\n    returns(string memory)\n    {\n        uint length = cids.length;\n        uint strLength = 0;\n\n        if(length == 1) { return(cids[0]); }\n            \n        else {\n            string memory differ = \"_\";\n            bytes memory bDiffer = bytes(differ);\n            // get count of bytes\n            for(uint ind = 0; ind < length; ind++) \n            {\n                bytes memory buf = bytes(cids[ind]);\n                strLength += buf.length;\n                if(ind < (length-1)) \n                {\n                    strLength += bDiffer.length;\n                }\n            }\n                \n            string memory bufStr = new string(strLength);\n            bytes memory concatBytes = bytes(bufStr);\n\n            uint indK = 0;\n            for(uint ind = 0; ind < cids.length; ind++)\n            {\n                bytes memory tt = bytes(cids[ind]);\n                for(uint indJ = 0; indJ<tt.length; indJ++) \n                {\n                    concatBytes[indK++] = tt[indJ];\n                }\n\n                if(ind < (length-1)) \n                {\n                    for(uint indDiffer = 0; indDiffer < bDiffer.length; indDiffer++)\n                    {\n                        concatBytes[indK++] = bDiffer[indDiffer];\n                    }\n                }\n            }\n                \n            return(string(concatBytes));\n        }\n    }\n        \n\n    /**\n    * @dev compares cmp1 & cmp2\n    */\n\n    function compareStrings\n    (\n        string memory cmp1,\n        string memory cmp2\n    )\n    private\n    pure\n    returns(bool)\n    {\n        return (keccak256(abi.encodePacked((cmp1))) == keccak256(abi.encodePacked((cmp2))));\n    }\n\n    // receives payment and throws event\n    receive() external payable {\n        emit PaymentReceived(msg.sender, msg.value);\n    }\n\n\n    modifier isAirline() {\n        require(msg.sender == owner);\n        _;\n    }\n\n    event PaymentReceived(address, uint);\n}\n",
  "sourcePath": "/home/dubka/Documents/BachelorThesis/bin/smart_contracts/contracts/PSystemContract.sol",
  "compiler": {
    "name": "solc",
    "version": "0.6.7+commit.b8d736ae.Emscripten.clang"
  },
  "schemaVersion": "3.0.23",
  "updatedAt": "2020-11-07T15:01:06.588Z",
  "networkType": "ethereum",
  "devdoc": {
    "details": "this is a try to abstract the PSS of airlines in real world  all functions of this contract are only called if the payments, inside   FlightToken contract, are completed.    in case of following refund to the customer, this contract reports to customer  the client automatically reports this to the FlightToken contract. This contract then  refunds if granted ",
    "methods": {}
  },
  "userdoc": {
    "methods": {}
  }
}